:020000040003F7
:10C00000B83F002039EA030053EA030055EA030071
:10C010000000000000000000000000000000000020
:10C0200000000000000000000000000057EA0300CC
:10C03000000000000000000059EA03005BEA030072
:10C040005DEA03005DEA0300F7C303005DEA030055
:10C050005DEA0300000000004BC903005DEA030035
:10C060005DEA03005DEA03005DEA03005DEA0300A8
:10C070005DEA03005DEA03005DEA03005DEA030098
:10C080005DEA03001FD103005DEA03005DEA0300DF
:10C0900035D103005DEA0300E9E903005DEA03002E
:10C0A0005DEA03005DEA03000000000000000000FC
:10C0B0000000000000000000000000000000000080
:10C0C0000348854602F05AFD00480047DDC10300E1
:10C0D000B83F0020401E00BF00BF00BF00BF00BF30
:10C0E00000BF00BF00BF00BF00BF00BF00BFF1D155
:10C0F00070470000401E00BF00BF00BF00BF00BF70
:10C1000000BF00BF00BF00BF00BF00BF00BFF1D134
:10C1100070470000056885F308884068FF2464B212
:10C12000EFF30585002D01D1A646004725460646BA
:10C1300021273FBAF0B40024002500260027F0B4E0
:10C14000F92040B2004700000A4610B50146724887
:10C1500000F0CCFD10BD10B500F019FD10BD10B5FC
:10C160006E4C86B01ECC03946C460EC4002807D0DB
:10C17000684618DF002803D00022114600F0B6FD03
:10C180000F20800313DF002803D00022114600F0A7
:10C19000ADFD634B48226349082002F009FC0028EA
:10C1A00003D00022114600F0A1FD0020049005906C
:10C1B00001206946087404A860DF002803D000222B
:10C1C000114600F093FD584802F006FC002803D009
:10C1D0000022114600F08AFD06B010BD08B5534894
:10C1E000C169B1294FD000245149032008600127BB
:10C1F000504D3E06AE6050480F2140698903884289
:10C2000004D000221146104600F070FD0120000706
:10C21000006901218902884204D00022114610469B
:10C2200000F064FD45480090454B052203210020A5
:10C2300000F0A7FF002803D00022114600F056FDB1
:10C240003B4940481039086001F08FFA01F0D3FAF9
:10C2500000281CD0EE6001F0DDFA002803D0002297
:10C26000114600F043FD20467840FFF778FF00F0CC
:10C2700044F801F0F5FA002803D00022114600F03E
:10C2800035FDAE6009E001240021C161ACE7204624
:10C290007840FFF764FF00F030F82869000DC00710
:10C2A000C00F04D000202043274C07D101E001201B
:10C2B000F9E7A06801F0B0F9002809D1EE6001F0BB
:10C2C00066FA002803D00022114600F00FFDAE6090
:10C2D000A06801F0A1F9002806D001F08CFA00282E
:10C2E00002D1A06801F05FFABFF34F8F18491748D9
:10C2F000C860BFF34F8F00BFFDE70A4A10B5483250
:10C300001421082000F000FD002803D0002211466F
:10C3100000F0ECFC10BD0000EFBEADDED8EB03007A
:10C3200027EA0300402F002057C10300000500400A
:10C33000600700500005005000100010BFD503003A
:10C34000002D00200C000300003000000400FA055E
:10C3500000ED00E01CB5A7490120C860A64948705F
:10C3600003206A4610708968684688471CBD70B50E
:10C3700002240122A14D9F4E9F49030002F010FCB0
:10C3800005040C2619200B004878012818D0022833
:10C3900001D10320487070BD4878002802D00328DE
:10C3A000F9D104E00420286032604A7070BD4C70FE
:10C3B00070BD4878012806D0022804D00328F7D1A0
:10C3C00000F00EF970BDFFF7C5FF70BD4878012879
:10C3D000FBD14878022800D0B2608878E861E6E7AF
:10C3E00010B500F0AAFA002801D0002000E00120DA
:10C3F000FFF7BDFF10BDFEB5814CA0687E4D814E9C
:10C40000002700280ED0706840070BD5A7607B4836
:10C4100080690422C0B2A88069460A700871A968C0
:10C4200068468847E069002806D07068000603D592
:10C43000E7610320FFF79BFF606A00280ED0706859
:10C4400080050BD567626D49803908680860022154
:10C450006A4611700190A96868468847FEBDFFB51D
:10C460000446654983B0002048708A60421E8A8075
:10C470006178012632468A4063498A6061780322E6
:10C480008B0062495B181A6022780C2392005118C5
:10C490000B605A4D6178E96021786961A168696231
:10C4A000564F61794037002902D00E21F96200E031
:10C4B000F8622379022B17D051494E4A012B44D000
:10C4C00004232B608860C861F86A40084000F86265
:10C4D000581FA860286196601660474846700C98FF
:10C4E000008800283DD042E000F01FF9002803D169
:10C4F00000F0F8F8002852D14548694600680090DD
:10C50000A07800F05DF9002849D1401E2861A0788C
:10C51000A860F86A3043F8623D483E4A406801909E
:10C52000E07801A900F08CF9002838D1E0780121E9
:10C5300000F0C7F9E07800F000FA002801D00020F0
:10C5400000E00120FFF713FFC9E704232B60886098
:10C55000C861F86A3043F862E0782861A078A86082
:10C56000B9E725490C9A08781080401C0870002112
:10C570002448C9438160A1218900416026490420E3
:10C580000860264B06991A68FF2424048907090EBF
:10C59000A24309040A431A6021490860002007B039
:10C5A000F0BD014610B5144800244278012A01D09C
:10C5B000042403E081700220FFF7D9FE204610BD5D
:10C5C00010B5FF2803D20420FFF7D1FE06E00420B7
:10C5D000FFF7CDFE0948006900F0D0F8002010BD3B
:10C5E00005490020487003490122CA604A60034996
:10C5F0000860704700200040002C0020002500400B
:10C6000000210040002300400005005000070050BA
:10C61000E8EB0300E1C3030080E200E000E400E097
:10C6200000E100E031B5054C04E0401E00902046DA
:10C63000FFF750FD00980028F7D138BDE703000050
:10C640008207D30EFF229A408907090E10B5994040
:10C6500000280BDA03071B0F083B9C080C4BA400B7
:10C66000E318DC6994430C43DC6107E08408094B60
:10C67000A400E418236893430B432360C106C90E4A
:10C6800001208840044908600449086010BD00008A
:10C6900000ED00E000E400E080E200E000E100E006
:10C6A000F0B50025ED43002A02D00023042601E066
:10C6B00004230526FB4C05E09F003F197F687F1C83
:10C6C00004D05B1CB342F7D32846F0BD5DB22618F8
:10C6D00035769E0036197160002AF5D1E1182031B7
:10C6E0000875F1E770B5EF4D2878002801D00820D3
:10C6F00070BD0020411E2A18401CC0B211762028AF
:10C70000F9D30024204600F0C1F9641CE4B2052CE2
:10C71000F8D301210620FFF793FF0120E249C0076B
:10C72000486001202870002070BDDE480078002895
:10C7300000D00120704710B5044600F098F9002899
:10C7400008D0DA48A1000A1810680221884308437B
:10C75000106010BD204600F080F90028F9D0204676
:10C7600000F08FF9D249820051180A69520852002C
:10C770000A6101218140CC48816010BD10B504469A
:10C78000FFF7D9FF204600F068F9002807D02046BF
:10C7900000F077F9C64A0021800080180161C34A81
:10C7A0000220A10089180860204600F06AF9C0B292
:10C7B00000F06CF90020BB49C0430919087610BD90
:10C7C000F8B50446B7480D46001918214156002611
:10C7D000491C01D008262FE0A97800291DD001228C
:10C7E00000212046FFF75CFF411C14D08300B048B5
:10C7F0002A78181869780369AE4F3B4003610369D2
:10C80000E706FF0C9207920BC907C90A3B430A438C
:10C810001343036104E004260EE00121C9430176BD
:10C82000A24A0320A100891808606A780120A0406C
:10C83000A149012A02D0C8603046F8BD8860FBE7F4
:10C84000F8B5984F0D460446381918214156002670
:10C85000C8171346401C01D0082630E0EA78194674
:10C860002046FFF71DFF411C28D0904BAA78A1005D
:10C87000C918002A03D00A6802239A4301E06A78A3
:10C8800092000A60E978002910D08200884829784F
:10C8900010180269894B1A400261E206D20C89071E
:10C8A000890B0A4301690A43026108E03818203005
:10C8B0002A78017D92011143017500E0042630467B
:10C8C000F8BD70B50D46064600F0D1F801240028E9
:10C8D000304618D000F0D5F87249001F08182030F3
:10C8E000007E8009032802D0012805D006E07248A6
:10C8F0000069B440204201D1022100E0032130460A
:10C9000000F09EF870BD00F0A8F80028FAD030467C
:10C9100000F0B7F88100CA1D654BF932C9180B69E0
:10C9200092B223430B616649511800220A60002D20
:10C93000E8D084405C48446070BD5F490969C140EB
:10C94000C807C00F00D001207047F8B50024FF25AC
:10C950000135012726460094284600F06AF8002891
:10C960000AD0514901204968B040014204D05448DE
:10C97000002128183C4301602D1D7F00761CADB2BC
:10C98000042EE9D3FF207D3000F053F8002807D0B3
:10C990004C4800210160400704434748006900906B
:10C9A000404E200713D00127002527420BD04048D6
:10C9B000AA00111808690969C004C00E8903890F0B
:10C9C0009219526890477F006D1C042DEDD3002C06
:10C9D0001EDA3820805D01258406A40E8709A54053
:10C9E000204600F044F8002812D0204600F049F814
:10C9F000800080194668002E0AD02C49A0004018FB
:10CA0000006800998003800F0D4202D0022802D0F6
:10CA1000F8BD0328FCD1032F05D1022807D002213D
:10CA2000204600F00DF839462046B047F8BD0321F6
:10CA3000F6E7234940180068012800D0002070471D
:10CA400082001A481018026803231B049A430260EC
:10CA5000026809040A430260704712490818182145
:10CA60004156042901D201207047002070470D492A
:10CA7000081818214156042901DB012070470020C5
:10CA800070470849091818200856704705490022C0
:10CA90008300D2435B185A60042802D30818203060
:10CAA00002757047D8300020006300400007005036
:10CAB00000650040FFE0ECFF00050050FFE0FCFFD8
:10CAC000006000407C61004018225043854A0021EC
:10CAD0008018017181604161022281610261C1603F
:10CAE000704770B57F4C182221780F2051430A19E6
:10CAF0007D4916795369121D4D68022E0ED0042E01
:10CB00000BD1B006006981B2184601F0FDFF401953
:10CB100028DF002801D10121A17070BDA80255684D
:10CB200051692D1A091892681818101801229202DA
:10CB3000954202D2AA0829DFEBE7FF22013229DF62
:10CB4000E7E7F8B5674C069E65780A2D1DD0277873
:10CB50007D19EDB20A2D01D30A3DEDB218277D43B0
:10CB60002D192871AA6103C9EE60AB606961286163
:10CB7000A1780020002904D1FFF7B3FF112800D1CC
:10CB800000206178491C6170F8BD0420F8BDF8B53B
:10CB9000544C0022A17801293ED10023A3700646FF
:10CBA000214608781827054678434118022E03D0FD
:10CBB000032E31D10D202CE04B484668761C466090
:10CBC0008968B6028E4214D343606078401E60705C
:10CBD000681CC0B220700A2801D30A3820701820BF
:10CBE000684301191046091D00F06BF82846FFF74D
:10CBF0006BFF607800280FD0A07800280CD1FFF7D9
:10CC000070FF002808D0112806D02178182251433F
:10CC10000919091D00F055F8F8BD70B50024324E11
:10CC20003048746004704470847025462846FFF7CD
:10CC30004BFF6D1C0A2DF9D32B49346000200831BD
:10CC400074608200401C8C500228FAD3002070BD12
:10CC500010B5254B1A68022A09D00A601C469100BB
:10CC6000083400686050521C00201A6010BD042077
:10CC700010BDF8B507461D4616460C46084600F09E
:10CC80001AF800280CD0601900F015F8002807D019
:10CC900033462246394602200095FFF752FFF8BD81
:10CCA0001020F8BD08B50B46002201460420009272
:10CCB000FFF747FF08BD800701D000207047012023
:10CCC000704738B50C46E268074B920008339D5810
:10CCD000097862680092024620460C306369A847D2
:10CCE00038BD0000143100200C2C0020BFF34F8F02
:10CCF00004490348C860BFF34F8F00BFFDE7000041
:10CD00000400FA0500ED00E030B5CB0008339DB219
:10CD100093070024002B01D0072030BD574B9A60A9
:10CD20005219DA605C701C7058809980002030BD08
:10CD3000F7B5524C82B060880F4681426ED8002011
:10CD4000694608704F494E4E4868C005C00D18D05E
:10CD5000103840B2002807DA0207120F083A92088A
:10CD600092005118C96904E08108474A890089186E
:10CD700009688007C00EC1400806850F012D01D14A
:10CD80000AE00425684636DF02280CD0002803D0CC
:10CD900000221146FFF7AAFF22786078A188884216
:10CDA00003DA401C02E072B6F6E70020C0B29042FF
:10CDB00007D066786078884201DA401C00E00020E5
:10CDC0006070012D0BD062B66846007837DF02280C
:10CDD00005D0002803D000221146FFF787FF28481E
:10CDE000864219D0A068F5000499415102990029A2
:10CDF0000CD0002F0AD060883A464643E0683018CD
:10CE000001F098FEA0682818878002E00021281809
:10CE10008180002005B0F0BD0420FBE70920F9E780
:10CE20000EB504E068468188029A0098904702AAED
:10CE300001A9684600F003F80028F3D00EBD70B5D4
:10CE40000E4B05241D785E78AE4215D01D781C78F7
:10CE50009E88B44201DA641C00E000241C705C88E7
:10CE6000DE686C43A41904609B68E800C418A488B9
:10CE70000C80185800241060204670BD1C2C002027
:10CE8000FFFF000000ED00E000E400E08307FF2268
:10CE9000DB0E9A408907090E994000280BDA00073B
:10CEA000000F08388308FB489B001818C369934398
:10CEB0000B43C36170478308F7489B001B18186831
:10CEC000904308431860704770B50124F34960042B
:10CED0000860F34940108860F14940398860F14D9D
:10CEE0006C602F20FFF706F9AC60EF4D00242F2077
:10CEF0006C61FFF7FFF82C7170BDF0B5EA4F24218B
:10CF0000BC6841430D1939694A1C09D024224A439F
:10CF100016196B687268934204D8D21A726029623B
:10CF20003861F0BD0A4602E00A46396A9B1B4E1C76
:10CF30000BD024264E4337197E689E42F4D3242614
:10CF40004E4336197768FF1A77606B602962242197
:10CF50004A4311190862F0BD70B5D34C2269A56827
:10CF60001346114606E0814207D00A462426714343
:10CF70004919096A4E1CF6D170BD002EFCD08A42B8
:10CF80000CD1242043435819006A2061401C05D16C
:10CF9000C44B0120986000236361607124204143E9
:10CFA0004819242341685A43006A52191062421CEE
:10CFB000E2D024225043401942685118416070BDAC
:10CFC000F8B5B94C2569681C35D0B84800264068CA
:10CFD0006169401A07023F0A19E024204543A0680E
:10CFE0002A185068B84214D8A3693F1A8619156ADE
:10CFF000002B09D0D16990699847002807D00022FA
:10D000001146FFF773FE02E09169D0698847681CFA
:10D01000E3D1A178E078814206D1401CC0B2E07033
:10D02000022801D10020E0709F490006800D1C31CC
:10D030000E5000F0BDF9F8BDF8B504469A48002737
:10D040000169009146785CE09748F100C2688D184C
:10D0500051E0601C07D0944A242092686043214626
:10D060008018046A24E02878182141436A68401C2B
:10D07000C0B252182870A978884200D12F708A4B0C
:10D08000516824209B684843C0181378012B34D181
:10D09000037D002B31D193688360D368C36013692B
:10D0A00003615269C261804A5279002A00D08760C8
:10D0B0007D4B82685B6996469C46D31A1A027C4B6C
:10D0C000120A9A4202D2C368D21808E07246634636
:10D0D0009A1A1202C368120A934202D99A1A42603B
:10D0E00000E0476087600122C7600275921E0262FD
:10D0F0000846FFF702FF601CABD1287869788842A8
:10D10000A7D13046761EF6B200289DD16648016947
:10D110000098814201D00120F8BD0020F8BD65498A
:10D120000020086048608860C86062494039086033
:10D13000486045E7FEB50020C0435B4D029068693A
:10D14000019068462E6900F038F9074600F052F960
:10D150000446002F08D002AA0199009800F092F925
:10D160000298FFF769FF06E00298FFF765FF0028C5
:10D1700001D1002C02D0304600F0ADF900206871DA
:10D18000FEBDFFB59807002481B01E4615460F4628
:10D1900000280BD1002E09D0FFF796FE42490A98CD
:10D1A00088610F70324600208E6008E0072005B0CD
:10D1B000F0BD24234343D4549B181C75401CB84233
:10D1C000F7DB24204743BB19032048700F4618465D
:10D1D000CB6019461830002218232E465E43D30038
:10D1E0005B181C705C709D7058603018521C032ACC
:10D1F000F5DB0020C0433861BC70FC7001242E4870
:10D200002405046003211420FFF740FE23488038E2
:10D210000460264C0198A06003211120FFF736FE20
:10D22000606878610020C2E770B51F4CA568002DCA
:10D2300006D0002A06D0002804D00023247809E074
:10D24000082070BD072070BD24265E43AE5D002E11
:10D2500004D05B1CA342F7DB042070BD242401260C
:10D260005C432E5564196170A2610360002070BD9B
:10D2700008494868C005C00D2ED0103840B20028BB
:10D280001CDA0207120F083A920892005118C96975
:10D2900019E0000000ED00E000E400E080E100E0C3
:10D2A00040130140001001402C2C002000150140CB
:10D2B000FFFF7F004011014080E200E08108B24A98
:10D2C0008900891809688007C00EC1400806800FD0
:10D2D000012803D0032803D00220704700207047A4
:10D2E00001207047FEB50446A848174682680D46DF
:10D2F000002A0CD001788C4201D2052D01D20720E2
:10D30000FEBD214624235943535C012B01D0082044
:10D31000FEBD8818407801281DD00026FFF7A8FF21
:10D32000C0009A490190C9684018694600F019F98F
:10D33000002812D0012101709549446049680830E5
:10D34000E2C092490198C96841180098487000F0FD
:10D350002FF80020FEBD2E46E0E70420FEBDF8B504
:10D360008A4D0446A868002809D029788C4201D348
:10D370000720F8BD24216143405C012801D008202A
:10D38000F8BDFFF775FFC600E8686946301800F081
:10D39000E8F800280AD0022101704460E8683118DA
:10D3A0000098487000F004F80020F8BD0420F8BD93
:10D3B0000120784900050860704710B573490023C3
:10D3C0008A78CC78A24212D0521CD2B28A70022A39
:10D3D00000D18B708A786D4B92001C339A58026092
:10D3E000486910180002000A4861012010BD03605E
:10D3F000002010BDF8B5654801690091457833E01B
:10D400006248E900C0680E1834782AE018206043AA
:10D410007168641C0818B178E4B2A14200D10024FC
:10D420000178022902D003291BD113E0574A406832
:10D430002421926841438F18397D002911D0FFF7CC
:10D440008BFD002038750CE024277843C018027546
:10D45000006A03E04D4900228B680869471CF3D13C
:10D4600008617078A042D1D128466D1EEDB2002827
:10D47000C6D1464801690098814201D00120F8BD1B
:10D480000020F8BDF7B5414C0025A76823691EE0D0
:10D4900024215943C9194E68864202D9301A48607E
:10D4A00017E0801B751900264E600E750E699C46AC
:10D4B0000B6AB646002E0AD0019E76193602360A4D
:10D4C0008E607646CE6016680E6261461160591C09
:10D4D000DED12361FEBDF8B52C4801694A1C3DD060
:10D4E00024225143826889184E6829494C6847694B
:10D4F0000079E11B0D022D0AED1C002815D1012039
:10D50000254A00045060244A403A506021494000B6
:10D5100080310860214908602149012008602F20DE
:10D52000FEF7E8FD194901200871B54200D23546E1
:10D53000E81900021649000A403108601449496898
:10D54000001B091B0902090A0002000AC91C8142CA
:10D5500003D901200F4940040860F8BDFFF7B4FC6F
:10D56000F8BD42788378521C934200D100220378A0
:10D57000934201D1002070470A6041684078182228
:10D58000504308187047000000E400E02C2C0020F5
:10D590000015014000E200E04013014000E100E01E
:10D5A0000010014010B50446082904D0002211469D
:10D5B0001046FFF79BFB21686068884710BD1CB5CB
:10D5C00001910090024A08216846FFF7B1FB1CBD9B
:10D5D000A5D5030010B5B7480378012B02D1022965
:10D5E00000D10170100003D000221146FFF77EFB2E
:10D5F00010BD10B5AF4C48DF002803D00022114603
:10D60000FFF774FBFFF70CFC2078022803D00328F7
:10D6100001D00428EFD110BD38B50068401C19D0E6
:10D620000024684600F04EF900980178012910D1D5
:10D63000418800290AD08168032000038068002205
:10D6400000F04AF900994988814201D1012400E0A3
:10D650000024204638BD10B5044696481C21001D04
:10D66000FFF720FB002803D000221146FFF73EFB06
:10D67000904800231C222146001DFFF7FAFA0028DB
:10D6800003D000221146FFF731FB10BD0FB4F8B5EF
:10D69000684600F017F96846027E418B0123854CED
:10D6A000FF258548002A12D0012A16D0032A2AD045
:10D6B0000021022A36D0052A46D0042A4ED0062A56
:10D6C00001D104202070F8BC08BC04B01847418088
:10D6D000099981600370057110E04180089A0799EB
:10D6E0008918099A89188160A52101700571079927
:10D6F000C1600899426101610A99816123706E4895
:10D70000FFF7A9FFDFE700990A7802704A88428094
:10D7100089688160AA2101710799C1600899016136
:10D7200009990BE0009A1678A52E09D00670568844
:10D730004680926882600571C16001614161DDE7E8
:10D74000418081600570F6E700F032FD002803D0CB
:10D7500000221146FFF7CAFA0320B3E74180816037
:10D760000570009909790171C9E70EB5534A6B46F6
:10D7700007CA07C3FFF751FA002807D14D49FF2018
:10D780008002091D48606846FFF762FA0EBD10B5B9
:10D7900000F0B8F9002805D100F0E8FC0446FFF7D6
:10D7A00028FF204610BD70B511DF002803D00022ED
:10D7B0001146FFF79BFA424900200A68404B0121BD
:10D7C00080330C468440144204D0C506ED0E0C464E
:10D7D000AC401C60401C2028F3D303242403A06821
:10D7E00013DF002803D000221146FFF77FFAA0685C
:10D7F00000F06EF870BD08B5684600F063F8009858
:10D800000178A52904D00079AA2801D0002008BDFC
:10D81000012008BD10B500F063FB002803D100F023
:10D820003FFB00281BD06420FEF7FCFE00F0DEFA70
:10D83000002803D000221146FFF758FA00F050FBF1
:10D84000002803D000221146FFF750FA00F008FB31
:10D85000040003D000221146FFF748FA204610BD0D
:10D8600000B5164987B014220C3101A801F062F905
:10D870000598009001A80FC8FFF708FFFFF7B9FE51
:10D88000002007B000BD38B50446684600F01AF81D
:10D89000009801782170418861808168A1600179D8
:10D8A0002171C168E160016921614169616180693B
:10D8B000A06138BD502C002008320020F0EB03009E
:10D8C00000E100E0014901607047000000FC030036
:10D8D00010B5FEF71FFC10BD10B50446002A02D09B
:10D8E0001088002210E00A48FBE7030A0002034305
:10D8F000A05C584003061B0F43401803584083B2F6
:10D900001806C00C5840521C8A42EED310BD0000CD
:10D91000FFFF000070B5FA4C1E46607815460229DC
:10D9200002D0042916D108E0052813D1A369002BE1
:10D9300010D03246294604200BE002280AD1F148D3
:10D940004068804703206070A369002B02D03246F4
:10D9500029469847280003D000221146FFF7C6F950
:10D9600070BD00B5E64987B0012008700520694602
:10D9700008710598009001A80FC8FFF787FE07B04F
:10D9800000BD10B5DE4C2078002801D0082010BD65
:10D990002069FFF7E4FC002803D000221146FFF7BE
:10D9A000A5F90F21002289042069FFF79BFC0400E0
:10D9B00003D000221146FFF799F9204610BDD04947
:10D9C00010B5CF482431416102214170C168243033
:10D9D000FFF768F9002803D000221146FFF786F907
:10D9E00010BDC74910B5C6481C31416102214170C4
:10D9F0000320000380680F218903081A4108C048EA
:10DA00001C30FFF74FF9002803D000221146FFF722
:10DA10006DF910BD704700B587B01422BA4901A84E
:10DA200001F088F80598009001A80FC8FFF72EFEB6
:10DA3000A5E700B587B0012168460171B04881882B
:10DA40006846C1800320000380680590AD485038C7
:10DA50004168029181680391C06804900598009024
:10DA60000A46049B02990198FFF710FE002086E702
:10DA700030B5A44CA248503C87B02430E168FFF791
:10DA800011F9002803D000221146FFF72FF99C4816
:10DA9000E2681C30416800230830FFF7EAF805000F
:10DAA00012D1142101A801F05EF80021684601712D
:10DAB000934881886846C180E0680490059800908A
:10DAC00001A80FC8FFF7E2FD284607B030BD00B53A
:10DAD00087B0032168460171894881886846C18002
:10DAE000884850384168029181680391C068049069
:10DAF000059800900A46049B02990198FFF7C6FD1D
:10DB000000203CE73EB5804A6B46143207CA07C383
:10DB10007B4D0024AC702946AC8024316846FFF769
:10DB200097F8002801D06C703EBD032074490003B3
:10DB300080682431486024390A46526ACA610F213C
:10DB40008903091A490840186D49704A1C31486018
:10DB50006B4800211030FFF767FB002803D000223C
:10DB60001146FFF7C3F80F21002289042869FFF747
:10DB7000B9FB002803D000221146FFF7B7F80120B7
:10DB8000AC60687000203EBD5D498861704770B52B
:10DB900042685C481468536891685038D2680460E1
:10DBA0004360C26081600078440701D5840705D1D5
:10DBB0009C0703D18C0701D1940701D0062070BDCA
:10DBC0005B189A184E4D0F239B02EA60994213D8B6
:10DBD0004F49504B4B4CC60709D08868181A9042E1
:10DBE0000AD34D4820604D4860604D480FE0896879
:10DBF000591A4908914201D20C2070BD494921604F
:10DC000049496160800701D5484800E04848A06064
:10DC10006878012802D00826304670BDFFF7B1FEB3
:10DC20000600FAD12168E8688847F5E770B5050075
:10DC300004D0287A800703D0102070BD0E2070BD5C
:10DC40002F4C6078032803D0042801D0052801D088
:10DC5000082070BD6868E1688600A0688019884265
:10DC600004D90020C043A0600C2070BDFFF789FEDE
:10DC70000028FAD1A9683246A3686069FEF7F9FF67
:10DC80000028F2D1A1688919A160E2689142ECD024
:10DC9000092070BD10B51A4C0820A168002900D0D9
:10DCA00010BD61780429FBD11648A178403800F0F6
:10DCB0005DF9002802D00021A17010BD052161701E
:10DCC00010BDF8B50E4C07466078032804D0042830
:10DCD00004D008252846F8BD04206070A0680028FC
:10DCE00001D00820F8BDFFF74CFE0500FAD1786896
:10DCF0008600A078811940291CD90920F8BD0000B0
:10DD00005C2C00207432002010EC030063D9030067
:10DD10000030000000C00300BFD9030017DA030081
:10DD200033DA0300E3D9030015DA0300CFDA030086
:10DD300071DA03008B4AB9681018324600F0FAFE17
:10DD4000A0788019A070C5E710B5874C60780528C9
:10DD500013D1E168A06888420FD106206070FFF7F8
:10DD600010FE002808D16069E168406800F038F9C9
:10DD7000002801D10721617010BD082010BD10B529
:10DD800079484178072901D0082010BD0069FFF7C4
:10DD9000E6FA002803D000221146FEF7A7FF7148DB
:10DDA00040308068804710BDF8B51C4617460D46C8
:10DDB000064600F0C1F8002817D001200003854274
:10DDC00007D92346291B301B1A46FFF7EDFF002811
:10DDD0000BD13A462946304600F0B9F8002804D164
:10DDE0003A462946304600F0A7F8F8BDF0B589B0AC
:10DDF0006846FFF748FD039800282AD0012109034F
:10DE0000069A4018904226D9501A45081046039A9F
:10DE10000C46871802466800161800190790032060
:10DE200000038068039988420DD2611908460422D4
:10DE300000F08DF800280CD121460422084600F09D
:10DE400086F8002805D1BA1B2B4630460799FFF704
:10DE5000ABFF09B0F0BD039A069800F078F8F8E738
:10DE600000B58BB004A8FFF70EFD089800280DD070
:10DE7000079800280CD007990A98401801900021B3
:10DE80000898009180080290684618DF0BB000BD2A
:10DE90000320000380680F218903091A4908ECE771
:10DEA00000B58BB004A8FFF7EEFC08980028EDD071
:10DEB0000F210798890300280CD0079A0A9801912E
:10DEC0008018029003220898009280080390684608
:10DED00018DFDBE70320000380680A1A5208EEE728
:10DEE00030B58FB06846FFF7CEFC0398002814D0F9
:10DEF00001210903069A4018904214D9501A430888
:10DF00001046039A5C008218001961180324240348
:10DF1000A468039DAC4202D20E200FB030BD121A8D
:10DF2000FFF742FFF9E703200BAB07C30398800814
:10DF30000E900BA818DFF0E71FB50323019090089F
:10DF4000039000930291684618DF04B010BD1FB51E
:10DF5000012301909008039000930291684618DF16
:10DF6000F3E70000343200205C2C002070B500255F
:10DF70000C290ED304464318008941000919581A88
:10DF80000A38C2B21E48022A027002D30A318B42FA
:10DF900001D2092070BD1B4800F0CCFD1A491B4876
:10DFA0000A88824202D02388934217D1498881424D
:10DFB00002D06088884211D1144A0323521E20895E
:10DFC0001B03A8420AD9690009194989914203D063
:10DFD0009E896D1CB142F4D1002070BD0B2070BD34
:10DFE00010B50022FFF778FC064A51781278090232
:10DFF0001143884201D00B2010BD002010BD00004D
:10E00000882C00208032002080100010FFFF0000CC
:10E010000C2250436C4A00211150801881604160ED
:10E02000704710B5042819D20C21674A41438B1858
:10E0300051589C6800290FD0114620310A7C521E8D
:10E040000A74FFF7E5FF201F00F053FC002803D0FF
:10E0500000221146FEF74AFE002010BD072010BD29
:10E0600010B5080003D000221146FEF73FFE10BD98
:10E0700070B5554D2E4620362FE0002421460C2049
:10E08000414348190268002A24D0695801290ED05A
:10E09000032907D0042902D0052912D121E0FFF776
:10E0A000C5FD0EE081684160FFF771FD03E0FFF7F9
:10E0B00008FEFFF7EFFD002803D000221146FEF70F
:10E0C00015FEE0B2FFF7ADFF002803D00022114695
:10E0D000FEF70CFE641C042CD0D3307C0028CCD17D
:10E0E00070BDFFF731FEFFF74AFE70BD3EB501A9D6
:10E0F000684600F0DFFB002813D1009802AC0378DB
:10E10000002B0ED030492031087C032809D02E4A3C
:10E1100000200C2545435559002D0CD0401C0428E7
:10E12000F7D3009800F0E5FB002803D00022114649
:10E13000FEF7DCFD3EBD20700C2460431350087CCC
:10E14000401C08746846808881086846007A491E29
:10E1500060438018416000991C4A091D81600021BC
:10E160000846FEF7E5FD0028DBD13EBD164810B598
:10E170000021203001740C46E0B2FFF749FF641C17
:10E18000042CF9D31248FFF7FFFC00F046FB0028EF
:10E1900003D000221146FEF7A9FD0E4800F028FB2F
:10E1A000002803D000221146FEF7A0FD002010BD7C
:10E1B00010B50024E0B2FFF734FF641C042CF9D33F
:10E1C00000F057FB10BD00008C32002071E003000E
:10E1D00061E00300EDE003004F480021017050486A
:10E1E0004E4A02608160C160016102224161426069
:10E1F0008161084670470020704710B500291FD084
:10E2000000220A60464A5368002B1DD04B24E400CC
:10E21000A04217D85B1E5360D0689723401CD06083
:10E2200010699B0014684343E3180B6001210C46FE
:10E23000936984402343814393610020116110BDA1
:10E240000E2010BD0C2010BD042010BDF0B5344BC5
:10E250008446996800292BD05A691020511AC907A1
:10E26000C90F96461D680A4601279726B6004E43F9
:10E27000AE19664506D13D469C698D406C40002034
:10E280009C6104E00E463946B1438E45EDD13D46D2
:10E290009C698D43394691400C420AD19968002906
:10E2A00007D0491E996059682A46491C5960F1E710
:10E2B0000420F0BD1A4A012113691268994397237B
:10E2C0009B0059431B1FC91850500020704770B560
:10E2D00000281CD000291AD0114AD368002B18D06E
:10E2E0005B1ED360936897265B1C93605369B600EE
:10E2F0001D4614687343E61806604B20C0001818CA
:10E30000205808600120A8435061002070BD0E20F5
:10E3100070BD042070BD0000892C0020E032002078
:10E320009837002010B5884CA1692069405CFEF741
:10E3300038F9002802D1A169491CA16110BD10B5AE
:10E34000C020FEF72EF9002805D17F498A69002AEE
:10E3500001D17E4A8A6010BD10B57B4CA16920694D
:10E36000405CC02803D0DB2803D0042010BDDC2093
:10E3700000E0DD20FEF715F90028F7D1A169491C5E
:10E38000A1617249A16010BD10B5DB20FEF709F94B
:10E39000002802D16C4A6E49916010BD70B56B4D7A
:10E3A0006C4E694C10E0A1692069415CC02903D022
:10E3B000A169405CDB2803D1A068A84200D1A66017
:10E3C000A0688047042813D0A06961698842EAD315
:10E3D0006148A060FFF7B3FF002809D10120207039
:10E3E000E368002B04D05D48A26900682169984762
:10E3F00070BD30B4544B5A6A002A09D0DC68002C36
:10E4000006D00020D9695862D861A44630BC604764
:10E4100030BC7047C02808D04B49DB2806D0CB69F8
:10E420004A6A9854521C4A627047E2E74C48486076
:10E43000704710B5444CC02808D021464A6ACB69C1
:10E44000511CDC2805D0DD2806D104E0FFF7D1FF00
:10E4500004E0C02000E0DB20985461624148606025
:10E4600010BDC02802D138493E484860704770B599
:10E4700005460078344C032804D12078022812D1B4
:10E48000FFF78CFF287804280DD1E169002903D01B
:10E49000626A206A824207D3E368002B03D02F48C8
:10E4A000626AC068984770BD61682879884770BD06
:10E4B0002549C860002070471FB5234C20780028EC
:10E4C00002D0002004B010BD244A01AB183207CAA4
:10E4D00007C31D480323801C0090234A002101A884
:10E4E000FDF7BDFF0028EDD101212170EAE710B54D
:10E4F0001548002101704088FEF762F810BD10B584
:10E50000002807D0104A1378012B05D0022B0FD01A
:10E51000082010BD102010BD0023936151611061CF
:10E52000022010700C489060FFF738FF002010BDEB
:10E53000042010BD044A1162D061002050620B48D3
:10E5400050600020704700008C2C002025E3030061
:10E5500059E3030089E303003FE3030030EC0300C9
:10E5600033E4030015E403006FE4030063E40300F5
:10E5700010B5E948E84C007DE41CC0002070002084
:10E580006070A070204600F0B9F9E07004212046C8
:10E59000FFF7B5FF10BDF3B581B04B26029FF60023
:10E5A000DD4C0546042F65D92878410662D5010661
:10E5B00060D569780A07120F0E2A5BD14118AA7834
:10E5C000E878101808180006000E53D100222846DB
:10E5D000B91EFFF781F9E9191E394A7F0B7F110235
:10E5E0001943884246D12878012741076069490FBD
:10E5F000C2B28A4231D1401C4007400F6061FFF730
:10E60000B7FF67700298FFF755FE002803D000227D
:10E610001146FEF76BFBC04930461031FFF7EDFDA8
:10E6200000280AD0042804D0002211461046FEF724
:10E630005DFBB94805212C3001E031462069FFF728
:10E6400079FF002803D000221146FEF74FFBE16856
:10E65000002901D000208847FEBD31462069FFF720
:10E6600069FF002803D000221146FEF73FFBFFF7A9
:10E670007FFFFEBD31462069FFF75CFF0028F8D020
:10E6800000221146FEF732FBFEBD70B5A24C257884
:10E6900021464B6A002D12D00A46116AD269012D1B
:10E6A0001ED0022D1BD1002828D0022834D00328E8
:10E6B00015D1207E401C4007400FA06138E00028A3
:10E6C0000DD11846FEF74BFE002803D0002211465C
:10E6D000FEF70CFBA168002901D0A078884770BD27
:10E6E0000128FCD11046891DFFF709FF002803D03F
:10E6F00000221146FEF7FAFA02201AE00020024634
:10E70000A06286491846FEF7EDFD0028E7D00022FA
:10E710001146FEF7EBFA70BDA06A052806D0401C32
:10E72000A0621046891DFFF7EAFE70BD0120A070AF
:10E73000002000F0ECF870BD37B56846007800287E
:10E7400008D0012802D002284BD14FE00120FFF76A
:10E750009CFF3EBD0299704C0198042921D3417859
:10E760000807000F06D00E281BD102990198FFF769
:10E7700012FF3EBD019803788278C07859181018AE
:10E780000818C0B2002200280BD19806410F207E45
:10E79000401C4007400F884203D1A2700320FFF7BE
:10E7A00074FF4B252069ED00002801D0294614E0B4
:10E7B000594928461031FFF720FD002808D00428C9
:10E7C00004D0002211461046FEF790FA052102E01F
:10E7D0002946206901E050482C30FFF7ABFE0028A5
:10E7E000C7D000221146FEF781FA3EBD0521F2E7AF
:10E7F00010B504464848C4604948FFF759FE002850
:10E8000003D000221146FEF771FA002C01D000203F
:10E8100010BD0E2010BD022037E770B53E4C002021
:10E82000E0612062A0626070207001206061A061E0
:10E83000A070014620463B4A2430FEF7F5FC002834
:10E8400010D1FFF7C9FC00280DD1FFF735FE0028D5
:10E8500009D14B252146ED0010312846FFF7CDFCAC
:10E86000002801D0032070BD29462069FFF762FE11
:10E8700070BD10B5284C0020A060E060FFF7BBFC25
:10E88000002803D000221146FEF730FAFFF72FFED2
:10E89000002803D000221146FEF728FA606AFEF72E
:10E8A0005EFD042804D1002211461046FEF71EFA30
:10E8B000002010BD38B50D46040017D0002D15D02E
:10E8C0000020154900904A78002A0DD0487069460A
:10E8D0002046FFF7FCFC02460098801F009028802D
:10E8E0002068001D206002E0042200E00E22104695
:10E8F00038BD10B5001FFFF7A9FC10BD01784278A4
:10E90000807851184018C043401CC0B2704702497B
:10E9100008700020B9E60000B42C0020DF4F000092
:10E9200039E7030017E8030010B508461146FDF764
:10E930000BFC10BDF8B5344C2078002837D0206986
:10E94000002807D00026E068002805D00025002E0A
:10E9500004D013E00126F6E70125F8E7684651DF09
:10E96000052806D0002806D000221146FEF7BEF981
:10E9700004E0012602E0216900988847002D12D1A9
:10E98000608869460880A06861DF052806D00028F5
:10E9900006D000221146FEF7A9F904E0012502E0A5
:10E9A000E168A0688847002ED8D0002DCFD0F8BDF0
:10E9B00070B5002901D08C0701D0072070BD124C22
:10E9C0000125A16062801149636010DF0028F5D144
:10E9D000257016202EDF70BD002803D00A4908617B
:10E9E000002070470E20704710B507484068002887
:10E9F00007D08047002803D000221146FEF776F9A1
:10EA000010BDFFF797FF10BDE82C002029E9030097
:10EA100010B5002904D0002211461046FEF766F911
:10EA2000FFF788FF10BD10B50021024A0846FEF727
:10EA30007FF910BD11EA03000321094802680A4367
:10EA40000260084802680A43026007488047074896
:10EA50000047FEE7FEE7FEE7FEE7FEE7FEE7000011
:10EA6000240500405405004071EA0300C1C00300C2
:10EA700010B500F01DF8002805D01F491D4848605A
:10EA8000C8131E4988611E48018CC9B201290ED1E4
:10EA9000818C09070BD1018D0906090F042906D1C4
:10EAA000808D0006000F02D116490120886010BD3C
:10EAB0001348018CC9B2012917D1818C090714D1DF
:10EAC000018D09060A0F03D1828D1206120F0ED096
:10EAD000090F012903D1828D1206120F07D00329D5
:10EAE00003D1808D0006000F01D000207047012067
:10EAF00070470000DFFF07C000050040006C0040C9
:10EB0000C00F00F00006004030B50B460146002063
:10EB10002022012409E00D46D5409D4205D31D4623
:10EB20009540491B2546954040191546521E002D1B
:10EB3000F1DC30BD03460B439B0703D009E008C955
:10EB4000121F08C0042AFAD203E00B780370401C9D
:10EB5000491C521EF9D27047D2B201E00270401C2B
:10EB6000491EFBD270470022F6E710B513460A464D
:10EB700004461946FFF7F0FF204610BD064C01255C
:10EB8000064E05E0E36807CC2B430C3C9847103455
:10EB9000B442F7D3FDF798FA54EC030074EC030089
:10EBA00030B47446641E2578641CAB4200D21D4606
:10EBB000635D5B00E31830BC184702E008C8121F11
:10EBC00008C1002AFAD170477047002001E001C156
:10EBD000121F002AFBD17047020000000000000055
:10EBE0000000000000000000000100000300000021
:10EBF000D5D5030000000000000000000200000066
:10EC00000000000000000000000000000000000004
:10EC100004000000000000000000000000000000F0
:10EC20000000000015D903000000000000000000F3
:10EC300001000000000000000000000002000000D1
:10EC400000000000000000000B09080A010000009D
:10EC500000509D0074EC0300002C00200001000017
:10EC6000BAEB030074ED0300002D0020B812000081
:10EC7000CAEB030001000000FFFF000000000000DD
:10EC80000000000000000000000000000000000084
:10EC90000000000000000000000000000000000074
:10ECA0000000000000000000000000000000000064
:10ECB0000000000000000000000000000000000054
:10ECC0000000000000000000000000000000000044
:10ECD0000000000000000000000000000000000034
:10ECE0000000000000000000000000000000000024
:10ECF0000000000000000000000000000000000014
:10ED00000000000063E4030025E3030000000000AE
:10ED100000000000000000000000000000000000F3
:10ED200000000000000000000000000000000000E3
:10ED300000000000000000000000000000000000D3
:10ED400000000000000000000000000000000000C3
:10ED500000000000000000000000000000000000B3
:10ED600000000000000000000000000000000000A3
:04ED70000024F40087
:020000041000EA
:0410140000C0030015
:040000050003C0C173
:00000001FF
