:020000040000FA
:10300000F0210020C9D50100E141000027D50100D1
:10301000E1410000E1410000E1410000000000004A
:103020000000000000000000000000002DD601009C
:10303000E141000000000000E1410000E14100002A
:1030400095D601009BD60100E1410000E14100005E
:10305000E1410000E1410000E1410000E1410000E8
:10306000A1D60100E1410000E1410000A7D6010026
:10307000E1410000ADD60100B3D60100B9D6010090
:10308000E1410000E1410000E1410000E1410000B8
:10309000E1410000E1410000E1410000E1410000A8
:1030A000BFD60100C5D60100E1410000E1410000AA
:1030B000E1410000E1410000E1410000E141000088
:1030C000E1410000E1410000E1410000E141000078
:1030D000E1410000E1410000E1410000E141000068
:1030E000E1410000E1410000E1410000E141000058
:1030F000E1410000E1410000E1410000E141000048
:10310000E1410000E141000000F002F81AF039FA54
:103110000AA090E8000C82448344AAF10107DA4532
:1031200001D11AF02EFAAFF2090EBAE80F0013F02F
:10313000010F18BFFB1A43F00103184790A60100C6
:10314000C0A601000A4410F8014B14F00F0508BF97
:1031500010F8015B240908BF10F8014B6D1E05D063
:1031600010F8013B6D1E01F8013BF9D1641E03D03C
:10317000641E01F8015BFBD19142E4D3704700006B
:10318000103A24BF78C878C1FAD8520724BF30C893
:1031900030C144BF04680C60704700000023002465
:1031A00000250026103A28BF78C1FBD8520728BF57
:1031B00030C148BF0B6070471FB51AF0A0FA00F08D
:1031C00031F88DE80F001FBDF0B440464946524625
:1031D0005B460FB402A0013001B50648004700BFAE
:1031E00001BC86460FBC8046894692469B46F0BC91
:1031F00070470000093100008269034981614FF086
:1032000001001044704700000D32000001B41EB4EC
:1032100000B501F0E0FE01B40198864601BC01B0A2
:103220001EBD00001AF0AAB910B504460021012005
:1032300000F034F80021182000F030F800210B20B5
:1032400000F02CF80221192000F028F802210D20AE
:1032500000F024F802210E2000F020F802210F20B7
:1032600000F01CF80221C81F00F018F803211620F6
:1032700000F014F80321152000F010F8204600F0AB
:103280001FF8002010BD6D210180704700F028B8A4
:103290000A48704700F02CB8704770474907090E7C
:1032A000002806DA00F00F0000F1E02080F8141D7D
:1032B000704700F1E02080F80014704703F90043E4
:1032C00070B5304C054608202070A01CFFF7DBFFCE
:1032D0005920A08029462046BDE8704000F0C5BBBB
:1032E00010B500F0CCFB27490020891E087010BDE6
:1032F0002DE9F041234E0446B61E0D4630780127D5
:1033000038B1A4F160000B280AD8204600F024FF51
:103310002DE0602CF9D043F201000860BDE8F08197
:10332000A4F16C00032803D8204600F050FF1EE0F3
:10333000A4F170001F2803D8204600F041F916E0E0
:10334000A4F190000F2803D8204600F0EEF80EE01C
:10335000A4F1A0000F2803D8204600F079F806E079
:10336000A4F1B0000F2804D8204600F0E2F928604C
:1033700000E02F60602CD1D128680028CED13770B2
:10338000CCE700001A0000204FF0E0214FF400408D
:10339000C1F8800124490020087024494FF0607072
:1033A0000860704770B5204D04462878A0421CBFC5
:1033B000002C002803D01EA14C201AF0AEF828786B
:1033C000A04208BF70BD2C701E49184A00200CB3E3
:1033D0001D4DDFF878C0131F012C07D0022C0FD031
:1033E000BDE8704012A167201AF097B8086002206B
:1033F0000860CCF800504FF040701060186070BD4D
:10340000086003200860CCF800504FF40000106002
:10341000186070BD086008604FF06070106070BD8B
:1034200003A170201AF079B82000002008F50140AF
:103430007372635C68616C5F63636D5F6161722E60
:103440006300000000F500408801002014F50040F2
:1034500030B4A0380B2865D2DFE800F0060D161F47
:10346000273039404A515B00D1E90132087830BC3D
:10347000194603F06CB988888A6883B2088830BC22
:1034800080B2194603F073B9D1E9022308884C6869
:1034900080B2214630BC03F06BB9D1E90132088813
:1034A00030BC80B2194603F07EB988888A6883B23E
:1034B000088830BC80B2194603F08AB988888A68C7
:1034C00083B2088830BC80B2194603F0C8B90888B6
:1034D0004A6830BC80B2114603F00DBA088982B246
:1034E000888883B2088830BC80B2194603F00DBAD0
:1034F00008884A6830BC80B2114603F02CBA0889AB
:103500004C6882B20888CB68214630BC80B203F098
:1035100090BAD1E9022308884C6880B2214630BCB9
:1035200003F08DBB30BC012070479038092845D28C
:10353000DFE800F0050D13191F262F373D0088889E
:103540008A6883B20888194680B204F0B3B8088844
:103550004A6880B2114604F0F0B808884A6880B220
:10356000114604F0F8B808884A6880B2114604F0A1
:1035700000B9D1E901320888194680B204F00EB9C9
:10358000088982B2888883B20888194680B204F01C
:103590000AB908894B6882B20888194680B204F0DB
:1035A00023B908884A6880B2114604F02EB9888889
:1035B00082B20888114680B204F088B901207047B1
:1035C00030B470381B287DD2DFE800F00E141820CC
:1035D00024272E353A3F43474B535960697179840C
:1035E0008B93989C9FA6A90008784A6830BC114626
:1035F00007F025BC086830BC07F070BC0C790B7B69
:103600008A680868214630BC07F078BC086830BC7E
:1036100007F009BD30BC07F056B908884A6830BCCD
:1036200080B2114607F027BE08880A7930BC80B204
:10363000114607F0BEBE087830BC40B207F0C9BEE4
:10364000088830BC80B207F0DFBE086830BC07F0E5
:10365000EDBE086830BC01F011BC086830BC01F058
:103660003DBC088982B2D1E9000330BC194607F09D
:10367000FFBED1E9000230BC114607F04ABF0888FE
:103680004A6830BC80B2114609F011BAD1E9022370
:103690000C790888214630BC80B209F0D0BA08887D
:1036A0000B798A6830BC80B2194609F07BBCD1E93D
:1036B0000132088830BC80B2194609F0EBBCD1E970
:1036C000022300E032E008884C6880B2214630BC1A
:1036D00009F046BD08884A6830BC80B2114609F03E
:1036E0007ABD08880A7A0B7930BC80B2194607F097
:1036F00031BF088830BC80B207F02FBF086830BCEB
:1037000007F030BF30BC07F0BFB8D1E900038A68CA
:1037100030BC194607F08EBF30BC07F09EB8088851
:103720004A6830BC80B2114608F055B830BC012060
:103730007047B02805D0B12807D0B22809D00120A1
:103740007047088880B20AF035B9088880B20AF05C
:1037500050B9D1E901320888194680B20AF05AB945
:103760000A280ED2DFE800F005070509090B0B0552
:10377000050507F0D0B809F0FFBE01F060BA06F009
:103780002DBAFEA140F2E22019F0C7BE7FB5FF4975
:103790000646FF4AD1E90001CDE901014FF49860E6
:1037A000ADF80C000F230A21A2F128000AF02FFE29
:1037B0000024AFF253000AF04BFE641CE4B20A2C62
:1037C000F7D304200090F24801231A4603A9F030F1
:1037D0000AF031FA20B1E9A14FF4AD7019F09DFE65
:1037E000EC4C002075682070EB4920462844486066
:1037F000E01C20F00300A04204D0E8A14FF4977031
:1038000019F08BFEA8B20422214604F09CFC20B1E2
:10381000E2A14FF4A07019F080FE00211E2208469C
:1038200004F0A0F807F0CCFA02222421DF4801F0CE
:103830008DFBDE4801222C214C3001F087FBDB4957
:103840000B20B03901F006FA20B1CCA14FF4B770CB
:1038500019F063FE09F062FE02F045F901AB0022A7
:103860000821D3A007F06AF920B1C4A14FF4BA70BF
:1038700019F053FE304602F06EFC20B1BFA14FF4A8
:10388000BB7019F04AFE4FF45B71CC4819F011FE81
:10389000CA4801214171022181710621C1717FBD98
:1038A00010B5C64CA078092804D3B4A14FF4D77042
:1038B00019F033FE207800EB400004EB401010F8C4
:1038C0000C1F21F0FF010170417821F00701C91C94
:1038D00021F0180141700121E17010BD70B50D4655
:1038E000002114461980072828D2DFE800F02704B9
:1038F0000B191227200021462846BDE870401A46C1
:1039000009F05BBE21462846BDE870401A4606F025
:1039100041BE21462846BDE870401A4601F08CBFE2
:1039200021462846BDE870401A4603F003BD2146F3
:103930002846BDE870401A4600F0D1BB8FA140F286
:103940000D2019F0EAFD032070BD70B59B4CE078A6
:10395000002819D02078002500EB400004EB40102F
:10396000407B00F0070001190879401E087120789B
:10397000401CC0B22070092800D12570A078401CDE
:10398000A0700AF015FFE57070BD8C48C079002862
:1039900000D085E7704770B5884DA86860B1FFF723
:1039A000F4FF002860D06022A96819F02EFDFFF70F
:1039B000CCFF0020A860F0E76879002854D0FFF71A
:1039C0006FFF044679484C3001F0D0FA606020B9AE
:1039D0006AA14FF44B7019F0A0FD60680AF0AAF8D4
:1039E00068B1204606F0AEFC6078010703D520F0F0
:1039F0000700401C29E06D4861684C302BE06B48A3
:103A000061684C3001F0BBFA00F01EFB00282BD19E
:103A1000FFF746FF0446654801F0A8FA606020B948
:103A200056A140F24F3019F078FD60680AF084F832
:103A3000A0B1606800886080204609F0F3FD6078DE
:103A4000010706D520F00700801C6070FFF77DFF9E
:103A5000A3E75648616801F092FA9EE76168BDE805
:103A60007040524801F08BBA70BD10B54A4CC4E9A1
:103A70000201AFF2DD0000F0E2FB607010BD4649CC
:103A800000200870704730B505464FF080500C4656
:103A9000D0F8A41095B0491C05D1D0F8A810C9439E
:103AA0000904090C08D050F8A01F01F00101297089
:103AB00041682160806812E02B208DF8000009A980
:103AC00068460AF00FF820B12CA14FF4197019F0D4
:103AD00024FD012028700A982060BDF82C00A080E9
:103AE0002878002803D0607940F0C000607115B0DC
:103AF00030BDF0B54FF080540746D4F8800095B043
:103B00000D462B26401C0BD1D4F88400401C07D155
:103B1000D4F88800401C03D1D4F88C00401C0BD092
:103B2000D4F880003860D4F884007860D4F8880035
:103B3000B860D4F88C001EE08DF82C6069460BA8A4
:103B400009F0D0FF20B10DA140F28D2019F0E5FC65
:103B500001983860029878608DF82C6069460BA84F
:103B600009F0C0FF20B105A14FF4257019F0D5FC74
:103B70000198B8600298F86022E000007372635CFC
:103B8000686F73745F636F72652E630008D70100FE
:103B9000DC01002000220020240000207372635CFE
:103BA000686F73745F636F72652E6300A80B0020EB
:103BB0006E52463531383232000000008C0700204A
:103BC000D4F89000401C0BD1D4F89400401C07D1CD
:103BD000D4F89800401C03D1D4F89C00401C08D0B5
:103BE00054F8900F286060686860A068A860E0687A
:103BF00020E08DF8006009A9684609F073FF28B13C
:103C0000AFF2880140F2B22019F087FC0A982860D0
:103C10000B9868608DF8006009A9684609F062FF9A
:103C200028B1AFF2A80140F2B92019F076FC0A9849
:103C3000A8600B98E86015B0F0BD70B5F84C05466B
:103C4000A06828B1AFF2CC014FF4427019F065FCC6
:103C5000A56070BD10B50146F24801F090F9F04939
:103C60008879401CC0B28871012805D1EE4840789F
:103C7000BDE8104000F005BB10BD70B50446A1F5CD
:103C80007F4016460D46FF3805D1AFF2101140F2C5
:103C90007D3019F042FC012E07D0AFF22011BDE8B3
:103CA00070404FF4637019F038BC207820F00F009A
:103CB000801D20F0F0006030207000202072A5816F
:103CC0000120A07370BD70B515460C460646FFF77F
:103CD0005CFE90B1017821F00F01891D21F0F00107
:103CE0006031017046800121017221680161A18863
:103CF00081820573BDE8704027E63046BDE870401C
:103D0000132107F056BBC8494968884201D21020E8
:103D10007047032101700020704770B5C24C054602
:103D200094B02078002610B1082014B070BDBF4AAE
:103D30006260954201D21020F7E7686848B1092116
:103D4000D82804D3C31C23F00303834205D00846BC
:103D5000EBE74FF4C06068600DE0B549891A4FF099
:103D60008052D2F80C2101EB8221A1F50061814241
:103D700001D20421EBE700F053FF6178A0680CF05A
:103D800044FCE068401E07280BD830218DF8001055
:103D90008DF8020068460EF014F810B109A80CF076
:103DA000EFFD2846FFF7F2FC012020703046BCE70B
:103DB0002DE9F05FDFF870B204460F46DBF804002F
:103DC000814207D30CB1844204D3E01C20F00300ED
:103DD000A04202D01020BDE8F09F91484FF00008AB
:103DE000817899B14178824601EB410100EB4115A0
:103DF000B7F8009015F80C0F3B4600F00F000022BA
:103E00002946FFF76BFD060004D013E0A7F80080F9
:103E10000520E0E794B13988494501D90C260DE029
:103E200028783B4600F00F0022462946FFF756FD52
:103E3000060005D00C2E01D0A7F800803046CAE756
:103E40009AF801005446401CC0B28AF801000928C3
:103E500001D184F80180A078401EA070687800F03D
:103E60000701012910D0022908D003291CD0AFF284
:103E7000F42140F2294019F050FBDFE7C006DDD401
:103E80006868FFF7E7FED9E7664869684C3001F0DB
:103E900076F86079401CC0B260710128CED19BF8E1
:103EA000010000F0EEF9C9E7E079401C8AF807004C
:103EB000C4E7604A904208D35B4AB0F1005F5268A1
:103EC00001D3904201D3914201D21020704700F0FB
:103ED000F8BE584B10B5994208D3534BB1F1005F6F
:103EE0005B6801D3994201D39A4201D2102010BDE0
:103EF000022803D0102801D0092010BD00F006FFD1
:103F00000028FAD0052010BD4A4B10B598420BD3BB
:103F1000454BB0F1005F5B6801D3984204D39942EE
:103F200002D31AB19A4201D2102010BD00F00DFF49
:103F30000028FAD0072010BD10B504463A4894B0C6
:103F40004068844202D2102014B010BD0F208DF8BA
:103F5000000009A9684609F0C5FD0028F4D19DF8C4
:103F60002C002070BDF82E006080BDF83000A080CD
:103F70000020E9E751B12C4A5268914202D30B6804
:103F8000934201D2102070478A880AB101F008BE1E
:103F90000920704710B5274A94B091420ED3224AA7
:103FA0004FF000539942526801D3914206D3441E08
:103FB0001E2C25D8994203D3914201D21020C3E789
:103FC00001281BD108784FF0000410F0010F03D036
:103FD00003208DF8020001E08DF8024038208DF8B2
:103FE000000009A9684609F07DFD28B1AFF25441EF
:103FF00040F2272019F091FA2046A5E70720A3E711
:10400000A0F120021F2AF9D814B0BDE8104006F034
:1040100019BE054A526891420ED210207047000026
:104020008C070020A80B0020240000200022002084
:104030000000002000F00100A0F120021F2A01D89A
:1040400006F07ABE0720E9E7F0B595B03B208DF881
:104050002C0069460BA809F045FD28B1AFF2C44118
:104060004FF4C47019F059FA43F2040600246D4667
:104070002FE02F19B87DC10706D0400704D405EB07
:104080004400C08809F0F3FB32488079F8B1B87D6C
:1040900080071CD505EB44000022C088062109F0EA
:1040A00003FCA0B13C208DF82C0005EB44006946D0
:1040B000C088ADF82E000BA809F014FD06000CD046
:1040C000AFF2285140F29D1019F027FA05E0641C68
:1040D000E4B29DF80400A042CBD83046ABE52DE910
:1040E000F04105460C4600270078062190463E46E2
:1040F000B1EB101F05D0AFF25C514FF4E37019F033
:104100000CFA287A80B1012815D0AFF2705140F234
:10411000E71019F002FA00BFA8F800600CB1278080
:1041200066800020BDE8F081022709267CB1A889BD
:10413000A080A87B09E00327142644B16888A080EA
:104140002869E060A88A2082287B2072E4E7A8F82A
:104150000060E6E78C07002060380A2835D2DFE8E7
:1041600000F005080D10151B21242A2F0868FFF701
:10417000D4BDD1E900021146FFF71ABE0868FFF767
:10418000C2BDD1E900021146FFF793BED1E9013269
:1041900008781946FFF79DBED1E900038A681946E1
:1041A000FFF7B2BE0868FFF7C7BE08884A6880B24A
:1041B0001146FFF7DFBED1E900021146FFF7EABE64
:1041C000D1E900021146FFF724BF0120704701200A
:1041D000704700000E4A12680C498A420AD11847FB
:1041E0000B4A1268094B9A4204D101B500F0EAFE6D
:1041F00003BC8E460749096809580847064807491D
:10420000054A064B7047000000000000BEBAFECA17
:104210006400002004000020F0210020F021002094
:104220004FF0E0214FF00070C1F88001C1F880022A
:10423000394B402283F80024C1F80001704710B5C3
:1042400002460420354903E001EBC0031B7943B16A
:10425000401EC0B2F8D232A1432019F05EF9FF200F
:1042600010BD41F8302001EBC00100224A718A7173
:1042700001220A7110BD294A002102EBC000017120
:10428000704710B50446042803D325A1522019F025
:1042900044F9224800EBC4042079012803D020A16E
:1042A000532019F03AF96079A179401CC0B28142DB
:1042B00000D060714FF0E0214FF00070C1F80002B3
:1042C00010BD70B51448042590F80004134E400941
:1042D000194C02281BD012A1692019F01EF916E012
:1042E000217806EBC1000279012A08D1427983794D
:1042F0009A4204D04279827156F831008047207882
:10430000401CC0B22070042801D3002020706D1E14
:10431000EDB2E5D270BD000019E000E0240C0020F1
:104320007372635C736F635F7369676E616C6C69F2
:104330006E672E63000000003400002010B5EFF31C
:10434000108000F0010472B6D0484178491C4170D9
:104350004078012801D10AF053FA002C00D162B64E
:1043600010BD70B5C94CE07848B90125E570FFF77C
:10437000E5FF0AF04DFA20B100200AF020FA0020F3
:1043800070BD4FF08040A571C0F80453F7E770B5D9
:10439000EFF3108000F0010572B6BC4C607818B9DC
:1043A000BBA1912019F0B9F86078401E6070607868
:1043B00008B90AF029FA002D00D162B670BDB348E1
:1043C00010B5C17821B100218171C170FFF7DFFF05
:1043D000002010BD10B504460AF01AFAAB49C9789E
:1043E000084000D001202060002010BD2DE9F05FC2
:1043F0000026A64C08210422102320270125B046C0
:10440000E6714FF0020A0D282CD2DFE800F0070910
:104410000C0E101214161F2124262800657126E0A8
:1044200084F805A023E0627121E061711FE06371EF
:104430001DE067711BE0012619E0FFF77FFF00BF59
:104440000AF0E6F90028FBD0022610E0627100E0D5
:104450006171E5710BE06371FBE76771F9E740207B
:104460006071F6E78AA140F2651019F056F80AF07B
:10447000DCF948B10AF0E0F9B04205D130460AF063
:10448000DFF90028FAD032E04FF08047FD60C7F82E
:10449000048183490E60C7F804A3BD60C7F810818A
:1044A000DFF800B2DBF80010C94341F3001101F15D
:1044B0000109DBF8001041F01001CBF8001000E01A
:1044C00020BFD7F804010028FAD030460AF0B8F926
:1044D0000028FAD0B9F1000F05D1DBF8001021F067
:1044E0001001CBF80010C7F808A3C7F80481E079E1
:1044F00060B10AF08DF907460AF0DAF86FF0004172
:1045000017B1C4E9021001E0C4E902011EB184F848
:104510000480BDE8F09F2571BDE8F05F00F094B81D
:1045200010B504460AF07AF928B158490120C8703C
:104530004A78521C4A702046BDE8104056E72DE9E3
:10454000F0414FF08045D5F808010026012803D13D
:10455000C5F808610AF033F9D5F80401012801D142
:10456000C5F80461D5F800010127484C01280ED197
:10457000C5F80061A07918B100200AF020F9A671F1
:10458000207820B10AF044F908B12F61A770207992
:1045900030B3D5F81001012824D1C5F810616F613E
:1045A000E079B0B10AF034F980460AF081F8B8F148
:1045B000000F01D0E16800E0A168411A022902DA87
:1045C00011F1020F0EDCB8F1000F01D0E06000E045
:1045D000A060FFF7B3FE0AF01BF910B12F61A770BE
:1045E00000E02770D5F80C0101280ED1A07818B989
:1045F00027A1F12018F091FFC5F80C612A48006846
:10460000A6702670BDE8F041C1E6BDE8F08170B546
:104610001E4DE87808B90AF0F7F801208407A06178
:10462000A87850B1D4F80C0120B900200AF008F99C
:104630000028F7D10020C4F80C014FF0FF30C4F877
:1046400008031A48006870BD2DE9F0411927BC071E
:10465000C4F808734FF00008C4F80081C4F80C8156
:104660000AF0D6F8094E012510B12561B57000E0B9
:104670003570FFF763FEC4F804730949707920317F
:104680000860A561C4F810816561BEE738000020AC
:104690007372635C736F635F636C6F636B2E630035
:1046A0001805004010ED00E00C0100400803004038
:1046B00010B50D2000F06DF8C4B26FF0040000F0EA
:1046C00068F8C0B2844203D039A11B2018F025FF3E
:1046D0003C490120086010BD70B50D2000F043F882
:1046E000394C0020C4F800010125C4F804530D2002
:1046F00000F044F825604FF0E0216014C1F800019B
:1047000070BD10B50D2000F02EF82F48012141603A
:104710000021C0F800112D480068BDE810400D20B0
:1047200000F02CB82849D1F80001012803D020A1BD
:104730005E2018F0F2BE2348001D00680022C0B2BF
:10474000C1F800212149096809F0C3BC10B51E4811
:10475000D0F800110029FBD0FFF7E4FFBDE81040BE
:104760000D2000F00BB800F01F020121914040091C
:10477000800000F1E020C0F88011704700F01F02B7
:10478000012191404009800000F1E020C0F8801232
:104790007047002806DA00F00F0000F1E02090F8E2
:1047A000140D03E000F1E02090F800044009704788
:1047B0007372635C736F635F68616C5F726E672EA8
:1047C0006300000004D5004000D0004000D100404C
:1047D00030B44FF0E0204FF400644FF0010C0021A2
:1047E000C0F88041E510C0F880516303C0F8803103
:1047F000E34A82F80014D21E82F80014E14A82F8DB
:104800000014E14AC2F804C0C2F808C0C2F840115E
:10481000C2F84411C2F84811DC490968C0F8804266
:10482000C0F88052C0F88032C0F80041C0F80031B2
:10483000C2F800C030BC704770B401204FF0E023D4
:10484000C6024FF0000CC3F880610402C3F8804137
:104850000506C3F88051CC4A50609060CC4801688E
:104860000029FCD1C2F840C1C2F844C1C2F848C115
:10487000C6480068C3F88062C3F88042C3F880521B
:1048800070BC70474FF0E0204FF40061C0F8801218
:10489000C910C0F880127047002804BFBD48704797
:1048A000012804BFBC487047022804BFB7487047BE
:1048B00010B59120B9A118F030FE002010BDB2490A
:1048C000002238B1012825D002282FD0B3A1BF2063
:1048D00018F023BE4FF48030C1F80803C1F8480334
:1048E000B54B1A60C1F84021B4490968B44BC10303
:1048F0001960B449C1F808034FF0E0230012C3F86F
:104900008001B1480260C1F84021C1F80022AF48DF
:10491000027070474FF40030C1F80803C1F8480333
:10492000AB480260C1F844219B480AE04FF4802064
:10493000C1F80803C1F84803A6480260C1F848213D
:10494000924800687047F0B4DFF83CC204260025A6
:10495000012440B101283FD0022857D0F0BC8FA1DC
:10496000F42018F0DABD881E20F07F414FF480302B
:10497000CCF80803CCF84051CCF84403CCF84015EF
:10498000012B14BF00210121904B59708D494C60BF
:10499000CC60DFF844C2CCF80050904D4FF0020CD0
:1049A000C5F800C0DFF838C2CCF80060DFF818C2E4
:1049B0003D32CCF80020C1F800424FF0E02C8A15BF
:1049C000CCF88022C1F80403CCF800210804854902
:1049D00008601C70F0BC704783484FF40032012B14
:1049E0000AD100BFC0F84051CCF80423CCF84423CE
:1049F000C0F84015F0BC7047CCF80823C0F840510F
:104A0000CCF84423C0F84015F0BC704777484FF409
:104A10008022012BF0D1E5E75D480068704770B552
:104A2000594CD4F84001002501280AD1D4F80803D4
:104A300010F4803F05D04FF48030C4F80803C4F868
:104A40004051D4F8440101280DD1D4F8080310F4E2
:104A5000003F08D04FF40030C4F80803C4F84451B4
:104A600001200AF0CCFFD4F8480101280DD1D4F878
:104A7000080310F4802F08D04FF48020C4F80803F6
:104A8000C4F8485102200AF0BAFF4048006870BDDF
:104A90004E490878E0B14A4A4FF000401060494A58
:104AA000C00BC2F8080303124FF0E02C0020CCF832
:104AB0008031454B1860C2F84001C2F8000208700E
:104AC0004A78002A08BF7047487000200AF097BF54
:104AD00003200AF094BF4FF0E0214FF08070C1F83E
:104AE000000270474FF0E0214FF08070C1F8800263
:104AF00070474FF0E0214FF40010C1F800027047FA
:104B00004FF0E0214FF40010C1F8800270472D48AB
:104B100001214160C1604FF0E0218015C1F88002A1
:104B20007047410A43F609525143C0F3080010FB95
:104B300002F000F5807001EB50207047430B48F203
:104B4000376C03FB0CF31B0C4FEA432CC1F800C07D
:104B5000DFF89CC003FB0C0326484CF2F72C5843AB
:104B6000400D10FB0CFC0CEB432303F580735B1230
:104B700013700A681044086070470BF045B80000D5
:104B80000BE000E018E000E000B0004048B1004059
:104B900004B500404081004044B100407372635C42
:104BA00072656D5F68616C5F6576656E745F746970
:104BB0006D65722E6300000040B5004040B10040BA
:104BC00008F501400080004040850040480000207A
:104BD00044B5004048B500400485004008850040C9
:104BE0001085004004F5014004B0004008B00040CA
:104BF000F7C2FFFF6F0C010010B50AF0EAFF10BD0D
:104C0000002005490860012001218140034A430931
:104C100042F8231000BF7047FC1F004080E200E014
:104C200010B50DF0E9F909F094F9FEF7ADFB0FF0BE
:104C30004BFB0EF0A9F8BDE810400EF02BB870B594
:104C40000C46054603F0E2F921462846BDE87040CF
:104C50000FF06BB870B50D46040011D085B121017D
:104C6000284618F004FC10224F49284618F088FB0B
:104C70004D4801210838018044804560002070BD06
:104C8000012070BD70B5484E00240546083E10E076
:104C90007068AA7B00EB0410817B914208D1C17B34
:104CA000EA7B914204D10C22294618F03DFB30B139
:104CB000641C30888442EBDB4FF0FF3070BD20462F
:104CC00070BD70B50D46060009D045B1364C083CA4
:104CD00020886188401C884203D9042070BD1020C0
:104CE00070BD3046FFF7CEFF002801DB401C0AE014
:104CF00021886068102200EB0110314618F040FB5B
:104D00002088401C20802870002070BD70B514469B
:104D10000D0018D0BCB10021A170022802D01028CB
:104D200011D105E0288870B10121A170108008E040
:104D30002846FFF7A7FF002805DB401CA070A889C4
:104D40002080002070BD012070BD70B5054614465E
:104D50000E000BD000203070A878012808D005D9AB
:104D60001149A1F108010A8890420AD9012070BDB9
:104D700024B1287820702888000A5070022008701A
:104D80000FE064B14968102201EB00112046103990
:104D900018F0F6FA287820732888000A607310202B
:104DA0003070002070BD000054000020654988422A
:104DB00006D3B0F1005F05D363490968884201D288
:104DC000102070470146012005F074B830B593B04B
:104DD000044600200D460090142101A818F069FB3C
:104DE0001C2108A818F065FB9DF80000CDF808D03C
:104DF00020F00F00401C20F0F00010308DF8000073
:104E00009DF8010006AA20F0FF008DF801009DF832
:104E1000200001A940F002008DF8200001208DF84B
:104E2000460042F60420ADF8440011A80190208805
:104E3000ADF83C006088ADF83E00A088ADF84000B9
:104E4000E088ADF842009DF8020020F00600801CCA
:104E500020F001008DF802000820ADF80C00ADF83C
:104E600010000FA8059008A800F02AFF002803D121
:104E7000BDF818002880002013B030BD3EB50446B0
:104E80000820ADF800002F48844206D3B4F1005F3B
:104E900005D32D480068844201D210203EBD214632
:104EA000012005F007F80028F8D12088ADF80400AB
:104EB0006088ADF80600A088ADF80800E088ADF87D
:104EC0000A0005F038FE01AB6A46002101F03CFB08
:104ED000BDF800100829E1D003203EBD1FB50446EF
:104EE000002002900820ADF808001648CDF80CD03C
:104EF000844206D3B4F1005F06D3134800688442AD
:104F000002D2102004B010BD05F015FE014602AA21
:104F10004FF6FF7001F0A3FC0028F3D1BDF8081094
:104F2000082901D00320EDE7BDF800102180BDF86D
:104F300002106180BDF80410A180BDF80610E18068
:104F4000E0E7000000F001002800002010B5031D7C
:104F500003600020521E04E05C181C60401C2346C5
:104F6000C0B29042F8DB0020186010BD024600205D
:104F70001168002902D0084609681160704702686C
:104F80000A6001607047000010B501462022094800
:104F900018F0F6F907490020C877084610BD064901
:104FA000012008600548064A0168914201D10021AC
:104FB00001607047B40E002014050040640000201A
:104FC000BEBAFECA0C4908784A78401CC0B290426A
:104FD00000D00870704708484FF0E02220BF40BF63
:104FE00020BF417803784370D2F8003213B90378B8
:104FF0008B42F3D0002070476B0000207047704751
:1050000010FFFFFFDBE5B15100F00100FFFFFFFFE4
:1050100040F2090CC2F2000C6047000018B1817820
:1050200001293CD101E010207047018842F60213AB
:10503000C81A4FF48072994233D01CDC42F6010347
:10504000A1EB030099422CD00CDCF9B1B1F5C05FA3
:1050500027D06FF4C050081823D0A0F57060FF3837
:105060001DD11EE001281CD002281AD0FF2818D01C
:10507000904214D115E0904213D008DC012810D0E2
:1050800002280ED0FE280CD0FF2808D109E0A0F598
:105090008070013805D0012803D0022801D00020FB
:1050A00070470F2070470B2826D008DC1BD2DFE8A2
:1050B00000F01C2025251A25292325271E0011284C
:1050C0001CD008DC0C2817D00D281DD00F2815D0B7
:1050D000102808D110E0822809D0842810D0852813
:1050E00010D0872812D00320704700207047052079
:1050F000704743F203007047072070470F20704746
:1051000004207047062070470C2070474FF4505021
:10511000704730B551B1A1F201158123CCB2112DE8
:105120001CD2012805D0022808D00AE00020107007
:105130001DE0A1F5807003381BD002E0B1F5817F3E
:1051400017D0112D15D2DFE805F014111114111428
:10515000141114141411111111141100A1F5C070BF
:105160001F2803D9A1F2FD11022902D814700020D2
:1051700030BD1370072030BD06280CD2DFE800F0E8
:105180000305030B07090020704711207047072013
:1051900070470820704703207047007810F00F0216
:1051A00004D0012A05D0022A0AD10EE0000907D155
:1051B00008E00009012805D0022803D0032801D007
:1051C000072070470870002070470620704738B1EC
:1051D000012809D002280FD0032815D007207047D6
:1051E000087820F0FF0016E0087820F00F00401C3F
:1051F00020F0F00010300EE0087820F00F00401C86
:1052000020F0F000203006E0087820F00F00401C6D
:1052100020F0F000303008700020704738B50C46A0
:10522000050041D06946FFF7B8FF002819D19DF865
:105230000010208861F38B2020806946681CFFF7EE
:10524000ACFF00280DD19DF80010208861F30D30CF
:105250002080A978C1F34101012903D0022904D09B
:10526000072038BD20F0200001E040F02000208021
:1052700080B210F4406F04D0A978C90861F38E3071
:10528000208080B210F4405F07D0A978090961F34B
:10529000CF30208010F4405F02D12088400403D535
:1052A000208840F040002080002038BD70B50446C2
:1052B0000020088015466068FFF7B0FF002816D16F
:1052C0002089A189884211D860688078C0070AD0F7
:1052D000B1F5007F0AD840F20120B1FBF0F200FBEB
:1052E0001210288007E0B1F5FF7F01D90C2070BDB6
:1052F00001F201212980002070BD10B504781378D7
:1053000064F3000313700478640864F341031370BA
:105310000478A40864F3820313700478E40864F347
:10532000C30313700478240964F30413137004781E
:10533000640964F3451313700078800960F38613E1
:10534000137031B10878C10701D1800701D5012060
:1053500000E0002060F3C713137010BD028812F440
:10536000406F02D0C2F3812306E012F4405F02D006
:10537000C2F3013300E001230A8863F38B220A8021
:10538000008810F4405F02D0C0F3013006E010F452
:10539000406F02D0C0F3812000E0012060F30D32A5
:1053A0000A8070472DE9F04792B00D00804613D077
:1053B000B8F1000F14D01221284618F058F803AAAB
:1053C000FF21012003F04BF80024264637464FF416
:1053D00020596FF4205A6DE0102012B0BDE8F0871C
:1053E0000720FAE79DF8160001280AD1BDF814003D
:1053F00048450BD010EB0A000AD001280CD0022837
:105400000CD0042C0ED0052C0FD10DE0012400E0AF
:105410000224BDF8126008E0032406E00424BDF86D
:10542000127002E0052400E00624BDF81210414588
:1054300040D12C7486B34FF005090DF134080EAA43
:10544000CDF80090CDE9012810230022FF2130463D
:1054500003F0A1F8F0B9BDF834002A46C0B20EA995
:10546000FFF754FCB0B9AE81B7B108AECDF80090EB
:10547000CDE9016813230022FF21384603F08BF8A1
:1054800040B9BDF83400F11CC01EC0B22A1DFFF7A0
:105490003DFC10B10320A0E70AE0BDF82100E8813F
:1054A000062C05D19DF81600A872BDF814002881BD
:1054B000002092E703A802F0DAFF002892D0FFF75D
:1054C000F2FD8AE7002805D0FE4A012903D002290F
:1054D00003D003207047518800E09188814201D1B8
:1054E000002070470720704770B50C4605461C2108
:1054F000204617F0BCFF0020208055B1012D06D0BA
:10550000BDE87040F0A140F26F2018F006B8062008
:1055100000E00520A07070BD70B592B00646012075
:105520008DF814008DF808008DF8153001F1080091
:10553000CDE9030248881546ADF81800FEF725FAB4
:10554000040018D065801720ADF80400009496F888
:1055500021100DF12A0301AA02A80EF000FA064656
:105560006078000701D5FEF7F0F956B13046FFF735
:1055700003FE12B070BD1321284605F01AFF032068
:10558000F7E708A80090BDF804300422012128465E
:1055900007F0ABFEEDE770B506468AB000200D4679
:1055A000059005240490069003A900940790CDE986
:1055B0000101024610232946304602F0ECFF68B98B
:1055C00004A9009108A8CDE90140BDF80C300022E3
:1055D0002946304602F0F0FD002801D0FFF763FDB8
:1055E0000AB070BD0EF0AFBB2DE9FC4705460027A1
:1055F00000780C46B846B9460C286FD2DFE800F0B8
:10560000FF060B360A6F6F95B5F7C8D768680A387A
:10561000FEF720FBF8E0A888002280B28146042132
:1056200008F04CFB064624B1A7A140F2DD2017F09C
:1056300074FF26B9A4A140F2DE2017F06EFF4946A0
:1056400006F108000DF015FEFEF79FF9040008D0E2
:10565000607840F008006070A4F80290FEF775F9D9
:10566000D3E01321484605F0A4FEE2E024B996A158
:105670004FF43D7017F051FF60880022042108F0BC
:105680001DFB060004D190A140F2F72017F045FF62
:10569000A6F80090002029791DE000BF05EBC002AC
:1056A000128992B2130707D5D30605D505EBC100C1
:1056B00030F8020C308006E052040AD5307105EB58
:1056C000C000C08870806078022740F008006070D9
:1056D0009AE0401CC0B28142E0D895E08FE0E888B3
:1056E000ADF8000024B978A140F2073017F015FF9B
:1056F0002878062814D1BDF80000000410D5608871
:105700000022042108F0DAFA060004D16EA140F26A
:10571000113017F002FF86F80490A888708035E0F9
:10572000607840F0080060706EE024B966A140F235
:10573000233017F0F2FE60880022042108F0BEFA40
:10574000060004D160A140F2263017F0E6FE06F113
:1057500008000EF04CFB90F0010F02D1E888000425
:1057600052D560880227F080DAE724B956A140F2CA
:105770003F3017F0D2FE60880022042108F09EFA24
:1057800020B951A140F2423017F0C7FE0227C7E707
:1057900024B94DA140F24B3017F0BFFE02276188BB
:1057A00001222046FEF769FA4FF00108B8E7A88900
:1057B000002280B28146042108F080FA064624B116
:1057C00041A140F25D3017F0A8FE26B93EA140F29B
:1057D0005E3017F0A2FE686800902889ADF80400DA
:1057E000012269464846FEF76EFA0DE0FFE7002CFD
:1057F00096D135A14FF45A7017F08FFE90E732A181
:1058000040F26D3017F089FE9CB16078000710D52A
:10581000B8F1000F0DD12078582220F00F00001DA4
:1058200020F0F00080302070294604F1080017F0C5
:10583000ECFD3846BDE8FC872DE9FE4F05460C46D9
:10584000007A0A31029104F10C010191904600277F
:105850001631821E3E464FF0020B4FF0010A0091B6
:10586000082A7DD2DFE802F0F5047C43438CCFF4B4
:1058700068880022042108F021FA5FEA000904D1B7
:1058800011A140F2863017F048FEB9F8000010B1BF
:105890005227072601E151271E26002C6FD0688869
:1058A000A08084F806A099F80400029905EBC000D6
:1058B000C089FFF777FD00287DD199F8040005EB3A
:1058C000C0000BE0440C00207372635C6761747469
:1058D000735F636F72652E6300000000C0892081D2
:1058E00099F8040005EBC000408AA083F4E0B5F805
:1058F0001290062821D1E88900041ED5512709F10C
:10590000220086B2002CC9D0A8890199FFF74AFD70
:10591000002876D16888A08084F806B0A889208104
:1059200084F80AA0288AE083A4F820904A4669698E
:10593000DDF8000017F024FDCEE0502709F120002B
:1059400086B2002CAAD0A8890299FFF72BFD002867
:1059500057D16888A080A889E080287A062800E0CE
:10596000B4E00AD002202072288AA083A4F81E90F6
:105970004A4604F120006969DCE70120F3E790E082
:1059800068880022042108F099F9B5F812A05FEAAE
:10599000000905D1AFF2D00140F2EE3017F0BDFDA5
:1059A00009F108000EF023FA90F0010F02D1E88906
:1059B000000425D500E024E00AF12200512786B238
:1059C000002C77D06888A080A8890199FFF7EAFCAD
:1059D000002816D184F806B0A88920810420A0727E
:1059E000288AE083A4F820A052466969009817F03D
:1059F000C7FC002089F80400A989A9F802106BE00F
:105A00000320BDE8FE8F688804F0AEF982466888FE
:105A10000022042108F052F98146BAF1000F05D1A5
:105A2000AFF25C1140F21A4017F077FDB9F1000FA8
:105A300005D1AFF26C1140F21B4017F06EFDB9F8C2
:105A40000600A0F57F41FF3904D05127222603E04C
:105A50001CE032E0502720261CB36888A080502F1D
:105A600007D084F806B0287B04F10801FFF73CFD5D
:105A700032E0287BA11DFFF737FD6A8800234946E5
:105A80005046FFF749FD0028BBD125E0FE49A88913
:105A9000C988814206D15427062614B16888A0809F
:105AA0001AE007E05327082624B16888A080A88957
:105AB000E08011E0A8F8006013E055270726002CCD
:105AC000F8D0A889A0800020A07105E0AFF20821DD
:105AD0004FF48D6017F021FDA8F800600CB127800D
:105AE000668000208DE7E84900200870704730B5D7
:105AF00085B00C4601F079F90546FF2805D1AFF2D3
:105B0000382140F2834017F008FD002020802071EA
:105B100060804FF6FF70E080294604F108000DF028
:105B20009CFB6A462946012002F099FC16E000BF62
:105B3000BDF80400000711D5BDF806002946FFF79F
:105B40002AFDBDF80400FF2340F01000ADF804006A
:105B5000BDF806002946019A02F0B2FD684602F03F
:105B600086FC0028E4D005B030BD0A46014602F1AB
:105B700008000DF084BB70B505460022042108F032
:105B80009DF8040005D1AFF2C02140F2A54017F006
:105B9000C4FC294604F10800BDE870400DF069BB63
:105BA000F0B591B00C46074604F0DEF8050005D0CC
:105BB0002878222805D2082011B0F0BD43F2020057
:105BC000FAE700220421384608F078F806460CB1BE
:105BD000A08870B101208DF8040002208DF810001B
:105BE00000208DF8110034B1A088ADF818002068AD
:105BF00003E00920E0E7ADF81800059006F1080081
:105C0000CDE90207FDF7C1FE040017D06780172019
:105C1000ADF81C00009495F821100DF12A0307AA95
:105C200001A80DF09CFE05466078000701D5FDF740
:105C30008CFE4DB12846FFF79FFABDE71321384689
:105C400005F0B7FB0320B7E708A80090BDF81C30AB
:105C500004220121384607F048FB4FF6FF71F1801E
:105C6000AAE72DE9FF5F83460E9E98469146778806
:105C70008A46384604F078F8054600220421384662
:105C800008F01CF804462DB9AFF2C43140F20C50B4
:105C900017F043FC2CB9AFF2D03140F20D5017F0A1
:105CA0003CFC0834CDE90274CDE9008695F821105A
:105CB0004B46524658460DF00FFB04B0BDE8F09F2E
:105CC0002DE9F04F9BB00D464FF000096E49ADF83D
:105CD0001490ADF81890ADF81C90A1F80490ADF8B0
:105CE0000C90ADF810900446ADF82490ADF82090DB
:105CF00008781646CB46012809D0022807D0032889
:105D000005D0042803D008201BB0BDE8F08F5F4801
:105D100084425FD35E4F4FF000529442396801D302
:105D20008C4257D38046454554D39246554501D3BE
:105D30008D424FD3606878B140454BD3504501D375
:105D4000884247D360892189884202D8B1F5007F13
:105D500001D90C20D8E781460CAA04A92846FFF7F0
:105D6000A5FA0028D0D168688078C0F341000228E5
:105D700009D1BDF8100010F4405F04D0286910B1BB
:105D80003968884226D303A92069FFF747FA00281B
:105D9000BAD1206948B160788007BDF80C0000F4E2
:105DA000405001D5F0B300E0E0BBBDF80C00810627
:105DB00012D510F4405F606804D068B13968884239
:105DC00008D300E040B1404504D3504504D33968BE
:105DD000884201D2102097E708A96069FFF71EFAF0
:105DE000002891D1606940B1BDF82000C0F3812145
:105DF000012937D110F4405F34D009A9A069FFF719
:105E00000DFA002880D1BDF8200080062AD4BDF804
:105E10002400810626D4A16941B1C0F38121012962
:105E200020D100E01EE010F4405F1BD0E06818B104
:105E30000078B8B11C2815D20DAA611C2046FFF7C6
:105E40005CFA01278DF84A7042F60300DA46ADF895
:105E500048004FF4806B0DF1370215A92868FEF752
:105E600074FF08B107204FE79DF8540014A9C01C27
:105E7000CDF800A0CDE901A100F0FF08002308F251
:105E80000122594612A805E0440C002000F0010050
:105E90002800002002F02DFA30BBBDF850000A9017
:105EA000FD492A8928690092CDE901016B89BDF875
:105EB00030202868049902F01CFA01007ED1DFF836
:105EC000D8B35546ABF1040B0521BBF80400ADF87F
:105ED00035000DA88DE8230043460022FF21BDF8C0
:105EE000500002F069F910B1FFF7DDF80CE79DF8FA
:105EF00034004FF0020A01064FF48060804622D53C
:105F000001468DF84A704FF42450ADF84800ADF8C2
:105F10004C5062789DF84C00002362F300008DF82D
:105F20004C006278CDF800A0520862F341008DF871
:105F30004C0013AACDE9012540F2032212A802F079
:105F4000D8F901003AD1606840B3206960B903A96B
:105F500004A8FFF703FA6078800705D4BDF80C00A9
:105F600020F44050ADF80C008DF84A7042F6011054
:105F7000ADF84800208940F20121B0FBF1F201FBAD
:105F80001202606807ABCDF80090CDE90103002351
:105F900012A8039902F0ADF901000FD12078C106D3
:105FA00001D480062CD5ADF82C50606968B908A9D9
:105FB00004A8FFF7D3F9BDF8200000E077E020F453
:105FC000406000F58060ADF82000BDF8200006A913
:105FD00040F0C800ADF820008DF84A7042F602107B
:105FE000ADF848000BAACDF800A0CDE901210023AF
:105FF00040F2032212A8089902F07BF9010056D161
:106000002078C0072AD0ADF82C50A06958B909A94A
:1060100004A8FFF7A3F9BDF8240020F4406000F5C0
:106020008060ADF82400BDF824008DF84A7040F07F
:106030004000ADF8240042F60310ADF8480005A971
:106040000BAACDF800A0CDE90121002340F20322E4
:1060500012A8099902F04DF9010028D1E06850B367
:106060008DF84A7042F60410ADF84800E0684146E9
:10607000002302788DF8642040788DF86500E06890
:1060800007224088ADF86600E06800798DF8680066
:10609000E068C088ADF8690019A8CDE90020029534
:1060A0004FF4027212A802F024F9010003D00A98FA
:1060B00000F09DFE28E603218BF800105EB1BBF8CE
:1060C00004003080BDF81C007080BDF81800B0805E
:1060D000BDF81400F080002016E670B501258AB0E6
:1060E00016460B46012802D0022814D104E08DF890
:1060F0000E504FF4205003E08DF80E5042F6010090
:10610000ADF80C0053B104AA08A918464FF48064F6
:10611000FEF71BFE20B107200AB070BD1020FBE780
:1061200004A99DF820205C48CDE90021801E029042
:106130000023214603A802F2012202F0DAF810B18E
:10614000FEF7B1FFE8E75448001F0EB141883180E7
:1061500005700020E0E770B594B0044601268DF884
:106160003E6041F60100ADF83C0012AA0FA930468E
:10617000FFF7B3FF00284AD12078474CC0074FF003
:106180000005A4F1040444D01C2102A817F091F9E1
:106190009DF808008DF83E6040F020008DF8080062
:1061A00042F60520ADF83C000E959DF83A00119599
:1061B00020F00600801C8DF83A009DF838006A46F1
:1061C00020F0FF008DF838009DF8390009A920F073
:1061D000FF008DF839000420ADF82C00ADF8300038
:1061E0000EA80A9011A80D900FA80990ADF82E5096
:1061F00002A8FFF765FD002809D1BDF80000E08086
:10620000BDF804002081401C60812570002014B07E
:1062100070BDE5802581BDF84800F4E72DE9F74F12
:106220008B461D490026091F9EB00A78012A04D01A
:10623000022A02D0082021B067E54A88824201D0B4
:106240000620F8E789465A4501D10720F3E70121E6
:106250008DF866104FF0000842F6020AADF84410BF
:10626000ADF864A008F580624FF6FF710F92ADF8AB
:106270004E10FF208DF86A801AAA8DF84C00ADF8F8
:106280004610ADF868801292CDF8508011A802F047
:1062900015F90024254601E0480C002027460AAAEB
:1062A000052111A802F00DF978B1822855D174B3F7
:1062B0006DB3ADF85C409DF84200ADF85E508DF8CE
:1062C0000C8017AC01285CD063E09DF82E00FFB174
:1062D000012851D1BDF82C1051451BD116AA06A991
:1062E00005208DE80700BDF82A0010230022FF21B9
:1062F00002F051F988BBBDF85800042801D00628E7
:1063000045D1BDF81810594536D10F2093E736E036
:10631000012831D1BDF82C00B0F5205F03D042F642
:106320000101884228D1B9F80210BDF82A00814243
:1063300001D1012700E0002704B17DB158451BD1F0
:1063400016AB06AA05218DE80E0004461023002294
:10635000FF2102F020F900B902E02DE035460BE004
:10636000BDF85800022801D0102810D1C0B210AAE0
:1063700006A9FEF7CBFC50B9BDF82A608FE70520CF
:1063800059E703A910A8221DFEF7DFFC08B103207E
:1063900051E79DF80C000023001DC2B220988DF833
:1063A0000C200092CDE9014019A80F9901F0A1FF3E
:1063B00010B9022289F80020FEF775FE3BE710B500
:1063C0000B46401E86B084B203AA00211846FEF791
:1063D00094FF04AA052103A88DE8070001230022E9
:1063E000FF21204601F0E8FE0446BDF81000012818
:1063F00005D0AFF62C314FF4DA6017F08EF8204656
:10640000FEF751FE06B010BDF0B587B00E4604464B
:10641000FE4F3878032804D0042802D0082007B0A3
:10642000F0BD04AA03A92046FEF740FF0500F6D1FF
:1064300060688078C0F3410002280CD1BDF80C00E0
:1064400010F4405F07D0206928B1F14909688842FB
:1064500001D21020E3E7208905AA21698DE8070011
:106460006389BDF810202068039901F042FF10B144
:10647000FEF719FED3E716B1BDF8140030800420F2
:1064800038702846CBE738B50C00054609D0002304
:106490006A46FF2102F0EBF828B100BFFEF703FEC9
:1064A00038BD102038BD69462046FEF7B7FE0028EB
:1064B000F8D1A078FF2100F001032846009A02F0ED
:1064C000FFF8EBE71FB50C0009D06B4601AAFF21CE
:1064D00002F0CDF828B1FEF7E6FD04B010BD1020A3
:1064E000FBE700202080A070BDF8040002A9C0F3E3
:1064F0008120FEF76CFE50B99DF808002070BDF8B1
:10650000040002A9C0F30130FEF761FE08B10320C8
:10651000E3E79DF808006070BDF80410A078CA0B8E
:1065200062F304108A0B62F3C300A070890601D5E0
:10653000022100E0012161F342009DF8001061F3A7
:106540000000A0700020C8E77FB5144603AA052507
:106550000292CDE900350A462388FF2101F02CFE86
:10656000BDF80C102180FEF79EFD04B070BD2DE932
:10657000F0439BB04FF000070C008146ADF80C7063
:106580003D461AD0E06828B1A068B0B10188ADF8E6
:106590000C100780484603F0E7FB90B100782228F2
:1065A00070D3484600F021FC804600220421484672
:1065B00007F084FB06000DD106E010201BB0BDE8FB
:1065C000F08343F20200F9E7AFF6045140F6E10030
:1065D00016F0A3FFA078012803D0022801D00720DD
:1065E000ECE7208838B1401E80B204AA414601F091
:1065F00036FFA0BB3BE043F20300DFE7BDF8161017
:10660000228891420DD29DF81A004FF00005012812
:106610002FD1BDF81800A0F52051033929D101254B
:1066200027E002D17DB36D1C02E001D9022D02D01A
:10663000032D1ED322E09DF81A10012919D1BDF8AF
:10664000181042F602028B1A91421FD008DCB1F5F5
:10665000205F1BD06FF42050C1420AD116E026E023
:10666000012B13D0B3F5807F03D1032506E04FF44F
:10667000505804A801F0FBFE0028BFD0822803D0A8
:10668000A8B905E030E001E0022D10D1404695E7C1
:10669000E06898B1052203A9CDE900020291A28821
:1066A0002088BDF80C30FF2101F086FD10B1FEF707
:1066B000FAFC83E7A168BDF80C000880BDF814005F
:1066C000C00602D543F2014078E7089818B1BDF83A
:1066D0001C00022801D0032070E70898A1780078F8
:1066E000012903D080070FD4082067E7C007FBD03B
:1066F00000220721484607F0D7F810B107250220ED
:1067000004E043F2040059E7022503208DF82C0031
:106710002088ADF8380008361720CDE90C69ADF8AF
:1067200024000DF14E0309AA05210BA800970DF0D6
:1067300016F910B1FEF720FD40E711A80090BDF852
:10674000243004222946484606F0CFFD36E770B5CE
:10675000064615460C460846FEF760FC002805D1A3
:106760002A4621463046BDE87040B6E470BD55E586
:1067700070B51E4614460D0013D094B1616881B106
:106780000121FEF79FFE00280CD12068FEF746FC91
:10679000002807D1324621462846BDE87040FFF761
:1067A0008FBA102070BD70B515460C000ED00221B6
:1067B000FEF788FE00280AD12068FEF72FFC00288B
:1067C00005D129462046BDE870401DE6102070BD69
:1067D000F8B506460E480D46144601688A4235D380
:1067E000606838B10B4A904230D3B0F1005F01D3FA
:1067F00088422BD3A6F57F40FF3803D0304603F004
:10680000B3FA90B1304600F0F0FA05E0440C0020F5
:106810002800002000F001000646284600F0A0FAFB
:10682000002804D1606818B112E043F20200F8BDFC
:1068300000236A463146284601F019FF10B1FEF7E1
:1068400032FCF8BDBDF80000800601D41020F8BD70
:106850006188224628466368FFF776FEF8BD2DE979
:10686000F047FE4E074686B0306814468A4682429C
:1068700003D2102006B0BDE8F087384600F0B5FA24
:106880004FF6FF7905464F4501D0FF2D07D0002375
:1068900004AA2946504601F0EAFE48BB02E043F252
:1068A0000200E7E7BDF81000C00602D543F2014040
:1068B000E0E7052703A94FF000080097CDE9018123
:1068C00062884B462946504601F065FE80B96168F2
:1068D0003268914209D3CDE90071CDF80880238850
:1068E00062882946504601F056FEBDF80C10218002
:1068F000FEF7D9FBBEE739B1D94B0A881B899A420A
:1069000002D843F20300704731E610B586B0D44C8C
:106910000423ADF81430E3883BB124898C4201D2C2
:10692000914204D943F203006CE506206AE5ADF814
:106930001010002100910191ADF8003002218DF876
:10694000021005A9029104A90391ADF8122069462D
:10695000FFF70DFE56E52DE9FF4780464FF0810019
:106960000C008DF80C0019D0404603F0FDF907002B
:1069700017D0387822285AD3404600F036FA81469C
:1069800000220121404606F08FFF68B10022042159
:10699000404607F093F905000DD107E0102004B040
:1069A00069E743F20200FAE71120F8E7AD4940F643
:1069B000842016F0B2FD05F108000CF075FC0646C7
:1069C0002078012803D0022820D00720E7E7A188FB
:1069D00003AAFEF79EFB0028E1D1B00727D59DF85A
:1069E0000C00E0B9A079C00719D0E06800220521A9
:1069F0008DE80700638922896888494601F0DCFB3D
:106A00008DF80C0058B1FEF74EFBC8E7A18803AA29
:106A1000FEF77FFB0028C2D116F0340F07D09DF897
:106A20000C30424629463846FEF776FDB7E7082087
:106A3000B5E72DE9F04F99B01E46154682460C4643
:106A40004FF000090F4603F08FF930B1007822288B
:106A500006D2082019B0BDE8F08F43F20200F9E732
:106A6000B00801D00720F5E7032E00D100265046DC
:106A700000F0BBF94FF6FF7B0390CCB1022D68D339
:106A800076480068844264D304EB0508B8F1010F2E
:106A900003D0A8F1010181425BD3AD1EAAB2214609
:106AA00058460DF0F5F938F8021C884251D1ADB2C4
:106AB0006B48B10702D50189491C00E001211FFA8A
:106AC00081F8F10701D0068900E05E4604AA40463D
:106AD000039901F0C4FC0BE07888102839D809F13B
:106AE000040108441FFA80F9A94532D804EB0907CC
:106AF0008FB339884145EFD349E000BFBDF814108A
:106B00000A0744D544B304EB090709F104027B8862
:106B10001FFA82F8102B1CD803EB0802AA4218D8DF
:106B20003A88904215D1C80617D509AA052104EB69
:106B300008008DE8070038880022039901F03CFB2B
:106B400010B1FEF7B0FA85E77888BDF824108842C6
:106B500003D00B207EE71AE005E0798801EB0800FE
:106B60001FFA80F906E0C90604D50399FEF713FD64
:106B70000028E8D1BDF81400FF2320F01000ADF884
:106B80001400BDF81600059A039901F099FD04A8B8
:106B900001F06DFC18B9BDF81600B042AED9002264
:106BA0000421504607F08AF8040004D12D4940F62C
:106BB0003F3016F0B2FC20880028C4D001208DF8A8
:106BC000300000268DF824008DF831602088ADF863
:106BD000340004F10800CDE90A0AFCF7D6FE0500EE
:106BE0001AD0A5F802A01720ADF804000DF1460355
:106BF00001AA052109A800950CF0B1FE07466878A6
:106C0000000704D5174940F6613016F086FC4FB1F5
:106C10003846FEF7B1FA1DE71321504604F0C9FBD0
:106C2000032017E70FA80090BDF8043004220121CB
:106C3000504606F05AFB002885D126800AE72DE948
:106C4000F04F89B01D4616000F464FF000040BD0E0
:106C5000A9080BD0072009B0FDE60000280000209D
:106C6000440C0020C85800001020F4E7032D00D188
:106C7000002500F0BAF88046FF2804D06349A80731
:106C800004D5488903E043F20200E4E70120EA0763
:106C90004FF6FF7902D04989491E00E049468DB27E
:106CA00004AA414601F0DBFB0DF10C0B4FF0050A85
:106CB00034E000BFBDF8141009072FD50023CDE93B
:106CC00000A3CDF808B04B460022414601F063FC1A
:106CD000E8B9F7B1BDF80C10328821443819091D04
:106CE0008A422ED3BDF8162020F8022BBDF80C20C6
:106CF00020F8022BCDE900A0CDF808B0BDF81600B1
:106D0000BDF80C300022414601F045FC08B10320DB
:106D1000A1E7BDF80C002044001D84B204A801F0D6
:106D2000A6FB20B1822806D0FEF7BDF993E7BDF897
:106D30001600A842BED934B177B13088A11C884270
:106D400003D20C2087E7052085E7224639464846CE
:106D50000DF09EF839190880A41C348000207AE7D1
:106D600000B585B06946FEF71DFB00280AD19DF8E5
:106D70001000082832D2DFE800F0042F2F2F2F0751
:106D80000704032005B000BD9DF80200012808D1CA
:106D9000BDF80000B0F5C05F1ED06FF4C051C8420E
:106DA0001AD09DF80600012805D1BDF80400A0F511
:106DB0002850052810D99DF80A00012813D1BDF8E4
:106DC0000800B0F5245F07D0A0F52450023803D0A6
:106DD000012801D0022806D10F20D3E70CA140F2F0
:106DE000222016F09AFB0020CCE706F05EBF10B51B
:106DF0000C4601F003FB20B105A140F2BB6016F088
:106E00008CFB2046BDE81040FEF74DB9440C002035
:106E10007372635C67617474735F636F72652E6312
:106E2000000000002DE9F04105780E20DDF818C0C3
:106E300001F1100402F10E074FF00008022D0AD0F4
:106E4000032D32D0052D70D0BDE8F041F8A14FF4EC
:106E5000F27016F062BBCD8905EB850600EB4600AB
:106E600018803120ACF80000002A1CD0087B9581E6
:106E7000801FC6B214E061682088388031F8020BA8
:106E8000F88031F8020B3881BA1C3046FDF73EFF1E
:106E900006B118B187F80480A7F8028008340A37D1
:106EA0006D1EADB2E7D2BDE8F081CD8905EB850658
:106EB00000EB460018803220ACF80000002AF2D027
:106EC000087B9581401FC6B22AE06168228811F8CC
:106ED000010BFA803A79430860F3000263F3410240
:106EE000830863F38202C30863F3C302030963F3F5
:106EF0000412430963F34512830963F386123A715E
:106F0000C009787131F8020B38813A463046FDF7F6
:106F1000FDFE18B187F80280A7F8008008340A3710
:106F20006D1EADB2D1D2BEE7FFE7087BCD89801ED2
:106F300086B206F108006843103018803420ACF89F
:106F40000000002AAFD0958102F11007D68107EB2F
:106F5000C5080BE020883880C7F8048032464046D8
:106F6000616816F00DFA0834B04408376D1EADB2F2
:106F7000F0D298E72DE9F8431E46089D0C4681465D
:106F80002AB1607A00F58070D080E089108199F88C
:106F900000000E274FF000080B2879D2DFE800F040
:106FA0007F0618283440536C79797900207B91460C
:106FB000082806D0032804D0A2A140F2252016F00C
:106FC000ACFA378030200EE0A9F80C80BDE8F883D9
:106FD000207B9146042804D09AA140F2392016F073
:106FE0009CFA378031202880B9F1000FECD1EDE711
:106FF000207B9146042804D092A14FF4137016F020
:107000008CFA37803220EEE7207B9146022804D0AC
:107010008CA140F25F2016F080FA37803320E2E73F
:10702000207B1746042804D086A140F2712016F078
:1070300074FA1020308034202880002FC6D04046BB
:10704000A7F80C8016E0207B1746052806D00628F6
:1070500004D07CA140F2852016F05FFA1220308027
:1070600035202880002FB1D0E089B881A7F81080A2
:10707000B9F80200F881A9E7207B9146072804D0DF
:1070800070A140F2962016F048FA37803620AAE721
:1070900005E021464846009500F025FC96E7BDE84E
:1070A000F84363A14FF43C7016F037BA70B50C4644
:1070B000054602F059FE20B10078222804D20820AB
:1070C00070BD43F2020070BD00220521284606F083
:1070D000F5FD206008B1002070BD032070BDFFB534
:1070E0008BB007461720ADF828000E9814460D46C1
:1070F000032628B90EA93846FFF7D8FF002831D15A
:107100004DB100220321384606F0CEFB98B30E980D
:10711000007880BB09E02078092819D00F2823D0F7
:1071200043A140F24F3016F0F8F90E980DF10E021F
:10713000801DC4E901070AA9204600F024FC38B3E9
:10714000072823D2DFE800F019172222201B1D0098
:10715000072600223146384606F0A6FB0028E4D177
:1071600043F204000FB0F0BD00220321384606F0C0
:107170009BFB0028D9D11120F4E70020F2E708207A
:10718000F0E743F20300EDE70720EBE70320E9E730
:1071900001A80090BDF8283004223146384606F098
:1071A000A4F80028DED1002DDCD00E990D70D9E7AF
:1071B00010B588B01C46AAB104238DF8003013889E
:1071C000ADF80C305288ADF80E208A788DF8122078
:1071D0000988ADF8101000236A462146FFF77FFFAB
:1071E00008B010BD1020FBE72DE9F04107460078FC
:1071F0000C4612287BD2DFE800F07A5A5A2F135F30
:107200000909090909090909090909091CB908A194
:1072100040F2953009E0607840F00800607051E07D
:10722000002CF8D102A140F29D3016F076F9F2E779
:107230007372635C67617474635F636F72652E63FE
:10724000000000007372635C67617474635F636F56
:1072500072652E6300000000B888002286B2052106
:10726000304606F02BFD05462CB1AFF23C014FF441
:107270006A7016F052F92DB9AFF24C0140F2A93004
:1072800016F04BF93146A81D00F076FBFCF77DFBAC
:10729000040007D0607840F0080060706680FCF75A
:1072A00054FB10E01321304604F083F81CE0AFF2E9
:1072B000800140F2BD3003E0AFF28C0140F2C230F9
:1072C00016F02BF984B1607800070DD5207858228C
:1072D00020F00F00C01C20F0F000903020703946E4
:1072E00004F1080016F091F80020DCE5FFE7AFF2AA
:1072F000C00140F2C630E3E7002100F8061B00F0B1
:1073000038BB0A460146901D00F03CBB70B50546EF
:107310000022052106F0D2FC040005D1AFF2F001F5
:107320004FF4797016F0F9F82946A01DBDE87040B9
:1073300000F022BB2DE9FE4F4FF00009ADF8089098
:10734000ADF80490478893460C4605464A46052109
:10735000384606F0B3FC060005D1AFF22C114FF40D
:107360007D7016F0DAF824B1A780A4F80690A4F88E
:107370000890297A04F112003727C91E4FF00E0831
:107380004FF0010A00900F297ED2DFE801F0EEED08
:107390007D6708E1939AB02FEFEBEAC8C800307818
:1073A000012804D0AFF26411702016F0B6F8A88955
:1073B00008EBC001ADF804103021ADF80810002C26
:1073C00013D0A08100200DE004EBC00132790A74D3
:1073D0007288CA8105EB8002401CD3894B82128AD5
:1073E0008A8280B2A1898142EED830E130780128CA
:1073F00004D0AFF2B011912016F08FF8E88908EBB5
:10740000C001ADF804103021ADF80810297B091F28
:10741000C9B20091002CE8D0A08100271AE000BF7B
:1074200005EBC70A04EBC70808F10E02DAF81410DE
:107430000098FDF76BFC18B188F81090A8F80E9032
:10744000BAF81010A8F81210BAF812107F1CA8F899
:107450001410BFB2A089B842E2D8F8E0307804280E
:1074600004D0AFF22021BD2016F057F8A88900EB18
:10747000400208EB4201ADF804103321ADF80810CA
:10748000002CB2D0A08100E0DBE000200EE000BFC5
:1074900000EB400205EB420104EB4202CB89D381B1
:1074A0008B7C9374098A401C118280B2A18981422D
:1074B000EED8CCE0307806280BD0AFF27821D72078
:1074C00005E03078062804D0AFF28821EB2016F0D2
:1074D00024F8E8891230ADF804003520ADF8080032
:1074E000002CBAD0A989A1817188E18128E0307887
:1074F000072804D0AFF2B421FF2016F00EF8A889B7
:1075000000F10E01ADF804103621ADF80810002C82
:1075100026D0A081AA8904F10E0029695BE0E889E0
:107520003821123080B2ADF80400ADF80810002CFC
:1075300075D0A989A181287A102807D00221A173CA
:10754000E9892182EA892969009844E00121F6E766
:1075500002A8009001AB224629463046FFF762FCA4
:1075600075E03BE01BE001E050E059E0307808288E
:1075700005D0AFF2303140F2ED1015F0CEFF1420FF
:10758000ADF80400ADF80870002C60D0A989A18185
:10759000A4F81290A4F8109084F80EA057E0307868
:1075A000092805D0AFF264314FF4FF7015F0B5FF34
:1075B000288AADF808701430ADF804002CB304210B
:1075C000A173A989A181E9892182298A61822A8AF4
:1075D00004F11400696915F0D3FE38E030780A2808
:1075E00005D0AFF2A03140F2132015F096FF142021
:1075F000ADF80400ADF808703CB10521A173A4F802
:107600000C90A4F81090A4F8129020E002A800902A
:1076100001AB224629463046FFF7ACFC17E00DE0EF
:107620000D203921ADF80400ADF8081034B1A4F8EC
:1076300006A0A4F8089084F80C9008E0ABF80000CD
:1076400019E0AFF2144140F2394015F066FFBDF881
:107650000400ABF8000074B1BDF808002080BDF84C
:1076600004006080287A032805D0102803D0112850
:1076700001D086F800900020BDE8FE8F2DE9F84388
:10768000568815460F46804600220521304606F0F2
:1076900015FB040005D1AFF2684140F2594015F0E6
:1076A0003CFFA41D33462A4639464046009400F06C
:1076B000E7FA8BE42DE9F0438DB00D461446814680
:1076C00007A9FFF7F3FC002814D14FF6FF76012736
:1076D0004FF420588CB103208DF800001020ADF835
:1076E000140008A802460690204605A9FDF72DFBC8
:1076F00078B107200DB0BDE8F0830820ADF80C503C
:107700008DF812708DF80000ADF80E60ADF81080A5
:107710000CE00798A1780171218841808DF81270E2
:10772000ADF80C50ADF81080ADF80E606A4601213E
:107730004846079BFFF7D3FCDCE708B501228DF82C
:10774000022042F60202ADF800200A4602236946F2
:10775000FFF72EFD08BD08B501228DF8022042F684
:107760000302ADF800200A4603236946FFF720FD17
:1077700008BD00B587B079B102228DF800200A88D3
:10778000ADF80C204988ADF80E1000236A4604219C
:10779000FFF7A5FC07B000BD1020FBE709B10523EA
:1077A00006E50720704770B588B00D4614460646BA
:1077B00007A9FFF77BFC00280ED17CB10620ADF8AD
:1077C0000C508DF80000ADF80E40079B6A4606216C
:1077D0005C803046FFF783FC08B070BD05208DF853
:1077E0000000ADF80C50F0E700B587B059B10723A1
:1077F0008DF80030ADF80C20049100236A46072173
:10780000FFF76DFCC6E71020C4E770B5002488B010
:10781000172391B10A78062A20D2DFE802F01F046C
:10782000041503171523DB1E9DB2CB880BB18E68A0
:107830001EB1AB4203D90C20CEE71020CCE7042ABE
:1078400004D08B8853B901E00620C5E7012A13D084
:10785000022A05D0042A1CD0052A2AD00720BBE71B
:1078600009228DF800204A88ADF80C20CA88ADF8AE
:107870000E208968049123E00C228DF800204A88AC
:10788000ADF80C20CA88ADF80E2089680824049150
:1078900016E00D228DF800204A88ADF80C208A8869
:1078A000ADF80E20CA88ADF810208968092405912A
:1078B00006E00E228DF8002049788DF80C100A247D
:1078C00000236A462146FFF70AFC85E700B587B02A
:1078D0000F228DF80020ADF80C1000236A461946DF
:1078E000FFF7FDFB56E770B514004FF01405049A3E
:1078F0001D804FF03703138028D0CA89A28100224F
:107900006282007808280BD0092814D00A281ED0DB
:10791000AFF2D061BDE8704040F2BB2015F0FDBD74
:10792000087B0C2805D0AFF2E46140F2AF2015F0DF
:10793000F4FD012009E0087B0D2805D0AFF2FC61C1
:1079400040F2B32015F0E9FD0420A07370BD087B60
:107950000E2805D0AFF2147140F2B72015F0DDFD0E
:107960000520F2E7F94B586019721A80C90015F02A
:10797000A0BD0021018070474FF6FF7202800320F6
:1079800006F034BE70472DE9F04F0E4601780446EC
:107990004FF0010A0AFA01F047F2FF1100EA01086C
:1079A0006168154697B00888A0F57F42FF3A06D077
:1079B000B8F1000F07D047F2FE12104203D00120A9
:1079C00017B0BDE8F08F40EA080008804FF00009CA
:1079D000A5B185F800902378002705200322022115
:1079E000DFF868B3102B75D2DFE803F0740D131CB9
:1079F0002F4A515A31A5A175A9F1F0EF20780B2833
:107A0000E9D00420DCE72970A089A5F801003280C4
:107A10001DE104212970A189A5F80110E189A5F8CB
:107A2000031082E006202870A089A5F80100E089F3
:107A3000A5F80300208AA5F80500A28AE81DA1691F
:107A400015F09EFCA08AC01D6FE0082129702178E6
:107A5000082901D110212970A189A5F80110E18917
:107A6000A5F8031030806A1D694604F11000FDF787
:107A70006CF900287ED130889DF80010084454E04D
:107A80000A202870A089A5F801003280AAE00C2104
:107A90002970A189A5F80110E189A5F80310B7E0C4
:107AA000A2890AEB420081B23088884262D305295C
:107AB00060D30E202870002008E0236905EB400CFD
:107AC00033F81030401CACF8013080B29042F4D34F
:107AD0003180BCE0CAE09BF809005A46002873D008
:107AE000401E5072227BDBF80400236900EBC205C4
:107AF000AA882868D3F800C00244A2F1080042F81E
:107B000008CC5A6842608DF800108DF80190286802
:107B10000290A888ADF8040000216846FFF764FBD6
:107B2000A5F80490002E01D0484630808FE02878D8
:107B300040F080012970287840F0400129702878B1
:107B400020F03F0012302870A189A5F80110E289C9
:107B5000E81C216915F014FCE089C01C30802878ED
:107B600041063FD5000672D58DF800A08DF8019032
:107B7000308800E026E0001DADF804000295E189A0
:107B8000E81C08440390001D04909BF808008DF841
:107B9000140000216846FFF727FB074630880C30A9
:107BA0003080022F01D007B363E09DF81420DBF88A
:107BB00004109BF80830584601EBC2019A4201D2EA
:107BC0008A882AB1042754E030E02BE022E00DE05F
:107BD000427A521C8BF809200D6030888880A6F804
:107BE000009046E06168A089888030E0287820F025
:107BF0003F0016302870A089A5F80100E089A5F89B
:107C00000300228A681D616915F0BAFB208A401DB5
:107C10003080E7E7287820F03F0018302870207B7C
:107C2000687055E760680188090401D4052720E0E1
:107C3000C088A189884201D006271AE01E2028703A
:107C4000A6F800A06068018821F400410180B8F125
:107C5000000F0ED0BBF80000002283000320A168B3
:107C600006F009FC61682078887007E0A6F80090AB
:107C700003276068018821EA0801018038469FE6F1
:107C80002DE9FF4F97B00C46249E70B117280CD8F1
:107C90003288A2F57F43FF3B07D02278530601D4F8
:107CA000120604D508201BB08BE60720FBE7002353
:107CB0008DF800308DF801302278A0F1010A02F031
:107CC0003F0C821E611C1D46EB461FFA8AF70DF120
:107CD0000809BCF1200F6ED2DFE80CF088106D624D
:107CE0006D6E6DA46DC66DF06DF56DED6DEC6DEBAB
:107CF0006D6D6DEA6DE96DE86DE76D88052875D1EC
:107D000004208DF80000B0788DF804006088ADF88C
:107D1000060020798DF80100607800F03F000C2803
:107D20002CD00ADCA0F1020009285FD2DFE800F0C5
:107D3000155E185E1D5E205E2300122827D007DC2A
:107D40000E281ED01028DAD11EE00000500C0020B2
:107D500016281FD01828D2D11FE03078800701E004
:107D600030784007002841DA33E130780007F9E73E
:107D70003078C006F6E730788006F3E730784006C2
:107D8000F0E730780006EDE73088C005EAE7308894
:107D9000C004E7E730888004E4E730884004E1E786
:107DA0003178890722D50328A9D105208DF8000054
:107DB000B4F80100CCE027E131784907F2D5062874
:107DC00014D3617890B2012902D0022997D101E041
:107DD000022100E01021884606218DF80010ADF840
:107DE0000430A11C5F4608F1020915E092E000BFD3
:107DF00031F8022B3A80A0F1020A8B46BA1C4046A9
:107E0000FCF784FFBDF80420AAEB0800521C0BEB22
:107E1000080180B2ADF80420BF1D8145E8D90028D3
:107E200078D1D6E03078000774D507208DF80000AF
:107E30001FFA8AF1ADF80430601C0BF106020EE067
:107E400030F8023B22F8023B30F8023B22F8023BBA
:107E5000091FBDF8043089B25B1CADF80430042959
:107E6000EED2002956D1B4E03178C90652D50228A5
:107E700050D308208DF80000ADF8063091B2637839
:107E80008DF80430A01C4A460CE0078822F8047BD9
:107E9000871C80C2C91ABDF8067018447F1C89B2BD
:107EA000ADF806708B42F0D9DBE772E077E067E06F
:107EB00051E044E01DE012E005E0FFE73078800685
:107EC00028D5092003E03078400623D50A208DF814
:107ED0000000B088ADF80400ADF8067007E0307817
:107EE000000617D50B208DF80000ADF80470029144
:107EF0006FE03188C9050DD502280BD30C208DF811
:107F00000000ADF80630637892B28DF80430A01C02
:107F1000494610E04FE0078821F8027B478821F8A6
:107F2000027B071D80C1D21ABDF8067018447F1C61
:107F300092B2ADF806709342EDD9E2BB49E03188C8
:107F4000C9045FD501285DD10D208DF80000B088EF
:107F5000ADF804003DE03188890453D5052851D39C
:107F60000E218DF80010B188ADF80410B4F803109C
:107F7000401FADF80800601DADF80610039028E022
:107F8000318849043ED501283CD10F208DF80000EE
:107F90001FE03188090435D4B4F80110F1800328BA
:107FA00030D3217801F03F011B2927D011218DF812
:107FB0000010318800E025E041F40041A6F80010EF
:107FC000B4F80110ADF80410C01EADF80600E01CB6
:107FD0000290207800F03F001B2809D01D2807D010
:107FE00003201A9906F002FB308800F4004030802C
:107FF00068461999FFF7F8F8284654E610218DF8DD
:108000000010DDE70725F7E70825F5E700B597B08D
:10801000032806D18DF80000019100216846FFF782
:10802000E3F817B000BD000010B58B787BB1827803
:108030009A4205D10B8853B102E08B79091D43B1F7
:108040008B789A42F9D103880C88A342F5D100209D
:1080500010BD812010BD052824D012B1012A0ED1F7
:1080600003E00988C1F3812102E00988C1F30131ED
:1080700039B1012916D0022908D003290CD081205A
:1080800070470AB10320704702207047032809D0C7
:10809000042807D020B107E0042803D0022803D029
:1080A00005207047002070470F20704710B51388D7
:1080B0000B809BB21C061FD5FE4CA47A844204D8C8
:1080C00043F010000880002010BD94682478C4405C
:1080D00064F304130B801378917803F0030341EAEF
:1080E000032140F20123B1FBF3F403FB1411926866
:1080F00000FB0120401C10BD906810BD37B5BDF8D5
:1081000004101180BDF8045029061BD5E94901234C
:108110009468897A814209D8FE280FD1E80602D5F1
:108120008B405B1E00E00023237007E02178834032
:108130009943C5F30013834019432170108820F040
:10814000100010803EBD2DE9F0410746C81C0E46C8
:1081500020F00300B04202D08620BDE8F081082A5A
:1081600001D90E20F9E7D34D002034462E60AF80B0
:108170002881AA72E8801AE0E988491CE980810612
:1081800014D4A17800F0030041EA002040F201215C
:10819000B0FBF1F201FB1201206800F0D3FA29894B
:1081A000084480B22881381A3044A0600C342088FA
:1081B0004107E1D40020D0E72DE9FF4F85B01546F7
:1081C000DDE912B68046994623F4404700F0AAFA4A
:1081D00004000BD0207800060AD5B648817A0698AC
:1081E000814205D8872009B0BDE8F08F0120FAE769
:1081F000224669460698FFF759FF824600208DF80F
:108200000400052E18D0012221463046FFF723FF37
:108210000028E8D1207840060ED502208DF8040011
:10822000ADF80880BDF80000ADF80C50ADF80A00BC
:10823000ADF80E70CDF810B05FEA094004D5002704
:108240003D46B84601260CE02178A07801F00301F4
:1082500040EA012040F20121B0FBF1F2804601FB2F
:1082600012865FEA494009D5B04507D12188E078F8
:10827000C1F3012140EA0120A84201D3B54201D94E
:108280000720B0E778191FFA80F9B14501D90D2010
:10829000A9E79DF8040020B101A8FDF7A3F9002883
:1082A000A1D1B04507D120884FEA192161F30920F7
:1082B000208084F80390149800B10780BBF1000F70
:1082C00015D00AEB05003A46594615F059F82246F2
:1082D00069460698FFF7EAFEBDF80000224620F046
:1082E0001000ADF8000000990698FFF707FF002086
:1082F00079E72DE9FF4FDFF8BC9182461746B9F8C0
:108300000610D9F8000001EB410100EB810440F2B6
:108310000120B2FBF0F183B000FB11764D46DDF891
:1083200044803146049800F00DFA29682A898B466A
:10833000611A0C3101441144AB8889B28B4202D8D6
:10834000842007B050E704998DB2290603D5A90609
:1083500001D58520F5E7B9F806C00CF1010C1FFA2C
:108360008CFCA9F806C0129909B1A1F800C0A906B1
:1083700002D5C4F8088007E0104480B2A9F80800CC
:10838000191A01EB0B00A0602246FE200499FFF7AA
:10839000B5FEA770E6702088390A61F30100310A42
:1083A00061F3092040F0040020809AF80200A071D7
:1083B000BAF80000A08000262673280602D599F896
:1083C0000A7000E00127A80601D54FF000084D46CD
:1083D00000244FF005090DE0CDF80080CDE90196AD
:1083E000E8882146109B069AFFF7E6FE0028A8D1F0
:1083F000641CE4B2BC42EFD30020A2E72DE9F047B1
:10840000804600F08FF9070005D000264446294D2C
:1084100040F2012916E00120BDE8F087204600F077
:1084200081F90278817802F0030241EA0222B2FB6C
:10843000F9F309FB1321006800F084F93044641C4F
:1084400086B2A4B2E988601E8142E7DCA8F101008F
:10845000E8802889801B288100203870DCE720B163
:10846000401E10809170002070470120704710B5A9
:10847000104904460088CA88904201D3822010BD6A
:10848000096800EB400001EB80029079A0729088AF
:1084900020811188D078C1F3012140EA0120A08118
:1084A000A078211DFFF702FE20612088401C20805B
:1084B000E08001E05C0C0020002010BD0121018261
:1084C00070472DE9FC474FF6FF780546A2F800807B
:1084D000406817468A4680788DF8020068680088F0
:1084E000ADF8000000208DF80600288A2C88A042F4
:1084F00000D304462C822DE0288A401C2882301D9F
:108500006968FFF791FD18BB3988414501D1601EAC
:1085100038806888A04222D33188F078C1F30121E5
:1085200040EA01296946301DFFF77EFD80B969895F
:10853000414519D0002231465046FFF78CFD38B92D
:108540006A894A4504D1E968B06814F0EDFE58B173
:10855000641CA4B2204600F0E5F80600CCD1641EED
:108560002C828220BDE8FC877C80B079B871B0880D
:10857000B8803178B07801F0030140EA01207881B9
:10858000A7F80C90287A324607F10801FFF78EFD14
:1085900038610020E6E72DE9F04F85B01C46904693
:1085A0000F468346DDF838A0DDF8409000F0BAF8B9
:1085B000050009D02878000608D56A48807AB842B4
:1085C00004D8872005B00FE60120FBE7C8F30906B1
:1085D0002A4669463846FFF769FD07465046BAF114
:1085E000050F1AD000222946FFF735FD0028E9D1F2
:1085F0002878400611D501208DF80400ADF808B0A8
:10860000BDF80000ADF80A00ADF80C60ADF80E4002
:1086100001A8FCF7E7FF0028D4D12888A97800F04A
:10862000030241EA0221EA78C0F3012042EA002075
:10863000464507D0B1F5007F04D9611E814201DDB6
:108640000B20BFE7864201D90720BBE7801B82B21F
:10865000A24200D92246B9F1000F01D0A9F80020AA
:108660000F9810B1B91914F08BFE0020AAE72DE97C
:10867000F0411D4617460E4600F054F8040008D09D
:108680002078000607D53748807AB04203D8872083
:1086900063E5012061E5224639463046FFF706FDD5
:1086A00065B12178A07801F0030140EA0120B0F51E
:1086B000007F01D8012000E00020287000204CE558
:1086C0002DE9F0411D4617460E4600F02BF8040038
:1086D00008D02078000607D52248807AB04203D817
:1086E00087203AE5012038E5224639463046FFF733
:1086F00005FDFF2D14D02188A07801F0030240EA87
:10870000022040F20122B0FBF2F302FB130015B984
:1087100000F2012080B2A070000A60F30101218004
:1087200000201AE50F49CA88824209D340B109687E
:1087300000EB40006FF00B0202EB80000844704732
:108740000020704780B2820609D4000605D505488E
:10875000807A4843401C80B270470846704700202A
:10876000704700005C0C00202DE9F04107780D46B1
:108770000446012F19D0072F02D00C2F19D114E075
:10878000A068216906780B2E0BD0052005F02EFF7E
:10879000052E0ED0782300220520216905F06BFEFE
:1087A00007E0782300220620F8E70520216905F07C
:1087B0001DFF7DB1002028702946204603F08DFA68
:1087C000FE482978C05D884202D10320BDE8F081CF
:1087D0000220FBE70021204603F07FFA0020F5E7A6
:1087E00030B50C4691F8241089B01546012049B1E6
:1087F000012905D12978042902D105201070002013
:1088000009B030BD60680590CDF818D00D210DF18C
:10881000030014F02CFEA0680188ADF800108078E9
:108820008DF80200012084F8240006208DF8100045
:10883000206A0890294604A8FFF796FFE0E770B584
:108840000C46012091F8241086B01546062661B327
:10885000012928D12978042925D169681022A06826
:1088600001F0FDF96868C07B000606D5D34AA06810
:108870001023103A014601F0E7F9D4E90210102262
:1088800001F0EDF9A068C07B000606D5CB4AE06890
:108890001023103A014601F0D7F92E70A0686860E5
:1088A000E068A860002006B070BD60680190C34811
:1088B000114620380290012084F824008DF80060D1
:1088C000206A04906846FFF74FFFECE7027B032A1B
:1088D00006D0002281F824200B78092B02D003E077
:1088E000042070470A76CA61027B9300521C02730F
:1088F000C150032070472DE9F0410C460346154650
:10890000012091F8241092B007224FF0060861B1BF
:10891000012925D0022930D0032904D1297804293E
:1089200001D12A70002012B050E7012084F8240001
:10893000606870B1A1690A706068486020698860E9
:108940006069C860206A086212B01846BDE8F0414C
:10895000BCE785F80080206968606069A8600AE06B
:1089600029780629DFD1022084F824000420287009
:108970009248203868600320D5E729780429D2D1AD
:10898000A08910280CD9A0F1100080B2A081A168A4
:108990004FF01003014468466A6801F055F927E07A
:1089A00004D14FF010032269A16815E0C2B20DAEE8
:1089B000C2F1100707EB0600A16814F0E1FC17F004
:1089C000FF0006D0401EC1B280207054304614F023
:1089D0004EFD626910230DA904A801F035F910239A
:1089E00004A968466A6801F02FF9032084F824007E
:1089F00060680990CDF828D08DF82080206A0C900E
:108A0000294608A8FFF7B0FE8DE770B50C46012097
:108A100091F824108EB01546062659B1012931D09F
:108A2000022905D12978042902D1082010700020DC
:108A30000EB070BD217D102301F00100C1F3400193
:108A40008DF800008DF80110E0686A460168CDF8E5
:108A500002108188ADF8061080798DF80800206931
:108A60000168CDF809108188ADF80D1080798DF876
:108A70000F006068059009A80690A16801F0E4F86D
:108A800001201BE029780429D2D1E06910236A462D
:108A9000016800918088ADF80400A0690168CDF8F4
:108AA00006108088ADF80A000020039060680590E9
:108AB00009A80690696801F0C7F8022084F824002C
:108AC0008DF81060206A0890294604A8FFF74CFE34
:108AD000AEE700B591F8243089B001204BB1012BED
:108AE00005D11178042902D109201070002009B0A5
:108AF00000BD4868019005A80290C8680368059306
:108B000040680690886803680793406808900120D1
:108B100081F8240006208DF80000086A04901146B0
:108B20006846FFF721FEE2E700B591F8243089B0EE
:108B3000012043B1012BDAD111780429D7D10A20C1
:108B400010700020D3E74868019005A8029088685B
:108B50000368059340680690002007900890012064
:108B600081F8240006208DF80000086A0490114660
:108B70006846FFF7F9FDBAE700B591F8243089B0EF
:108B8000012043B1012BB2D111780429AFD10B20C0
:108B900010700020ABE748680590CDF818D08868C1
:108BA0000088ADF80000C8680088ADF80200002019
:108BB000019002900390012002E0000038D70100EC
:108BC00081F8240006208DF81000086A08901146EC
:108BD00004A8FFF7C9FD8AE730B4034691F82440A2
:108BE00001205CB1012C16D0022C05D111780A2984
:108BF00002D10C201070002030BC7047012081F899
:108C00002400C868052202704A684260FD4A8260FA
:108C1000921CC2600CE014780B2CEDD1022081F87C
:108C20002400C86804240470526842608A68826024
:108C3000096A0162014630BC184647E610B500F1EA
:108C4000310283799478011D64F003042340837119
:108C5000DB070DD04B79547923404B710B79127996
:108C600013400B718278C9788A4200D9817010BD97
:108C700000224A710A71F5E72DE9F74F86B000200E
:108C80008DF8000016460C4691F8240001251821A5
:108C90000E220B274FF0190B4FF0110A4FF00A0963
:108CA0004FF01C081F2879D2DFE800F010FCFBFA17
:108CB000F9F8F7F6F5F4F3F2F1F0EFEEEDECEBEA9C
:108CC000E9E8E7E6E5E4E3E2E1E0DF00606910B14E
:108CD000007813287ED0A768002F5FD001208DF880
:108CE0000000206A049003208DF804008DF80590A0
:108CF000E069029020790028EFD03A78002AE9D084
:108D00000C2A67D267D2DFE802F066164A8FD3F8E2
:108D1000F7F6F5F4F306022840D1606910B1007847
:108D2000082857D102208DF80000206A0490787836
:108D30008DF8040038E20620216A05F057FC2079FE
:108D40000728E9D1606900F0ADFF02280BD0606907
:108D500000F0A8FF042806D060690028BDD0007884
:108D60000128D9D102E06169012008703879C11F5A
:108D70000A2902D384F81890F4E361698870606965
:108D800039680163B9888186B97980F83610012085
:108D900084F8240061690320087037E03DE2072869
:108DA000BAD16069002898D001780929B4D1F9783E
:108DB000890705D179790029DCD1B9790029D9D180
:108DC000797990F835209143D4D1B97990F836204B
:108DD000914301E07DE2A2E1CCD13979CA1F0A2A90
:108DE000C8D290F824208A4202D906202076B9E31E
:108DF000396840F8031FB9888180B97981710120F1
:108E000084F824006169032081F800908DF8000047
:108E1000206A04906069313001906069001D029001
:108E200060691C300390CEE211288AD1606900F09D
:108E300039FF042804D0606900F034FF0B2890D17A
:108E400060691022791C373014F09AFA6069017851
:108E500004292BD190F8241082789142C5D805219D
:108E60000170032084F824001DE0F1E3F1E3F1E355
:108E7000F1E3F1E3F1E3F1E3F1E3F1E3F1E3F1E352
:108E8000D9E3A0E352E32BE3FAE2EDE2DCE2A7E26E
:108E90009AE280E256E220E2FBE1C8E1B7E196E126
:108EA00083E166E13EE18DF80010E8E2082089E305
:108EB0001128BAD1606900F0F5FE062804D0606977
:108EC00000F0F0FE0C28B0D1E068B8B12069A8B17C
:108ED00060690178062915D00D21017060691022A2
:108EE000791C573014F04CFA606957300921A9E118
:108EF000E0E0B8E096E049E027E00EE000208DF8E1
:108F000000008AE10721017060691022791C473056
:108F100014F036FA60694730E8E70228F1D1606959
:108F200000F0C0FE0028ECD0606900F0BBFE012814
:108F3000E7D0606900F0B6FE0828E2D005208DF881
:108F4000040078788DF8050067E11128D9D16069AF
:108F50000028D6D001780E29D3D1C16A40780228E2
:108F600012D0002000EB8000142202EB80001022BF
:108F70000858791C14F004FA0520216A00F07FFEDD
:108F800061690F200870A4E10120EBE70B28B8D13C
:108F900060690028B5D001780F29B2D1C16A407844
:108FA000022831D05FF0000000EB80020C2000EBC3
:108FB00082000858B7F8011001806069C16A4078E2
:108FC000022824D05FF0000000EB8000102202EBAA
:108FD0008000085857F8031F016079684160052038
:108FE000216A00F04CFE60694178022912D04FF0EE
:108FF000000100BF01F10801415C21F001027BD0BA
:109000008AE0000012D701004FF00100CCE74FF0DA
:109010000100D9E74FF00101ECE700BF01F10801C1
:1090200042540EE211288FD1606900288CD002785A
:10903000102A89D1C26A4078022812D05FF000005D
:1090400000EB800001EB8000791C1058102214F016
:1090500097F90520216A00F012FE616981F800A0ED
:10906000DBE30120ECE7082891D16069002891D06A
:10907000017811298BD1C06A797801706069D7F8BD
:109080000210C06A40F8011FF98881800520216A1A
:1090900000F0F5FD60694178022908D04FF0000129
:1090A00001F10801415C21F002022CD034E04FF0C4
:1090B0000101F5E71128B6D160690028B6D0017822
:1090C0001229B0D1C16A407802281FD05FF0000099
:1090D00000EB800008EB800010220858791C14F087
:1090E0004FF90520216A00F0CAFD60694178022924
:1090F0000FD04FF0000100E005E001F10801415CF4
:1091000021F0040208D14FF0010187E74FF0010080
:10911000DEE74FF00101EEE74FF000017EE74FF090
:10912000070063E6307801289ED1606971681422D7
:109130001C3014F06AF96069017F09B12176C9E336
:109140000178032901D0032094E10225C5708179BB
:1091500021F0F8018171017A21F0F8010172417A60
:1091600021F0F80141726069FFF768FD84F824502E
:10917000A5E230780F28E2D107208DF80000216A9F
:109180000491B1688DF8040002910846616951F8B4
:10919000032F02608A888280897981716169042045
:1091A0000870002084F82400ADE330780328C6D18D
:1091B00060690178052971680A6805D040F8472F71
:1091C00049684160042055E140F8572FF8E73078AE
:1091D0000328B4D160690178052971680A6811D043
:1091E00040F84F2F49684160052084F824006069E9
:1091F000006A50B102203070002030716069006A4E
:10920000B0609FE240F85F2FECE7042035E1307852
:10921000022894D1307908B120765BE36069B168A7
:109220000162606909B9FA49016206207CE230787E
:109230000F2884D1B068E06160690178052926D0E3
:109240004730072184F82410E16802220A7062691D
:10925000126AC1E9012060693030C8606069C01CD1
:1092600008616069806A0278087D62F30000087511
:109270006269926A521C8A616269D26A127862F3E8
:10928000410008756069C06A401CC8616FE25730D0
:10929000D7E730780828C0D160690178052919D04E
:1092A000077007208DF80000206A0490E0690290A2
:1092B0008DF804A0032100F8011B1022716814F03E
:1092C0005FF800216846FFF74FFA002084F8240079
:1092D000E061A2E206210170E3E730780F289CD11B
:1092E00007208DF80000206A0490B06802908DF885
:1092F00004A00421017061690A78072A0BD00022BA
:1093000084F824200C220A7061691022401C473125
:1093100014F036F8F7E21022401C573114F030F800
:1093200000216846FFF720FA84F82490E1680320C2
:1093300008706069006A48606069573088606069D9
:10934000473013E230780828A5D16069716810228F
:10935000373013F0E9FF08B1042047E56069007871
:1093600007283FF4A3AD84F82490E1680320087037
:109370006069006A4860606957308860606947309A
:10938000C860206A08620698FFF7A0FA054660697F
:10939000FFF754FC8DE230780928A0D184F82470BE
:1093A0006169706889780844C1F1100114F05FF8B0
:1093B00008208DF80000206A0490706801906069B0
:1093C00080788DF808007DE130780D2887D16069BC
:1093D0008079C0077AD00C2084F8240009204CE062
:1093E00030780E28B0D160691422311D1C3014F081
:1093F0000CF86069018DC06AA0F809106069817875
:10940000C06AC1716169081DCA6A117A21F07F01C1
:1094100011724379626919438378D26A03F00303B6
:10942000012B00D0002300799B0143EAC0000143D7
:10943000117260694078012877D002E084F8240036
:1094400080E184F824B07DE160694178022901D08F
:10945000012100E000210831405CC00702D084F8FF
:1094600024202CE11320E9E730780F2895D1B0684B
:10947000E0610F2084F8240005208DF8000056E1FB
:109480003078032889D16069C16A4078022801D008
:10949000012000E0002000EB8002102000EB82029F
:1094A00073688A58196811605968516084F82400FB
:1094B000D4E9031306220A706269526A4A6062693B
:1094C000D56A5278022A02D0012201E0B4E10022DA
:1094D00002EB820200EB82002858C1E9020346E158
:1094E00030780C28C2D16069C26A4078022801D065
:1094F000012000E0002000EB80010C2000EB810047
:10950000022310580932716800F09EFB84F824A0F1
:10951000E168052008706069006A48606069C06A97
:10952000093088603A48001F20E17AE130780B2842
:109530009CD161694A78C86A022A01D0012200E000
:10954000002202EB8202142505EB820280588A7801
:10955000716813F015FF60694278C16A022A02D06F
:10956000012201E0B8E1002202EB820205EB820257
:109570008A5881785018C1F1100113F078FF072044
:109580008DF80000206A0490E06902908DF804A034
:10959000062101706169CA6A4978022901D0012156
:1095A00000E0002101EB810105EB8101401C5158D5
:1095B000102213F0E5FE00216846FFF7D5F80020E1
:1095C000E0611220B0E030780F2877D107218DF8C4
:1095D0000010206A0490B06802908DF80470017049
:1095E0006169CA6A4978022901D0012100E000219D
:1095F00001EB81030C2101EB830151580988A0F88C
:1096000001106169CA6A4978022903D0012102E088
:1096100018D70100002101EB8101102303EB810128
:1096200051580A6840F8032F496841600021684694
:10963000FFF79AF816E760694178022901D0012105
:1096400000E000210831405C80070CD514206BE05D
:10965000F4E0EEE0E7E02FE102E1CAE08DE073E044
:1096600056E034E001E01620E8E630780F2825D1F6
:10967000B068E06107208DF80000206A0490E0697E
:1096800002908DF804A0082202706269D36A5278B1
:10969000022A01D0012200E0002202EB820201EB4B
:1096A000820110225958401C13F06AFE00216846BE
:1096B000FFF75AF80020E061152035E083E08DF8CF
:1096C000009034E031466846FFF74EF832E03078DB
:1096D0000F2878D107208DF80000206A0490B06828
:1096E000029008208DF80400029809210170616938
:1096F000C969097841706169C96951F8012FC0F8D9
:1097000002208988C18000216846FFF72DF8AAE76A
:1097100060694178022901D0012200E0002208326C
:10972000805C400708D5172084F82400C7E7206A2A
:109730000490C7E70546BCE001293FF472AC00BFC6
:1097400084F824800325E3E030780F283BD1B0680B
:10975000E06184F82410E168052008706069006AFF
:1097600048606069C06A09308860F748C860206A4C
:1097700008620698FFF7AAF8DCE730780B2822D1B8
:109780006069C16A4078022801D0012000E0002011
:1097900000EB800008EB800010220858716813F07D
:1097A000EFFD07208DF80000206A0490E069029028
:1097B0008DF804A080F800906169CA6A497802298E
:1097C00002D0012101E04AE0002101EB810108EB18
:1097D0008101401C5158102213F0D2FD002168462F
:1097E000FEF7C2FF0020E061606940780128A7D140
:1097F00027E660694378022B07D000210831415CDD
:1098000069B1CB0703D0027007E00121F6E78907B1
:1098100001D5102100E012210170002578E0012B14
:109820008ED00D200AE61D2084F824008DF80070EB
:109830007DE7307810284DD11E20FFE5616908785A
:10984000012847D0082845D0002084F82400084685
:1098500000F022FA0C208DF80000206A049039E014
:1098600030784FF01B080F2805D0102030700325EA
:1098700084F824804CE007208DF80000206A0490D2
:10988000B068029002208DF8040002980521017052
:10989000217E417000216846FEF766FF8DF800705A
:1098A000206A049031466846FEF75EFF054684F85C
:1098B0002480012D0ED02BE001208DF80000206ABD
:1098C000049004208DF80400207E8DF8050000200F
:1098D000207611E0207E78B16169132008701A208B
:1098E00084F824008DF80090206A04903146684680
:1098F000FEF73AFF05460BE0606908B114210170DC
:109900009DF8000020B100216846FEF72DFF84E796
:1099100009B02846BDE8F08F2DE9F047012691F8FF
:10992000240086B091460C46B04620B1012828D0CC
:1099300002281CD19BE02079012804D0022811D0F4
:10994000032814D10AE0A068407801280ED106202F
:10995000216A04F024FE002809D10CE0A16813203C
:10996000087008E0A0684178022901D0052676E059
:109970000078082873D184F824800A208DF800002C
:1099800033E099F800000F2869D107208DF8000016
:10999000216A0491D9F808500295217902274FF0E5
:1099A0000B0A012904D0022927D0032957D10EE040
:1099B0008DF8047085F800A0207B002100F00700DE
:1099C00068706846FEF7D0FEA068077046E08DF824
:1099D000047005202870207B687000216846FEF71F
:1099E000C3FE84F824708DF800A0206A04904946D4
:1099F0006846FEF7B9FE064631E08DF8040085F8AA
:109A00000080207C6870607C00F00100A870A07C61
:109A100000F00700E870E17C2971C00723D0207DA9
:109A200000F007006871607D00F00700A871002158
:109A30006846FEF799FEA06829680163A9888186B7
:109A4000A97980F83610E068A168007A81F82400CE
:109A5000A16828798870A16809200870002606B0DE
:109A60003046BDE8F0870020A8716871DFE7A16883
:109A7000142008708DF80080206A049004208DF86E
:109A80000400207B8DF8050000216846FEF76CFE7F
:109A9000E4E7F0B585B00F4605460124287B05EBC9
:109AA000800050F8046C3078411E0A290AD22649F9
:109AB0003A46323101EB8000314650F8043C2846EA
:109AC000984704460CB1012C11D1287B401E10F0A0
:109AD000FF00287301D00324E0E70D208DF800007B
:109AE000306A0490002101966846FEF73DFE032C83
:109AF000D4D005B02046F0BD70B515460A460446E0
:109B000029461046FFF7C5FF064674B12078142891
:109B10000BD1207E30B100202870294604F10C00C2
:109B2000FFF7B7FF204600F0B7F8304670BD70472A
:109B300010B5012903D0022901D0052010BD4170C4
:109B400000F0AAF8002010BD16D7010028B1027E4F
:109B50001AB10A4600F10C01CEE70120704730B57A
:109B6000044687B00D46062004F040FD2946052036
:109B700004F03CFD2078142806D000208DF8000069
:109B800069462046FFF7E2FF07B030BD7FB50E46BD
:109B900000218DF80C100178092903D00A2903D07F
:109BA000002405E0446900E084680CB1217E91B195
:109BB0006D4601462846FEF789FE032809D1324644
:109BC00029462046FFF798FF9DF80C10002900D089
:109BD000042004B070BD04F10C05EAE700B50023D1
:109BE000012285B005280FD006280BD102208DF860
:109BF000002004918DF804008DF80530002168469E
:109C0000FEF7B2FD05B000BD8DF8002004918DF87F
:109C10000420F1E710B590B00C4607902448089056
:109C200005210E92001D8DF818100990694606A8AE
:109C3000FFF7ACFF002805D110222046019913F050
:109C40009FFB002010B07EE730B505E05B1EDBB265
:109C5000CC5CD55C6C40C454002BF7D130BD10B542
:109C6000002409E00B78521E44EA430300F8013B4C
:109C700011F8013BD2B2DC09002AF3D163E770B5D9
:109C80000C46054604F0B2FC21462846BDE870406B
:109C90007823002204F0EFBB4178012900D008218D
:109CA0000170704708B100787047082070470000C5
:109CB00010D7010070B5FA4D040008D0012C10D067
:109CC000022C07D0032C05D0F6A1752007E0F5A1E2
:109CD0006C2004E02878012803D0F2A1722013F050
:109CE0001CFC2C7070BD70B5ED4D044610280AD0D8
:109CF000112C16D02846122C817807D0132C0AD0AC
:109D0000E8A1A4200BE0E7A1992008E0112908D0E0
:109D1000E4A19E2003E0112903D0E2A1A12013F0C9
:109D2000FCFBAC7070BDDE4810B5017B94B0C9B1CE
:109D30005FF017018DF8001050F80D1FCDF80210DC
:109D40008088ADF8060009A9684603F0CBFE0446FA
:109D5000112804D01CB1D3A1C02013F0DEFB14B035
:109D6000204610BD3221E5E70022022103F0A6BF04
:109D70002DE9F04194B01D4690460E460746FFF788
:109D8000F3FF04000BD02078222804D3A07FC0F377
:109D90004010A84206D1082014B0BDE8F08143F27B
:109DA0000200F9E737208DF80000ADF802703DB1F0
:109DB00001208DF804008DF805608DF8068002E022
:109DC00000208DF8040009A9684603F08BFEA07FEF
:109DD00065F34510A0770020DEE770B50446A1F1D9
:109DE00020000D460A2861D2DFE800F005091022A4
:109DF0002B3241484F56ABA14FF4867052E0207889
:109E0000202851D1A7A140F20F104BE0A4480178BF
:109E1000032949D08078132846D02078242843D0BD
:109E2000252841D023283FD09EA14FF4897039E0E6
:109E30002078222838D0232836D89AA140F2191049
:109E400030E0207822282FD096A140F21D1029E082
:109E50002078222828D0242826D0262824D0272855
:109E600022D0292820D08FA14FF490701AE02078BA
:109E7000252819D08BA140F2271013E0207825283F
:109E800012D088A14FF495700CE0207825280BD0D3
:109E900084A140F22D1005E02078282804D081A16B
:109EA0004FF4987013F039FB257070BD7DA140F21E
:109EB0003310F7E730B50B8840F67B444FF6FF725E
:109EC000022801D0934204D09D1FA54224D202282B
:109ED00002D04D88954203D04D88AD1FA5421BD2BC
:109EE0004C88A34218D88B88B3F5FA7F14D2022885
:109EF00002D0C888904205D0C88840F677450A3815
:109F0000A84209D2C888904208D0944206D05B1C6F
:109F10006343B3EB800F01DB072030BD002030BD71
:109F2000F0B5644CA0423ED363494FF00057B842AD
:109F3000096801D3884236D3037933B1082B02D89C
:109F4000057B082D05D90720F0BD027B002AFAD039
:109F5000F6E733B10268A24225D3BA4201D38A425E
:109F600021D335B18268A2421DD3BA4201D38A42BD
:109F700019D300220AE0066856F82260A64212D3DE
:109F8000BE4201D38E420ED3521CD2B29342F2D8BB
:109F900000220CE0836853F82230A34203D3BB4273
:109FA00003D38B4201D21020F0BD521CD2B2954295
:109FB000F0D80020F0BD10B5028943F6FD73111FE3
:109FC000994212D2418904290FD3B1F5804F0CD8A0
:109FD00091420AD80178890705D5406818B1FFF782
:109FE0009FFF002800D1002010BD072010BDF0B554
:109FF0000024059D10B1A94203DC5FE009B90020EF
:10A00000F0BD0920F0BD055D8DB107197E78112ED8
:10A010003FD00FDC0A2E3CD2DFE806F03B162424AA
:10A020002A2A2C2C3333025D72BB641CE4B28C42AE
:10A03000F9DBE4E71C2E2CDAA6F11206042E28D256
:10A04000DFE806F027271018022DDAD1BD781D7041
:10A05000072D01D26D0701D40A20F0BD157845F017
:10A06000010515E0EE43F60707E0012D07D010E0EB
:10A070000620F0BD2E07A6F18056002EF5D06046D2
:10A08000F0BD1578AE0701D50B20F0BD45F00205F7
:10A090001570055D641C2C44E4B28C4210DDB0E701
:10A0A000680C00207372635C6761705F636F726538
:10A0B0002E63000000F00100280000204FF4485CEF
:10A0C0008C42A0DB9BE710B504784CB1012243F22F
:10A0D0000223012C07D0022C0CD0032C14D10FE04A
:10A0E00000220A7012E00A7082790324B4EB921FF6
:10A0F0000AD10BE00A708479B2EB941F04D105E019
:10A100000A708279920901D0184610BD50F8012FCB
:10A1100041F8012F80888880002010BD08B538B133
:10A12000F7A06B4600680090487903EB9010007828
:10A130001070086842F8010F8888908008BD30B51B
:10A140000C46097895B0222902D2082015B030BDFE
:10A1500028218DF80010ADF80200132A03D03B2A05
:10A1600001D00720F2E78DF8042009A9684603F022
:10A17000B9FC050003D121212046FFF72EFE284619
:10A18000E4E700B595B023218DF80010ADF802008A
:10A190001088ADF804005088ADF80600D088ADF8FE
:10A1A0000A009088ADF808000020ADF80C00ADF86A
:10A1B0000E0009A9684603F095FC15B000BD70B506
:10A1C0000C00064612D0FFF7CFFD050005D1AFF217
:10A1D0002C1140F22E3013F0A0F9A6802889E080DF
:10A1E0002889208168896081A889A08170BD70B5A7
:10A1F0000E46050003D00021092004F0F7F9C14CF8
:10A200000120022E207328D0032E05D0AFF26C114E
:10A210004FF4537013F081F9BA4806210D3003F062
:10A2200031FFA07C20F0C00084F81200FFF77BFD16
:10A23000A08B002821D0002D1FD0830001220021F7
:10A24000092004F018F9092817D0AFF2A811BDE8C9
:10A25000704040F2563013F060B9AA480321103024
:10A2600003F010FFA07C20F0C00040F04000A0747C
:10A27000A4480C3002F0ADFBD8E770BD7FB501A952
:10A28000022003F08BFD002850D0AFF2E81140F21D
:10A29000953013F042F949E0029C2078212845D0FE
:10A2A000A07F010728D504F122000090628EBDF83E
:10A2B0000400214604F1340301F0EBFC050006D054
:10A2C00011282CD0AFF2242140F2B23025E0A07F3B
:10A2D00020F00800A077E07F410861F3000094F8C7
:10A2E000201061F3C700E0772078282825D12921A4
:10A2F0002046FFF772FD20E0400717D5BDF80400A7
:10A30000214604F10E02FFF73CFF050009D0112899
:10A3100005D0AFF2702140F2C13013F0FEF80025F5
:10A320000BE0A07F20F00400A07706E001A803F076
:10A3300043FD0500B0D0052D02D0284604B070BD05
:10A340000020FBE72DE9F041040005D1AFF2AC217C
:10A3500040F2CF3013F0E1F820786A4D20F00F0082
:10A36000801C20F0F0007030207060680178091FB8
:10A3700011296BD2DFE801F0FD096A6BFC6A0EFC63
:10A38000FC486A6A6A6AFD9BFD00AFF2E8214FF45F
:10A39000767088E087883846FFF7E6FC060005D12E
:10A3A000AFF200314FF4787013F0B7F860782121E4
:10A3B00040F008006070A87F40F00400A8773046A5
:10A3C000FFF70BFDB07F00F00300012802D14FF62C
:10A3D000FF70A880384603F0CBF83846FCF796FFAC
:10A3E0003846FBF7C8FB3946022004F0FFF8B07F7F
:10A3F00020F01000B077FFF741FF002826D0AFF221
:10A400005C3140F2F7304EE085882846FFF7ACFC1F
:10A4100028B9AFF2703140F2014013F07EF8606865
:10A420008078012805D0AFF2843140F2034013F068
:10A4300074F860688179284603F0C3F9002805D0D4
:10A44000617841F0080161706168C880A5E4868880
:10A450003046FFF789FC050005D1AFF2B83140F274
:10A46000144013F05AF86078314640F008006070EC
:10A470006068C08828816068008968816068408958
:10A48000A881022004F0B2F80020A875A87F00F08F
:10A4900003000228DAD1FFF7F1FE0028D6D0AFF290
:10A4A000FC314FF48460BDE8F04113F036B8807899
:10A4B0003C2803D00026022814D000E00126002703
:10A4C00048B13C2807D0022805D0AFF2284140F21D
:10A4D0002D4013F022F83FB102263046BDE8F0418E
:10A4E00001F0A6B90127EBE76078A84640F0080024
:10A4F0006070A97F41F00801A9772EB10126ECE731
:10A500000302FF01680C002060688788384601F06C
:10A51000CEF905466068807901282FD00226A87FF1
:10A5200066F30100A8776168C98A29816168098B8F
:10A5300069816168498BA9816168C979E975616838
:10A540008A68AA618989A9836168897B6970616861
:10A5500051F80F2FC5F802208988E98000F0030127
:10A56000384602F0F2FFA87F00F00300012801E066
:10A5700006E00AE0B1D1A8F80470AEE70126CEE704
:10A580002046BDE8F04101F07EBE607840F0080052
:10A5900060705BE72DE9F047054600780027000969
:10A5A000DFF89CA691460C463E4601287ED000234B
:10A5B0004FF6FF7102287AD0072806D00A2877D0F4
:10A5C000AFF2205140F25F503AE1686802780D2AFC
:10A5D00038D006DC042A6CD0072A3DD00A2A69D17B
:10A5E00006E0122A3FD0132A47D0142AF7D1B9E047
:10A5F00011270726002C7AD0B0F80480A4F8048034
:10A6000068688079A0719AF81E10404621F0040114
:10A610008AF81E10042103F078FB0521404603F060
:10A6200074FB0021404603F070FB0121404603F01B
:10A630006CFB0321404603F068FB0221404603F017
:10A6400064FBFFE001270926002CD4D08088A0807D
:10A65000686880792072F5E012270E2680882146EE
:10A66000FFF7ADFDEEE01A270726002CC3D0408887
:10A67000A08068680079A071E4E081783C2939D035
:10A6800010271E26002CB6D08088A0806868C08A5B
:10A6900020836868C08AE0826868008B608368688D
:10A6A000408BA0836868417F607D04E072E09EE09B
:10A6B0006AE029E067E061F3000060756968A21D47
:10A6C000497F490861F3470060756968C8790831B6
:10A6D000FFF724FD696804F10D02887B0F31FFF755
:10A6E0001DFD6868807918B10120207507E07DE0C4
:10A6F0000220FAE719270726002C77D0A3719AF8D1
:10A700001E1021F0080192E01B272E26002C6DD090
:10A71000A1806968A21D481D0B7901461846FFF704
:10A72000FDFC686890F82B0060736868C0780428A6
:10A73000A07B14D020F00100A07369681F22C978A3
:10A7400061F34200A0736968C97A61F3C700A0731E
:10A75000696804F10F000C3112F012FE72E040F053
:10A760000100E9E71E270E26002C73D0A18068683F
:10A77000E21D407AA0716968C81C8B7801461846B2
:10A78000FFF7CCFC5EE04A4621462846BDE8F0478C
:10A7900001F024BF287A012806D0022816D0AFF293
:10A7A000FC6140F22D504BE01D270E26F4B1688865
:10A7B000A080A889E080E8892081288A6081688A51
:10A7C000A0819AF81E1021F0200130E012270E26F9
:10A7D0006888FFF7F4FC4CB1687800F007000328A4
:10A7E00030D19AF81E1021F0020120E032E0287AE0
:10A7F000062821D2DFE800F0040E0E030303C2E7AF
:10A800001927072634B3A180A3719AF81E1021F0EE
:10A8100001010CE019270726E4B1A180287A01285C
:10A8200008D00320A0719AF81E1021F010018AF8B8
:10A830001E1007E00220F5E7AFF2987140F2595080
:10A8400012F06BFEA9F800600CB127806680002032
:10A85000BDE8F087A9F80060F9E710B5F84894B0B2
:10A860008078132802D0082014B010BD22208DF863
:10A87000000009A9684603F035F9044600210720C5
:10A8800003F0B4FE2046EFE700B5ED4895B08078C0
:10A89000122801D0082090E41E208DF8000000202E
:10A8A0008DF802008DF8030009A9684603F01AF933
:10A8B0000028F0D10021072003F098FE1120FFF7B7
:10A8C00012FA002079E400B5DD4895B0007802283E
:10A8D00001D0032818D11B208DF82C0000208DF802
:10A8E0002E0069460BA803F0FDF8002804D19DF85E
:10A8F00001001B2801D003205FE40021084603F07B
:10A9000075FE9DF8020008B1082056E40120FFF70B
:10A91000D1F9002051E42DE9F0410027C84C0A2864
:10A9200073D2DFE800F0058A1C8A8A8A8A4840755B
:10A93000FFF7C9FF002836D1F9F727F8002832D0F1
:10A94000017821F00F01891C21F0F0012031017004
:10A950000772F8F7FAFFA07F40F0010022E08EB204
:10A960003046FFF701FA050005D1AFF6C80140F205
:10A970008D5012F0D2FD2878212814D0F9F705F86F
:10A9800090B1017821F00F01891C21F0F001103104
:10A990000170022101724680AF75F8F7D6FFA07FE3
:10A9A00040F00200A07751E529463046BDE8F0416D
:10A9B0001322FFF7C4BBA578122D09D0132D0AD09E
:10A9C000AFF6201140F2B550BDE8F04112F0A5BD40
:10A9D000FFF75AFF01E0FFF740FF0028E3D1F8F747
:10A9E000D4FF0028DFD0017821F00F01891C21F06D
:10A9F000F00120310170122D08D002210172F8F708
:10AA0000A4FFA07F40F01000CCE716E00121F5E79D
:10AA1000A07C0121B1EB901F01D1022108E0800947
:10AA200005D0AFF6801140F2D75012F076FD032129
:10AA3000BDE8F0410020FFF7DABBAFF6981140F215
:10AA4000DE50C1E72DE9F04114460D00074605D15F
:10AA5000AFF6B01140F2E65012F05FFD2878012801
:10AA600009D002282CD0AFF6C411BDE8F04140F265
:10AA7000176012F052BD3846FFF776F9060005D18F
:10AA8000AFF6E01140F2ED5012F047FD0220B07534
:10AA9000207820F00F00801C20F0F000103004F827
:10AAA000010B207840F0080004F8070B95E8070038
:10AAB00084E807006248817F41F020018177C5E486
:10AAC0003846FFF751F9060005D1AFF6282140F2CC
:10AAD000FB5012F022FDA9884FF6FF70814209D188
:10AAE000EA88824206D131463846BDE8F041132259
:10AAF000FFF725BB814201D1E88898B1207820F08A
:10AB00000F00801C20F0F000103004F8010B2078BA
:10AB100040F0080004F8070B95E8070084E80700F8
:10AB2000002006E0782300223946022003F0A3FC2F
:10AB30000120B0758AE44248408970472DE9FF4101
:10AB4000064692B098460D461846FAF72FF90028A7
:10AB500074D101248DF842404FF4C050ADF840004C
:10AB6000002210A92046FBF7B8FA002866D18DF81C
:10AB700042404FF42850ADF8400000271C2103A8A4
:10AB8000009712F096FC9DF80000ADF8305020F0D0
:10AB90000F00401C20F0F00010308DF800009DF8F0
:10ABA0000100ADF8327020F0FF008DF801009DF833
:10ABB0000200CDF82CD020F00600801C40F00100EF
:10ABC0008DF802009DF80C0001AA40F002008DF8FB
:10ABD0000C001F20ADF8340010A80A900AA90E96A8
:10ABE00003A8FBF76DF8002828D1154DBDF8040027
:10ABF00001AAE8808DF8424042F60120ADF84000FD
:10AC00009DF802000AA920F00600801C20F0010037
:10AC10008DF802000220ADF83000ADF8340014A821
:10AC20000E9003A8FBF74CF8002807D1BDF80400EC
:10AC3000288105F10A014046FAF7C8F816B005E484
:10AC4000680C002030B50C460146FF4895B08442A0
:10AC50003BD3FE48B4F1005F006801D3844234D393
:10AC6000002301222039062964D2DFE801F0032AFB
:10AC700045494F5C0021082003F091FC10B11120E0
:10AC800015B030BD24208DF80000D4F80200CDF8B6
:10AC90000200A0798DF8060009A9684602F022FF9B
:10ACA000050031D1082300221146184603F0E3FBCA
:10ACB000082829D0AFF6144140F28B6012F02DFC29
:10ACC00022E0616819B1814201D21020D8E73D200D
:10ACD0008DF800002088ADF802006088ADF804000F
:10ACE00009A9684602F0FEFE05000DD1606858B162
:10ACF000BDF82810018007E0206801F0B0FE02E0F6
:10AD0000204600F01EFE05462846B9E73E200BE02F
:10AD10008DF8022002E000BF8DF8023009A96846D4
:10AD200002F0E0FEEFE734208DF800002078C00745
:10AD3000F2D0EDE70720A3E710B50C46C34996B063
:10AD400009688C422ED32038052834D2DFE800F081
:10AD50000324242624002088FFF706F828B1007871
:10AD6000222805D2082016B010BD43F20200FAE7EF
:10AD700025208DF830002088ADF8320069460CA8F7
:10AD800002F0B0FE0028EED1DDF80610C4F8021083
:10AD90009DF80A10A171E6E70620E4E7206828B1D3
:10ADA000884201D21020DEE701F04EFEA848808BD9
:10ADB000A0800020D7E70720D5E7A54813307047CB
:10ADC00010B52021A24812F052FB0120FEF772FFBD
:10ADD0001120FEF788FF9E4C4FF6FF7004F10D0125
:10ADE000A0800020A0764FF46170A083481EF8F781
:10ADF0004AFEE068C4F81300208AA4F81700A07C7B
:10AE00006076FEF790FF28B1AFF6685140F21C70F3
:10AE100012F083FBBDE8104001F0E8B910B504461C
:10AE20003C2112F024FBA07F20F00300A07720201B
:10AE300020700020A07584F8210010BD70477CB5FB
:10AE4000064681480C46814206D3B4F1005F05D323
:10AE50007E480068844201D210207CBD7C4D16B132
:10AE6000012E33D127E0E8680090286978490190E5
:10AE70000C312046FFF727F90028EED1FEF753FFEB
:10AE800040B10099E960BDF8041029829DF80610D0
:10AE9000A9747CBD207808B1012807D1E868C5F8FD
:10AEA0001300288AA5F81700A87C687600210920DD
:10AEB00003F09CFB0FE0097841B1012906D002297B
:10AEC00006D0032904D043F202207CBD07207CBDBC
:10AED0000120FFF78CF9AE7600207CBD5B4900B500
:10AEE0000968884201D2102000BD594902460B7BF7
:10AEF0000D311846FFF712F9002000BD2DE9F04191
:10AF00009AB005004FF000008DF85C008DF85800F5
:10AF10008DF828008DF860004C48884614464A4950
:10AF200000681E464FF0005205D08D420AD395426C
:10AF300001D3854206D344B18C4203D3944204D357
:10AF4000844202D210201AB02DE555EA040018D030
:10AF50001F270AAB17AA414628460097FFF747F874
:10AF60000028F0D118AB16AA314620460097FFF70B
:10AF70003EF80028E7D19DF85800C00703D00A200A
:10AF8000E1E70720DFE701AF7DB11A208DF804006B
:10AF90008DF8068042462946F81C12F0F1F90BA9FB
:10AFA00001A802F09FFD0028CDD17CB120208DF8B2
:10AFB00004008DF8066032462146F81C12F0E0F9D4
:10AFC0000BA901A802F08EFD0028BCD120499DF8F4
:10AFD000280048700020B6E770B506460A200C46E7
:10AFE000087015461146204602F07CFD30B9392123
:10AFF00021702046294602F075FD20B1082801D1B4
:10B0000043F2032070BD2A462146304600F0C3FCBF
:10B010000446082805D1AFF6747140F6270012F0F7
:10B020007CFA204670BD2DE9F041044609A196B096
:10B03000D1E90001044B00279C42CDE914011CD347
:10B040004FF00055014809E000F001002800002001
:10B05000680C002007060504030201000268AC42E8
:10B0600001D3944209D32078012808D1616899421C
:10B0700003D3A94203D3914201D21020DEE5F8495F
:10B080000A78012A0CD18A88A2F57F43FF3B02D0BF
:10B0900030B1012804D08A7F12F00C0F07D101E0F3
:10B0A0000820CBE5D30702D18846910701D51120AE
:10B0B000C4E5218A43F6E173A1F120029A4207D345
:10B0C000012843D1002941D1628A002A3ED10FE0F4
:10B0D000022801D0032801D1A02937D3012807D0A5
:10B0E00098F80120D20703D0628A7AB3B42A2DD807
:10B0F00030B1012808D0022804D0032826D115E059
:10B10000002516E0022514E009B9608A60B1042523
:10B110006068007868B101280AD0022808D00328A6
:10B1200006D043F2022089E50125F1E7032500E07E
:10B130000127207A30B1012806D0022807D0032841
:10B1400064D106E0002605E0012603E05EE0022669
:10B1500000E003260DB1022D13D196B1E06818B1BD
:10B16000FEF7DEFE002889D198F80100800702D0A2
:10B1700043F2012062E5022D03D1022E46D0032EB8
:10B1800044D018208DF82C00208AADF82E00208A9B
:10B19000ADF830008DF8325098F80C1000204FF0C8
:10B1A000010811B1012962D102E08DF8330001E0FC
:10B1B0008DF833808DF83470217801291FD0CDF8B7
:10B1C000350000BFADF839008DF83C60207DC0F33C
:10B1D0004002014662F35F01C0F3800041EA800053
:10B1E00014A9085C8DF83B0080B169460BA802F0F9
:10B1F00079FC002897D15DB1022D09D011E060687B
:10B2000050F8011FCDF835108088DBE7072015E5E1
:10B210003EB1E06828B16A460BA9FFF7DDFE0028C1
:10B22000A8D11B208DF82C008DF82E8069460BA824
:10B2300002F058FC00289DD19DF801001B2816D172
:10B24000052D09D2DFE805F00303050503000320FF
:10B2500000E00220FEF72EFD012D0AD0608A40B1E9
:10B26000002283001146104603F005F908B10320BF
:10B27000E4E40020E2E42DE9F04186B00C008046D1
:10B280004FF0030609D07748844277D3B4F1005FCA
:10B2900003D375480068844270D34046FEF764FDCE
:10B2A000050005D02878222805D2082006B006E43B
:10B2B00043F20200FAE7A87F00F0030C2CB121460C
:10B2C0006046FEF7F7FD0600F0D100276448BCF1A8
:10B2D000010F09D0BCF1020F3AD0644940F6F310D7
:10B2E00012F01BF93046E1E7AA7D2146012A02D07F
:10B2F000827F920701D51120D8E721BB082104974E
:10B30000ADF81010CDF814D0418904AA4FF6FF70A3
:10B31000FBF7A5FA0028C9D1BDF81000082801D014
:10B320000320C3E7BDF80000ADF80800BDF8020037
:10B33000ADF80A00BDF80400ADF80C00BDF8060039
:10B34000ADF80E0002A9404602F0C3F90646C9E76F
:10B35000A97D022915D1807F800612D424B1A87F4F
:10B3600040070CD4002100E00121404602F0F8F92A
:10B370000600B7D1AF75002CB4D003E017E011265A
:10B38000B0E7A4B1224629464046FEF7FAFE06463B
:10B390001128A7D1A87F4107A4D4216845F80E1F22
:10B3A0006168696040F00400287400269AE7102064
:10B3B0007CE770B50C460546FEF7D6FC010005D0CB
:10B3C00022462846BDE87040FEF7B9BE43F20200AF
:10B3D00070BD00B500F1140195B0192901D28107A3
:10B3E00008D010F11E0F05D010F1280F02D0072051
:10B3F00015B000BD31218DF800108DF8020009A9AB
:10B40000684602F06FFBF3E701B582B00220ADF8A9
:10B410000000134802AB6A4600890021FBF794F84C
:10B42000BDF80010022900D003200EBD1CB500217C
:10B4300000910221ADF800100B4901900968884283
:10B4400001D210201CBD06486A4601894FF6FF70E4
:10B45000FBF705FABDF800100229F3D003201CBD4C
:10B46000680C002000F0010028000020A4A00000CB
:10B470002DE9FF410E46FF49174605468E4207D388
:10B48000FD484FF000529642006805D3864203D231
:10B49000102004B0BDE8F0811F2F01D90C20F8E77F
:10B4A000F64C8D4227D3954201D3854223D3E088C1
:10B4B00003A9FBF707F80028EBD128788DF80D00D9
:10B4C000E08803A9FAF7DFFF0028E2D100909DF899
:10B4D00000009DF80D1040F002008DF800000907F3
:10B4E00003D040F008008DF80000E0886946FAF7C4
:10B4F00066FF0028CDD1ADF80470E088334601AA7C
:10B500000021FBF721F8BDF80410B942C1D0032097
:10B51000BFE71CB50C460021009101912288D64955
:10B52000ADF800200190096808B1884201D38C422F
:10B5300001D2102093E700B152B1D0486A46C188C9
:10B540004FF6FF70FBF78BF9BDF80010218086E7FE
:10B550000C2084E70123FEF70BBC00231A46194692
:10B56000FEF706BC70B50446C24894B0844206D3C8
:10B57000B4F1005F06D3C0480068844202D21020B4
:10B5800014B070BD2046FEF716FD0028F8D1BB4868
:10B590008178112901D00820F2E7817FC90601D501
:10B5A0001120EDE71D218DF800102178002501F014
:10B5B00001018DF802102189ADF804106189ADF800
:10B5C000061021780126C1F340018DF80910007B97
:10B5D00018B1012804D00320D2E78DF8085001E00B
:10B5E0008DF8086009A9684602F07CFA0028C7D1E6
:10B5F0002078800707D5606828B109AA6946FFF757
:10B60000EBFC0028BCD11E208DF800008DF80260F4
:10B610008DF8035009A9684602F064FA0028AFD1FA
:10B62000A08900F080F90400AAD11220FEF75BFB8C
:10B630002046A5E72DE9F04305008F480C46164645
:10B640008C49006897B04FF0005205D08D420FD35F
:10B65000954201D385420BD38C4209D3944201D346
:10B66000844205D38E4203D3964205D3864203D249
:10B67000102017B0BDE8F083804FB87F10F0180F8E
:10B6800001D1400701D51120F3E72046FEF793FCD6
:10B690000028EED12078C0F34001294302D0800772
:10B6A00002D50DB10720E4E731460220FEF702FC87
:10B6B0000028DED1B878B946112803D0122801D06D
:10B6C0000820D6E74FF00208002714A9404602F0F0
:10B6D00065FB68B16AA140F2D72011F01EFF07E0B8
:10B6E0001598807F00F00301414501D17F1CFFB216
:10B6F00014A802F061FB0028F2D0032F01D304202C
:10B70000B7E799F802004F46122803D1FFF7BCF8BB
:10B710000028AED12078800707D5606828B109AA33
:10B720006946FFF759FC0028A3D121208DF80000BD
:10B730002089ADF802006089ADF8040020784FF050
:10B740000101C0F340008DF80600207882074FF019
:10B75000000015D42A7842B1012A09D0022A07D064
:10B76000032A05D043F2022083E78DF8070001E0A9
:10B770008DF8071055F8012F0292AA88ADF80C2019
:10B780003A7B1AB1012A04D0032072E78DF80E002B
:10B7900001E08DF80E103188ADF810107188ADF809
:10B7A0001210B188ADF81410F188ADF81800ADF89A
:10B7B0001610ADF81A0009A9684602F093F900289E
:10B7C0009ED1A08900F0AFF8040099D11320FEF7B4
:10B7D0008AFA20464DE730B50546274895B00C4615
:10B7E0000068814202D2102015B030BD2846FEF715
:10B7F000BBFA38B10178222902D3807F800604D4B5
:10B800000820F1E743F20200EEE713208DF8000074
:10B81000ADF8025009A9684602F064F90028E3D1A6
:10B820009DF92A107F2901D02170DDE70520DBE793
:10B8300010B51249012808D0022817D0BDE81040E1
:10B840000FA14FF4A67011F068BE0878032804D049
:10B850000BA14FF4A17011F060FE0021084602F028
:10B86000C5FEBDE810400120FEF724BA88781328F1
:10B8700014D00DE000F0010028000020680C00202A
:10B880007372635C6761705F636F72652E63000043
:10B89000AFF2140140F2471011F03FFE00210720E3
:10B8A00002F0A4FEBDE810401120FEF71CBA2DE9FD
:10B8B000F04104460122022102F000FA074601226B
:10B8C0000321204602F0FAF906460122052120460E
:10B8D00002F0F4F9054601220421204602F0EEF9B7
:10B8E00004462FB9AFF268014FF42F7011F015FE26
:10B8F0002EB9AFF2740140F2BD2011F00EFE2DB949
:10B90000AFF2840140F2BE2011F007FE2CB9AFF275
:10B91000900140F2BF2011F000FE22213846FEF7D0
:10B920005CFA3846B6E510B548B1830000221146EE
:10B93000072002F0A0FD072801D0032010BD002041
:10B9400010BD10B50446006858B13749884206D387
:10B95000B0F1005F05D335490968884201D2102053
:10B9600010BD01F064F8A088314CA083A07E0128AE
:10B970000FD10021092002F012FE00B10120A17CAC
:10B980000122B2EB911F01D1022100E00321FEF759
:10B990002EFC002010BD2DE9F047002592460C46F4
:10B9A0000646A8464FF001090B2721E0306850F801
:10B9B0002500007820B1012805D00720BDE8F087D8
:10B9C00084F8028001E084F80290306850F8250085
:10B9D00050F8011FC4F803108088A4F807002770EE
:10B9E0005146204602F07EF80028E7D16D1CEDB2EA
:10B9F0003079A842DAD800253A270FE0B068102243
:10BA000050F82510A01C11F0BBFC277051462046B1
:10BA100002F068F80028D1D16D1CEDB2307BA8424D
:10BA2000ECD80020CAE7000000F001002800002048
:10BA3000680C002030B5F94B9A4206D3B2F1005F92
:10BA400005D3F74B1B689A4201D2102030BD147801
:10BA5000C4F38203042B07D85578072D04D39378B9
:10BA6000102B01D8AB4201D2072030BDD3785B0741
:10BA700002D413795B0701D5062030BDC37F64086B
:10BA800064F30003C37710784309087863F3041064
:10BA9000087013789B0863F34300087050780873AC
:10BAA000002030BD30B500240C70C37803F00103D2
:10BAB0000B70C57805F002052B430B70C57805F0B7
:10BAC00004052B430B701470017901F00101117012
:10BAD000037903F0020319431170007900F00400A8
:10BAE0000143117030BD70B514460D460646F7F798
:10BAF0004CFF80B10178142221F00F01891C21F044
:10BB0000F001A03100F8081B214611F07EFCBDE8D1
:10BB10007040F7F71ABF29463046BDE8704013223F
:10BB2000FEF70DBB70B514460E460546F7F72DFF20
:10BB300070B1017821F00F01891C21F0F001203152
:10BB40000170458021880181BDE87040F7F7FDBE96
:10BB500031462846BDE870401322FEF7F0BA10B512
:10BB6000B04C94F8300000280FD104F120014FF6BA
:10BB7000FF72A1F11000FEF74DF818B1AAA1F32051
:10BB800011F0CBFC012084F8300010BD2DE9F04706
:10BB90008A46DDE9085906461C4617461421284600
:10BBA00011F087FC0021DFF87882C9F80010F8074F
:10BBB0000ED02068D8F80010884239D3123028609F
:10BBC0002068143068602068A8602168C9F80010F7
:10BBD000B80726D5606818B1D8F80010884227D376
:10BBE000BAF1000F09D070B106F1FC011030FEF778
:10BBF0006AFA00281DD1606812E0C8B1E860606888
:10BC0000C6F8F8000DE0FFF7D8F8016846F8FC1F09
:10BC10008188B1808079B071FFF7A1FF8148203021
:10BC2000E860780708D5A068D8F80010884202D2EA
:10BC30001020BDE8F08728610020FAE770B50546BE
:10BC400008780C4620F00F00401C20F0F001103165
:10BC500021700020607095F8210040B103280FD0BA
:10BC6000042811D070A140F2531011F056FC207836
:10BC70000121B1EB101F02D2E87FC008607070BDD7
:10BC800021F0F000203002E021F0F0003030207090
:10BC9000EDE730B595B00C462C2518998DF800507D
:10BCA000ADF80200B3B11868019058680290ADF881
:10BCB0000C2010220DF10E0011F062FB09A968465C
:10BCC00001F010FF002803D1A17F41F01001A177FE
:10BCD00015B030BD00200190E8E72DE9F04F064691
:10BCE000008A95B080B20D468246FEF73DF80446C4
:10BCF0004C4F3078283FDFF82C814FF0000B4FF08D
:10BD00002B090E2876D2DFE800F075FE070E507979
:10BD100099B7D8FDFCFBFAF915B0324621465046DA
:10BD2000BDE8F04FDFE6A07F00F00300012807D058
:10BD300000210022504601F0C1FF050007D101E0BB
:10BD40000121F6E738A140F2951011F0E6FB98F8D2
:10BD50005011090602D5D8F8540111E08DF82C9045
:10BD600069460BA801F0BEFE20B12FA14FF4D070A0
:10BD700011F0D3FB30490198B0FBF1F201FB120046
:10BD8000A8617068A862B068E8622078252804D0AD
:10BD900025A14FF4D37011F0C0FB32462146504626
:10BDA000FFF7A1FE15B0BDE8F08FA07F00F0030003
:10BDB000012807D000210022504601F07FFF060035
:10BDC00007D101E00121F6E717A14FF4D87011F077
:10BDD000A4FB2078252804D0307840F00100307092
:10BDE000E0E702202870B068A860B06818B185F854
:10BDF00004B0D7E7F5E101202871D3E709498DF8B0
:10BE000000902C39684601F06DFE20B106A140F289
:10BE1000CF1011F082FB03202BE0000000F00100A6
:10BE200028000020140D00207372635C6761705F4E
:10BE30007365632E6300000040420F002A208DF8D6
:10BE4000000010220DF10200716811F099FA102221
:10BE50000DF11200B16811F093FAFE49684601F045
:10BE600041FE28B1AFF240014FF4F07011F055FBE4
:10BE7000042028706F6095E7B06828B9AFF25801C8
:10BE80004FF4F67011F049FBE07F400705D5AFF2A3
:10BE9000680140F2ED1011F040FBB06806220A384C
:10BEA000009033790421504601F01FFA002897D002
:10BEB000AFF28C014FF4F97071E12CB9AFF2980137
:10BEC0004FF4FD7011F029FB04F122001022054609
:10BED000716811F055FA28212046FDF77EFFA07FFA
:10BEE00000F00300022813D100231A4621465046D1
:10BEF0000095FFF7CEFE112810D005E056E1AFE027
:10BF0000A5E081E026E059E029212046FDF765FF04
:10BF1000317AE07F61F3C700E07743E7A07F000755
:10BF200005D5AFF2FC0140F2072011F0F6FAA07F30
:10BF300040F00800A077A4F832B0C4F834B0C4F8D8
:10BF400038B0E07F014660F34101E177307A84F850
:10BF5000200027E7A07F00F00300012807D0002180
:10BF60000022504601F0AAFE040008D101E00121A0
:10BF7000F6E7AFF24C114FF4097011F0CEFA8DF8DC
:10BF80000090B449684601F0ADFD28B1AFF26811E8
:10BF900040F2292011F0C1FAAE48808824F8390F08
:10BFA0000E20287004F1C300686034F80909288263
:10BFB000A8486C613C30C5E90280F3E62CB9AFF2C9
:10BFC000981140F23D2011F0A8FA20782128A4D938
:10BFD0003079012802D002280AD103E0E07F40F046
:10BFE0000400E07798F8501141F0010188F85011F1
:10BFF000324621465046FFF776FD15B02046BDE893
:10C00000F04F2321FDF7E9BE01220421504601F043
:10C010004BFC00289DD0A07F00F00300012807D032
:10C0200000210022504601F049FE040008D101E041
:10C030000121F6E7AFF2102140F25B2011F06DFA1A
:10C040000F202870172028716E34AC60AAE60421F6
:10C05000504601F074FC0028AFD110202870A1E6F2
:10C06000A07F00F00300012807D0002100225046E5
:10C0700001F024FE050008D101E00121F6E7AFF24E
:10C0800058214FF41D7011F048FA95F83800410618
:10C0900046D5A17FC00701F003060ED0D5F8F410F5
:10C0A00059B195F83720087C62F347000874E27FA5
:10C0B000D5F8F41062F30000087495F83800000712
:10C0C0000ED5D5F8F00058B195F83720017C62F311
:10C0D00047010174E27FD5F8F00062F300010174BA
:10C0E00095F8380080070BD5D5F8F82042B1012E1D
:10C0F00006D095F8300005F131011032FEF70EF848
:10C1000095F83800C0060BD5D5F8F82042B1012EBD
:10C1100006D195F8300005F131011032FDF7FEFF30
:10C1200005208DF8000095F838008DF80100494889
:10C130006038027822F00F02921C22F0F0022032C6
:10C140000270427822F00702D21C4270A0F802A0CE
:10C15000BDF800100181F7F770FD207825280AD07E
:10C1600021280CD0AFF2403140F2B62011F0D5F9C1
:10C170002078222803D922212046FDF72EFEA07F19
:10C1800000F0030001280FD00021504601F0BDFD52
:10C1900000283FF425AEAFF2703140F2BE2015B05A
:10C1A000BDE8F04F11F0B9B90121EEE77468294DEF
:10C1B00020786035092803D00A287FF411AE09E001
:10C1C000E16811B12846F8F7DAFE216911B1284675
:10C1D000F8F7D5FE15B021462846BDE8F04FF8F730
:10C1E000CEBEAFF2BC3140F2E320D8E770B51948BB
:10C1F000072228216030F8F7A9FE164C00252C34C0
:10C2000094F8500120F0800084F85001C4F8545193
:10C21000FDF78DFC04F110012046F7F76AFC84F865
:10C22000305070BD70B50D46FDF79EFD040005D180
:10C23000AFF20C4140F2033011F06FF94FF482710C
:10C24000284611F036F9A07F00F00300012811D034
:10C25000022101E0E80C002005F18800FDF768FCF0
:10C26000002809D0AFF24041BDE870404FF4427061
:10C2700011F053B90121ECE770BD0A46014602F105
:10C280008800FDF76CBC70B5054640689AB001782F
:10C2900008290DD00B2903D00C2940D1012181712F
:10C2A000686886883046FDF75FFD040044D13DE0B4
:10C2B00046883046FDF758FD040005D1AFF298419D
:10C2C00040F21D3011F029F92078212827D02828A4
:10C2D00027D1686802210C3000F096FF08B3686827
:10C2E0000821001D00F090FFD8B12D208DF800002E
:10C2F000ADF80260102204F1220101A811F040F80B
:10C3000009A9684601F0EEFB28B1AFF2E44140F222
:10C310002F3011F002F929212046FDF75EFD1AB0F9
:10C3200070BD687840F008006870F8E7AFF2085117
:10C3300040F24A3011F0F1F8A07F00F00301022929
:10C3400002D120F01000A0772078212810D0686852
:10C35000817909B18078D8B1A07F00F0030002286C
:10C360006BD0AFF23C5140F2833000BF11F0D5F8F2
:10C37000A07F00F003000228D1D1FDF77FFF002845
:10C38000CDD0AFF25C514FF4647011F0C6F8C6E73F
:10C39000687840F008006870E07FC00701D0042092
:10C3A00000E0032084F821002078292819D02428CF
:10C3B000DED13146062002F019F922212046FDF790
:10C3C0000CFDA07F00F00300012834D0002130468E
:10C3D00001F09BFC0028CBD0AFF2B45140F2753095
:10C3E000C4E7A07F00F00300012807D0002100224D
:10C3F000304601F063FC050008D101E00121F6E7B9
:10C40000AFF2DC5140F2633011F087F8252120466D
:10C41000FDF7E3FC0D208DF8500014A905F188000C
:10C42000FDF794FB0228A3D00028A1D0AFF2086149
:10C4300040F26A309AE70121C9E7687840F00800C5
:10C44000687095E72DE9F04F87B090468A4681469F
:10C45000FDF78AFC050059D02878222856D32328D6
:10C4600054D0E87F400751D4A87F00F00300012892
:10C4700005D04FF0000205D14FF0010104E04FF06C
:10C480000102F8E74FF00001484601F017FC0646AC
:10C49000FB488346F8F76AFD040005D1AFF27861E6
:10C4A00040F2AB3011F039F87EB1883658466661FB
:10C4B000F8F75CFD07465846F8F758FD0646287819
:10C4C000222807D0242805D008E000200746064689
:10C4D000606103E025212846FDF77FFC09202070DC
:10C4E000C4F8209084F80480C4F808A0C4E9037656
:10C4F00069462046FDF74AFB022807D0002805D0F0
:10C50000AFF2DC614FF4737011F007F807B04AE442
:10C5100030B587B00446FDF727FC0546807F00F064
:10C52000030001280AD000210022204601F0C6FBAA
:10C5300004462878222820D944B901E00121F3E7F4
:10C54000AFF21C714FF4767010F0E7FF0F208DF8FA
:10C55000000017208DF8040004F16E000290694677
:10C560001A30FDF7F3FA022807D0002805D0AFF201
:10C57000487140F2DD3010F0D0FF07B030BD30B56B
:10C5800087B00446FDF7F0FB0546807F00F003000E
:10C5900001280AD000210022204601F08FFB04462A
:10C5A00028782228E9D944B901E00121F3E7AFF264
:10C5B000887140F2EA3010F0B0FF10208DF80000D2
:10C5C000694604F18800FDF7C1FA0028D5D0AFF222
:10C5D000A87140F2ED3010F0A0FFCEE72DE9F04752
:10C5E000054600270078904600090C463E46BA46AC
:10C5F00002287CD0072802D00A284CD14CE0686879
:10C600000178082908D00B2931D00C292FD0AFF29E
:10C61000E87140F22A404DE114271A26002C67D019
:10C620004088A080FDF7A0FB5FEA000905D1AFF6C6
:10C63000080140F2064010F070FF99F81700A21DA3
:10C6400009F11801FDF76AFD68688089E081686872
:10C650004168216180686061207E20F0060040F022
:10C660000100207699F81E0040F0400148E01827AC
:10C670000826002CD3D08088A080FDF775FB05002C
:10C6800005D1AFF65C0140F2254010F046FFA11D38
:10C690002846FFF7D3FA0FE10CB1288BA080287A47
:10C6A00001287DD0022806D003282FD0AFF68801BC
:10C6B00040F2AF40FEE01C270726002CAFD0A08838
:10C6C000FDF752FB5FEA000905D1AFF6A40140F285
:10C6D0003D4010F022FF287B00F003000128A079E4
:10C6E00011D020F00100A071297B890801E0D3E07E
:10C6F000B3E061F34100A07199F81E0040F08001A1
:10C7000089F81E10D8E040F00100ECE713270B2653
:10C71000002C84D0A088FDF727FB8146807F00F0A5
:10C720000300012807D00021A088002201F0C6FAEA
:10C73000050008D101E00121F6E7AFF614114FF42E
:10C740008A6010F0EAFE99F81E0000F0030001284C
:10C7500038D0E86A817801F003010129A17933D04A
:10C7600021F00101A1718278920862F34101A17167
:10C77000027862F38401A171427862F34511A171DC
:10C7800084F807A0C178217242790179607A530850
:10C7900062F3000063F34100920862F3820000E05C
:10C7A00015E06072A07A4A0861F3000062F341006C
:10C7B000890861F38200A07299F8000023287BD9D0
:10C7C0002621CCE0A86AC5E741F00101CAE72C495F
:10C7D000287B01223439022811D017270C26E4B314
:10C7E000012811D003281DD004281ED005281CD0F4
:10C7F000AFF6CC1140F29B4010F08FFE21E01927DC
:10C8000007265CB3A27104E0A271E07920F0030076
:10C81000E07191F850014208520062F3060081F87D
:10C8200050010EE00220A07107E0697B052801F0AD
:10C830000F0141F08001A17124D0E07920F00300C4
:10C84000E071A088FDF790FA05460078212833D0E2
:10C85000232808D0AFF6302101E018E02CE040F2A8
:10C86000A74010F05AFEA87F00F00300012811D065
:10C870000021A08801F049FA2221284670E000003A
:10C88000480D0020E07920F00300401CD8E7A8F80C
:10C89000006016E00121ECE70CB16888A080287ADE
:10C8A000032833D004280FD005285CD0AFF68821A8
:10C8B0004FF4A06010F031FEA8F800600CB12780A2
:10C8C00066800020BDE8F08715270C26002CDED0FE
:10C8D000A088FDF749FA807F00F00300012807D007
:10C8E0000021A088002201F0E9F9050008D101E04B
:10C8F0000121F6E7AFF6D02140F2C64010F00DFE60
:10C900000622A11DA86907F0B2FAD5E71627072667
:10C91000002CBCD0A088FDF727FA8146807F00F06C
:10C920000300012807D00021A088002201F0C6F9E9
:10C93000050008D101E00121F6E7AFF6143140F21D
:10C94000D44010F0EAFD2878C00601D5022000E0AE
:10C950000120A07199F800002328ADD9272148466D
:10C96000FDF73BFAA8E717270C26002C8FD0A088EC
:10C97000FDF7FAF96D7A5FEA000905D1AFF6583193
:10C9800040F2E74010F0C9FDC4F806A0A4F80AA0E0
:10C9900084F806A0207A40F00300207299F81F1056
:10C9A00061F382002072680686D5E079EA0840F0DB
:10C9B0000400E071E07AA17A62F3000065F30001FF
:10C9C0006A0862F34101A172290961F34100E07232
:10C9D00072E730B504468079012591B0B5EB901F20
:10C9E00005D0AFF6BC3140F2195010F096FDFFF7BC
:10C9F000B6F84FF6FF700890FF480190201D029096
:10CA0000601C0B908DF800500AA96846FDF7BEF82F
:10CA100028B1AFF6EC3140F2245010F07EFD0B98B7
:10CA20000188A4F801108078E07011B030BD10B515
:10CA3000F14C203C28B101461022EF4810F0A0FC38
:10CA4000012084F8300010BD10B50446FFF787F8C8
:10CA50002046BDE810401022E74910F091BC70B5A7
:10CA6000E54C0025203CE8B1E449884206D3B0F10A
:10CA7000005F05D3E2490968884201D210250FE022
:10CA8000062107F0DBF9411C09D0C4F8540194F8E1
:10CA9000500140F0800000BF84F8500100E00725FD
:10CAA000284670BD94F8500120F08000F4E72DE98D
:10CAB000F0438DB00D0081464FF0000809D0CF48FB
:10CAC00085421CD3B5F1005F03D3CD480068854291
:10CAD00015D34846FDF748F9060003D030782228E0
:10CAE00015D104E043F202000DB0BDE8F08345B972
:10CAF000B07F010603D500F00300022801D010200A
:10CB0000F2E7B07FC10601D4010702D50DB10820BC
:10CB1000EAE7B949203991F85011C90717D1F17FD7
:10CB2000490701D50D20DFE700F0030001280CD0F4
:10CB300000210122484601F0C1F8070007D0B07F6C
:10CB400000F00300022804D00CE00121F1E71120DD
:10CB5000CAE73DB12A4639463046FEF76BFF5FEA29
:10CB60000008C1D1A4481430F8F700FA040005D138
:10CB7000AFF64C5140F2AC5010F0CFFC0A202070C0
:10CB800007F18800C4F82090A060B07F00F0030097
:10CB9000012825D0BDB302202071381DE06038780F
:10CBA00004AAC0F3420020743878C0F30010607407
:10CBB000287800F00101A07C61F30100A074F17FEE
:10CBC00061F38200A074A878E07403A92846FEF7F8
:10CBD00069FF9DF8100020759DF80C00607517E046
:10CBE00001202071287800F00101207B61F3010011
:10CBF00020732978490861F382002073242130468C
:10CC0000FDF7EBF80CE0FFE703202071052020730F
:10CC100025213046FDF7E1F8B07F20F08000B077A5
:10CC200006A92046FCF7B2FF022806D028B1AFF6CD
:10CC3000086140F2D75010F070FC404654E72DE9EF
:10CC4000FF4F93466F4A0F4697B09A4607CA0CAB00
:10CC5000002683E80700039600961798FDF784F8EE
:10CC6000050006D02878262806D008201BB0BDE88D
:10CC7000F08F43F20200F9E7A87F00F003000128DB
:10CC800007D000210022179801F018F8040008D1FD
:10CC900001E00121F6E7AFF6706140F20E6010F09E
:10CCA0003CFCA87F00F003008146012815D0B9F1B3
:10CCB000020F24D0AFF6906140F2276010F02DFCF7
:10CCC00001220021852F30D01DDC37B3812F26D0E3
:10CCD000822F26D0832F1ED125E0002FF0D15A4677
:10CCE00021462846FEF7A6FE0028BFD19BF8020089
:10CCF00000909BF8000000F001000390E0E7BBF11A
:10CD0000000F08D1DCE7862F11D0882F11D0892F92
:10CD100011D08A2F11D00720A8E708460EE0104650
:10CD20000CE002200AE0032008E0052006E00620CF
:10CD300004E0082002E0092000E00A2021718DF8BB
:10CD40003C20221D109208B1207101E1B9F1010FC0
:10CD50000CD0D4E90A708046022201200021A16093
:10CD600005F1170102281AD0012019E0D4E90A8739
:10CD70000122022003233B702378C3F300137B704E
:10CD8000BB78DDF800C087F803C0DDF80CC023F0E5
:10CD900004036CF30103BB7079713971DEE7002085
:10CDA00004EB80000161681C022A01D0012100E02F
:10CDB000002104EB81010861B87800F0030001282C
:10CDC00068D198F8020000F00300012862D198F8B9
:10CDD0000400019098F805000090B9F1010F27D0E8
:10CDE00038798DF8200078798DF828009DF820207A
:10CDF0000198024008E00000340D002000F001001E
:10CE00002800002070D701009DF82800009900EA52
:10CE1000010B52EA0B003DD0F8498A4506D3BAF11E
:10CE2000005F15D3F64909688A4511D210201DE725
:10CE300008AA0AA95846FEF735FE9DF82000019978
:10CE4000084038719DF82800009908407871CDE7B6
:10CE500004F1F00104F13C00B9F1020FCDE9000149
:10CE600034D000210AF10C032046FEF78FFE002883
:10CE7000DDD104F1F40104F15000B9F1010FCDE965
:10CE8000000125D0002153465A462046FEF77EFE7B
:10CE90000028CCD198F80200400702D4E87FC007F0
:10CEA0002BD00CA8B9F1010F14D098F8001030F86D
:10CEB00011002178C1F342014900C84010F0030677
:10CEC00027D0012E14D0022E0FD113E00121C9E783
:10CED0000121D8E72178C1F3420130F8110098F818
:10CEE00000104900C84000F00306032E04D004E0FF
:10CEF00002260EE001260CE00226B9F1010F08D14E
:10CF0000E87FB97860F38201B9702078C0F34200FD
:10CF100038702078EF2220F00100207098F801107E
:10CF200001F0010142EA011108402070C00622D43C
:10CF3000022E20D0012E20D00020A061E0612062CE
:10CF4000606204F11800A060E87F20F00100E8773B
:10CF50000FA904F18800FCF7F9FD30B1022804D0D4
:10CF6000A8494FF4DE6010F0D8FA25212846FCF7D6
:10CF700034FF00207AE6032008E00D2104F11B00B5
:10CF800010F075FA04F11800A06004208DF8580024
:10CF9000E87F16AA40F00100E87729461798FEF7C7
:10CFA000C1FDD5E7F0B587B015460F0004460CD09B
:10CFB0009248854206D3B5F1005F06D390480068D9
:10CFC000854202D2102007B0F0BD2046FCF7CCFE0F
:10CFD000060004D03078272804D00820F3E743F275
:10CFE0000200F0E7B07F00F00300012807D0002125
:10CFF0000022204600F062FE040007D101E001217A
:10D00000F6E7804940F20F7010F087FA00202FB148
:10D01000022F08D0012F11D00720D4E701218DF86D
:10D020000410A06018E004F11803A3608DF8040058
:10D0300010222946184610F0A3F90DE004F118015A
:10D04000A1608DF80400A061E061206260620621A9
:10D05000284606F0F3FEA0612078C10714D020F026
:10D060000100207002208DF8000004F118000290E9
:10D0700069467030FCF76AFD022805D020B161498D
:10D0800040F2327010F049FA25213046FCF7A5FE37
:10D09000002098E7F8B515460E460746FCF764FEF3
:10D0A000040004D02078222804D00820F8BD43F2E0
:10D0B0000200F8BDA07F00F00300022802D043F276
:10D0C0000500F8BD4D4886420ED34FF000524C4942
:10D0D000964202D30B689E4206D3854204D3954202
:10D0E00004D30868854201D21020F8BD009532882B
:10D0F000B31C21463846FEF7CCFD112810D000287D
:10D10000F3D12A7CE17F62F30001E1772A7C5208A7
:10D1100062F3C701E177A17F21F08001A177F8BD1B
:10D12000A17F0907FBD4D6F802006063D6F8060099
:10D13000A063308860861022294604F1220010F096
:10D140001FF9287CE17F60F34101E177287C4008EA
:10D1500084F82000A07F40F00800A0770020DAE7E4
:10D1600070B594B00D46064613B1072014B070BDDB
:10D17000FCF7FAFD040007D02078222802D3A07F14
:10D18000400604D40820F1E743F20200EEE7A5B11F
:10D190002D208DF80000ADF802601022294601A86C
:10D1A00010F0EEF8297CE07F61F30000E077297C45
:10D1B000490861F3C700E07704E02E208DF80000F5
:10D1C000ADF8026009A9684600F08CFCA17F21F04F
:10D1D0004001A177CAE710B50C46FCF7C5FD28B1A0
:10D1E000074909688C4204D2102010BD43F20200A6
:10D1F00010BD2146FEF722FD002010BD00F0010009
:10D200002800002028BE000005E000BF10F8012B18
:10D210000AB100207047491E89B2F7D20120704739
:10D2200030B50346072903D00620DA781C7913E0CD
:10D230000320FAE703EB420507296D7908D0072D93
:10D2400001D0401EC0B2521CD2B2092A04D102E061
:10D25000072DF6D0F7E70022641EE4B2EAD230BD13
:10D260002DE9F0470C46DDE90875804699461646DB
:10D2700011462046FFF7D4FFC0B12079092803D317
:10D28000FEA1A02010F049F9A07800061AD4A5F854
:10D290000080381D6880002068712871EF80A5F833
:10D2A0000890284600F044FC60B907E0072E02D041
:10D2B0001120BDE8F08743F20400FAE7EFA1AD20AA
:10D2C00010F02BF9E07821790844491CC0B2217193
:10D2D000092801D30938C0B204EB400046718179B6
:10D2E00021F00F0181710020E3E72DE9FC41164692
:10D2F0000F461C46804600220321089D00F0DEFCFC
:10D30000010008D033463A464046CDE90045FFF7D4
:10D31000A7FFBDE8FC8143F20200FAE72DE9F047E0
:10D32000054616460F4650888EB00022032100F0B5
:10D33000C5FC040003D1D1A1DF2010F0EEF84FF0BE
:10D34000000A8DF804A0A078400603D1CBA1E32009
:10D3500010F0E3F8042F52D3297841F30000401C69
:10D3600006D162786B789A4249D12278120746D06A
:10D3700001224FF00208142939DA4FF6FF7901290A
:10D3800033D0122902D0132931D11CE00C2F2ED119
:10D39000A17801F07F01012929D0207820F00F0029
:10D3A000401C2070687860708DF80420A888ADF863
:10D3B0000800E888ADF80A002889ADF80C006889F3
:10D3C000ADF80E0016E0062F11D1207820F00F00E6
:10D3D00020707188012001F009F98DF80480ADF802
:10D3E0000890A888ADF80A0004E0062F09D09DF83F
:10D3F0000410B1B17088324601A9FDF723FB0EB0CD
:10D4000057E7207820F00F0020707188012001F08C
:10D41000EDF88DF80480A888ADF80800ADF80A9002
:10D42000E8E70028EBD070888DF81A2069788DF82D
:10D430001B1004A9ADF81C8005220091ADF81EA0B8
:10D4400006231146FFF751FF0028D8D090A1D6201F
:10D4500010F063F8D3E7F0B50E46074601468DB0ED
:10D4600015463046FAF70AF9C0B208284FD1002015
:10D47000ADF82C0068880022032100F01FFC040096
:10D4800004D17EA14FF4B17010F047F801230021C0
:10D49000E07822790DE000BF04EB400C9CF805C059
:10D4A0009C4501D1491CC9B2401CC0B2092800D119
:10D4B0000020521ED2B2EFD211B91720ADF82C00C5
:10D4C0000DF112030BAA394630460095F8F7C9FB57
:10D4D00010F0FF0007D002281BD0032817D067A147
:10D4E0004FF4C47011E0BDF82C0000280FD002A941
:10D4F000CDE900016888042301222146FFF7B0FE30
:10D50000002804D05DA140F2751010F006F80DB0AF
:10D51000F0BD687840F010006870F8E700206149BD
:10D52000024600BF21F81020401C0828FAD370479B
:10D53000817821F0FF018170017821F00F010170E5
:10D5400000214170C1700171704770B50D46002215
:10D55000032100F0B3FB040004D148A14FF4E770AD
:10D560000FF0DBFFA07865F30600A07070BD704778
:10D570000146012001F03AB83EB58DB200220321E8
:10D58000284600F09BFB040004D13CA140F2E310CC
:10D590000FF0C3FF2078002220F00F00207002203F
:10D5A0008DF800004FF6FF70ADF80400ADF80600EE
:10D5B00069462846FDF746FA3EBD2DE9F04105468D
:10D5C0000C4600270078012190463E46B1EB101F23
:10D5D00004D02AA14FF4F9700FF09FFF287A032896
:10D5E0000CD026A14FF402700FF097FFA8F800604E
:10D5F0000CB1278066800020BDE8F081EA897027A1
:10D6000002F10A0086B254B16888A080A8892081FE
:10D61000E28004F10A0029690FF0B2FEE6E7A8F8FB
:10D620000060E8E72DE9F04143680246981D5C88F8
:10D63000D9881D89241FA142DED11B79022BDBD1A1
:10D64000042D36D0052D40D0062D36D0402DD3D315
:10D65000061D0F461446284600F008FA0828CBD0CD
:10D66000207820F00F00401C20F0F00010302070D7
:10D6700003202072A581E781266115E07372635C47
:10D680006C326361705F636F72652E63000000002F
:10D690007372635C6C326361705F636F72652E637B
:10D6A000000000006C0E0020607840F00800607000
:10D6B000A2E7BDE8F041001DCDE6031D5088BDE89E
:10D6C000F0410A461946FEF7BDBEBDE8F041001D17
:10D6D00024E670B50D468CB006460022032100F00A
:10D6E000EDFA040037D0207800F00F00012835D083
:10D6F00012208DF81200607802A9801C8DF81300AA
:10D700000820ADF814002888ADF816006888ADF838
:10D710001800A888ADF81A00E888ADF81C000C20A5
:10D72000CDE9000105231A4621463046FFF798FD52
:10D7300000280ED1F02300223146012000F09BFE8C
:10D74000207820F00F00401C20706078801C6070F2
:10D7500000200CB070BD43F20200FAE71120F8E798
:10D7600070B50D468CB006460022032100F0A6FAE3
:10D77000040006D0207800F00F00012804D0082013
:10D78000E7E743F20200E4E713208DF81200607827
:10D790008DF813000220ADF81400ADF8165002A960
:10D7A0000620CDE9000105231A4621463046FFF741
:10D7B00057FD0028CDD1207820F00F0020700020E8
:10D7C000C7E72DE9F0470D4681460022032100F00E
:10D7D00075FA04004FF0000605D1AFF2601140F277
:10D7E000AD200FF09AFE2079A8423BD2AFF274111F
:10D7F00040F2AE200FF091FE34E0E07804EB4007F9
:10D80000401CC0B297F80580E070092801D10020C3
:10D81000E0702079401E2071B879C00708D04846D2
:10D82000B8F1040F16D0AFF2981182200FF075FEF8
:10D83000B97911F00E0F09D0C1F34201484604290D
:10D840000BD0AFF2B4118F200FF067FEB8F1070FC5
:10D8500008D105E0FEF793FEEAE7FEF759FEF5E78B
:10D86000761CF6B26D1EEDB2C7D2304621E510B57A
:10D870000022032100F022FA040005D1AFF20421B6
:10D880004FF435700FF049FEE07821790844C0B2BA
:10D89000E070092801D30938E07000202071A078D9
:10D8A00040F08000A07010BD2DE9F04117460D46F4
:10D8B0000022032100F002FA040003D05DB13FB161
:10D8C000062006E0072D01D0062095E6032093E60A
:10D8D0000820A84205D8AFF25C2140F2EF200FF0FB
:10D8E0001CFE29462046FFF79BFC06462FB326BBAD
:10D8F000E078217919E000BF04EB40025379072B4F
:10D9000003D0937913F00E0F04D0401CC0B2092845
:10D9100008D008E004EB4000807965F34300907183
:10D9200059B904E00020491EC9B20029E4D1AFF280
:10D93000B42140F207300FF0F0FD30465CE62DE9EF
:10D94000F0410D460022032100F0B8F9040005D192
:10D95000AFF2D82140F215300FF0DFFD681E052828
:10D9600005D3AFF2E82140F216300FF0D6FD0921C1
:10D97000E2782079002310E004EB42067779AF4289
:10D9800006D1B1795B1C21F00101B171DBB2114606
:10D99000521CD2B2092A00D10022401EC0B2EBD2E2
:10D9A000092905D204EB4100817941F0010181711F
:10D9B000184621E610B50446402801D2072010BDC4
:10D9C00000F054F8082802D04FF4445010BD002154
:10D9D0002C4802E0491C082903D230F81120002A03
:10D9E000F8D1082903D020F81140002010BD0420F0
:10D9F00010BD10B5402801D2072010BD00F036F848
:10DA0000082805D01F4A002122F81010084610BD32
:10DA1000052010BDF0B58BB016460C00074606D0A9
:10DA20002EB16188402904D207200BB0F0BD102030
:10DA3000FBE7208808B1172801D90C20F5E7084634
:10DA400000F014F808280FD0258831462A460DF139
:10DA50000E000FF095FC01A8009062882B4607216C
:10DA60003846FFF742FCE0E70520DEE701460020EC
:10DA7000044A02E0401C082803D232F810308B42DE
:10DA8000F8D170476C0E00201E2829D00FDC0C281E
:10DA900022D008DC092823D2DFE800F01322152267
:10DAA000221C1C181A0012281AD10720704730288F
:10DAB00016DDA0F13A00032812D2DFE800F00F11C2
:10DAC00009000020704743F20200704704207047AD
:10DAD0000D2070470F2070470820704711207047B5
:10DAE0000320704710B50C4604F06BF9E8B12046EE
:10DAF00002F046FFB0B122780E2A0DD00F2A0BD0CB
:10DB0000022A09D0032A07D0102A09D00BA17E20AF
:10DB10000FF003FD002010BDA078BDE81040B3E772
:10DB2000112010BD05A18420F2E704A18A20EFE7AF
:10DB300002F0D9BD02F024BF02F04FBE7372635CE5
:10DB4000686F73745F6863692E6300002DE9F041AC
:10DB500006AC054694E8C100E24C21706270A370E7
:10DB6000E0702771681C667120F0010200214FF6F9
:10DB7000FF7600BF04EB81031A62605C02EB400297
:10DB80004DB1002004E01F6A27F81060401CC0B2AD
:10DB9000675C8742F7D8491CC9B20629EAD3002638
:10DBA000D21C04EB860022F003078760304600F0A9
:10DBB0002BF9A15D761C00FB0172F6B2062EEFD3A5
:10DBC000501B80B2BDE8F081F0B50446C54D002081
:10DBD00005EB8406FF2302464FF6FF772C5D0BE032
:10DBE000356A35F81250BD4204D1401CC0B2FF2B3B
:10DBF00000D11346521CD2B29442F1D8002800D072
:10DC00000B70F0BD70B5B74C0023655CA678B542CB
:10DC100000D1034604EB81019D420AD90C6A34F815
:10DC20001340844202D11370012070BD5B1C9BB273
:10DC3000F2E7002070BD2DE9FE431F460A9C904686
:10DC40000D46060008D03DB1F01C20F00300B042A4
:10DC500004D01020BDE8FE830E20FBE7A04501D8CC
:10DC6000A74201D90720F5E70094019423463A46DC
:10DC7000414600200294FFF769FF2988814208D0BD
:10DC800002D24FF0040101E04FF00901288008465C
:10DC9000E0E70094019423463A4641463046029418
:10DCA000FFF754FF28800020D4E710B5044600F0A9
:10DCB000B3F808B1E0B210BDFF2010BDF8B50546BD
:10DCC000A0F57F4016460C46FF3801D0062C01D344
:10DCD0000020F8BD002728468DF800706A46FFF73F
:10DCE00091FF70B19DF80010204600F09DF8002EC5
:10DCF000EFD00028EDD121462846BDE8F84000F0DD
:10DD00009FB83846002EF6D1F8BDF8B5054600207C
:10DD10004FF6FF760C468DF8000043F20207B5423D
:10DD20003AD0062C01D30720F8BD6A462846FFF7F3
:10DD300069FF80B39DF80010204600F075F8062CAE
:10DD40001BD2DFE804F00303080B10150146284638
:10DD5000FEF793FA15E0FDF771F812E00146284648
:10DD6000FFF705FC0DE001462846F7F7FEFE08E048
:10DD700001462846F9F7C5FA03E05BA182200FF0BF
:10DD8000CCFB58499DF8000001EB8401096A21F899
:10DD900010600020F8BDFFE73846FBE7564A1268DE
:10DDA000914201D210207047062801D30720704706
:10DDB000087200204872704770B504464E480068EB
:10DDC000844201D2102070BD207A464B617A03EB69
:10DDD00080024FF6FF751B5C11E0166A36F8116081
:10DDE000AE420AD04B1C6372126A32F811202280B4
:10DDF00000F01AF86060002070BD491CC9B28B4267
:10DE0000EBD86172052070BD0EB53C4B0ECB8DE892
:10DE10000E003DF810000EBD32498978814201D9CB
:10DE2000012070470020704770B50C460546FFF78B
:10DE3000EBFF2C4901EB8501896804FB001070BDE4
:10DE4000F8B5044600208DF8000006460D46204631
:10DE5000FFF7E2FF18B924A1F9200FF05EFB21487B
:10DE6000204A415D807802EB850781420AD1E0B209
:10DE70008DF80000396A31F81000A0F57F41FF39B4
:10DE800005D02DE069462846FFF79EFE00B39DF8B9
:10DE90000000396A21F810409DF800102846FFF76D
:10DEA000C3FF0646062D17D2DFE805F00303080B73
:10DEB0000E1331462046FEF7B5F911E0FCF7AEFF30
:10DEC0000EE0FFF735FB0BE031462046F7F70FFE7B
:10DED00006E0F9F711FA03E003A168200FF01DFB3B
:10DEE000304657E77C0E00207372635C686F737472
:10DEF0005F636D2E63000000280000207CD70100C6
:10DF0000CE4911F8210F4978884201D3401A02E026
:10DF1000C1F121010844C0B27047C849233111F84A
:10DF2000210F4978884201D3401A02E0C1F1210152
:10DF30000844C0B27047C149463111F8210F4978F1
:10DF4000884201D3401A02E0C1F121010844C0B265
:10DF50007047BB4910B5402081F80004B749002044
:10DF6000233101F8210F4870B44901F8210F48709E
:10DF7000B249463101F8210F4870B24806F079F9EC
:10DF8000B048401C06F075F9F6F792FBBDE810406A
:10DF900000F048B920207047B2E770B50C4605463E
:10DFA0000026FFF7ADFF0146A448A14212D300228C
:10DFB000641EE4B20DD390F82210435C491CC9B230
:10DFC00005F8013B80F822102129F1D180F82220A8
:10DFD000EEE7012600F026F9304670BD202070479C
:10DFE0009BE770B50C4605460026FFF796FF0146F5
:10DFF00092482330A14212D30022641EE4B20DD312
:10E0000090F82210435C491CC9B205F8013B80F826
:10E0100022102129F1D180F82220EEE7012600F01C
:10E0200001F9304670BD202101700020704710B505
:10E030000446FFF780FF2070002010BD70B50C462D
:10E040000546FFF778FF01467C484630A14213D3CE
:10E050000022641EE4B20DD390F82210435C491CE8
:10E06000C9B205F8013B80F822102129F1D180F8CE
:10E070002220EEE7002401E042F2070400F0D2F88B
:10E08000204670BD70B50C460546212904D96EA105
:10E090004FF4A3700FF041FA6F480068103840B297
:10E0A00000F0A7F8C6B20D2000F0A3F8C0B2864277
:10E0B00008D265A14FF4A6700FF02FFA02E000BF5E
:10E0C000F6F744FB21462846FFF767FF0028F7D004
:10E0D00070BD2DE9F047DFF86C81584CA8F10108BC
:10E0E0000746233498F80000DFF85091002604F129
:10E0F000230A38B994F8221094F82100212200F064
:10E1000087F890B14D4699F8221099F82100212204
:10E1100000F07EF8B8B155469AF822109AF821001E
:10E12000212200F075F848B335E094F82100275417
:10E1300094F82100401CC0B284F8210021282AD183
:10E1400084F8216027E095F821002F5495F82100EC
:10E15000401CC0B285F82100212801D185F821603A
:10E1600098F800004746B0B195F8221095F82100C4
:10E17000212200F04DF870B13E700CE095F82100BE
:10E180002F5495F82100401CC0B285F821002128A9
:10E1900001D185F8216094F8221094F82100212201
:10E1A00000F036F8002822D099F8221099F82100C2
:10E1B000212200F02DF8002819D09AF822109AF8A0
:10E1C0002100212200F024F8002810D0F6F799FA57
:10E1D0001C4806F056F8B0F5005F03D01FA1C1201F
:10E1E0000FF09BF9BDE8F047164806F060B8BDE8AF
:10E1F000F087002806DA00F00F0000F1E02090F828
:10E20000140D03E000F1E02090F80004400970478D
:10E21000401C884204D0904200D109B100207047D0
:10E220000120704710B5074806F02BF8002803D1ED
:10E23000BDE81040F6F750BA10BD0000D40E002023
:10E240000DE000E0690000207372635C736F635F30
:10E2500072616E642E63000004ED00E07372635C13
:10E26000736F635F72616E642E6300002DE9F04787
:10E27000F94C0646FF21606800EB06121170217808
:10E28000FF2916D04FF0080909EB011109EB061719
:10E290004158C059491E21F07F4100F001FA18B1E0
:10E2A00094F80080454614E06168207801EB06117F
:10E2B00008702670BDE8F087626809EB0510D15937
:10E2C000105800F0EDF930B96068A84600EB08106E
:10E2D0000578FF2DF0D1606800EB061100EB081007
:10E2E0000D700670E6E7F0B5DB4B04460020012513
:10E2F0005A680C261B7A0BE005EB0017D75DA74286
:10E3000004D106EB0017D7598F4204D0401CC0B28D
:10E310008342F1D8FF20F0BD2DE9F041CE4C2578A5
:10E3200001F07BFF0146FF2D6FD04FF008086268B7
:10E3300008EB0516905900F0B3F90228606801D97E
:10E3400080595EE000EB051109782170022101EB94
:10E350000511425C5AB1521E4254815901F5000127
:10E3600021F07F4181512846FFF780FF34E00423EC
:10E37000012203EB051302EB051250F803C0875C82
:10E38000BCF1000F10D0BCF5806F10D9CCF309029E
:10E3900050F806C00CEB423C2CF07F4C40F806C015
:10E3A000C3589A1A920A09E0FF2181540AE082595F
:10E3B00002EB4C3222F07F42825100224254284626
:10E3C000FFF754FF0C21606801EB05114158E0682C
:10E3D00050F82720384690472078FF2815D001F0C4
:10E3E0001CFF01462278606808EB021245468058FF
:10E3F00000F056F9012891D92178606805EB0111E8
:10E400004058BDE8F04101F0FFBEBDE8F0812DE9C4
:10E41000F0411C4615460E460746FF2B03D38FA13D
:10E42000D3200FF07AF88C48FF210022C7604560A6
:10E4300004720674017042701046012205E000BFAC
:10E4400002EB0013401CE954C0B2A042F8D3DCE751
:10E4500070B5814C06466578207C854203D37FA148
:10E46000E6200FF05AF8E06840F825606078401C1C
:10E470006070284670BD2DE9FF5F1D468B4607463C
:10E48000FF2401F0CAFEDFF8D081064698F80100AB
:10E49000B84203D871A1F4200FF03FF800214FF0EB
:10E4A00001094FF00C0A98F80820D8F804000EE093
:10E4B00009EB0113C35CFF2B27D0BB4205D10AEB4C
:10E4C000011350F803C0DC4521D0491CC9B28A426F
:10E4D000EED8FF2C1BD009EB0411002247540AEBA5
:10E4E000041140F801B00421029B01EB0411012B3F
:10E4F00011D042504FF4806C02234FF0080965455B
:10E5000019D9A905890D08D008E00C46DDE7FF20E0
:10E5100004B0BDE8F09F4550ECE7614606EB4132A0
:10E5200022F07F4609EB0412691A865003EB0412AD
:10E53000890A81540BE005B9012506EB453121F02C
:10E540007F4509EB0411455003EB0411425498F840
:10E5500000502046FFF78AFE98F80000A8421CD021
:10E5600001F05BFE014698F80020D8F8040009EBA2
:10E5700002124C46805800F093F8012809D998F807
:10E580000010D8F8040004EB0111405801F03CFEE3
:10E5900003E001F031FAF5F774FE3846B8E770B5DC
:10E5A0000C46054601F039FE064621462846FFF78F
:10E5B0009AFE0446FF2817D0274D082101EB0411CD
:10E5C00068684058314600F06BF800F58050400B09
:10E5D00002216A6801EB0411515C09B100EB812052
:10E5E000002800D1012070BD002070BD2DE9F0474A
:10E5F00088468146FFF777FEFF2837D0164D2E78E4
:10E6000069683246344605E0844206D0264601EB6E
:10E6100006131C78FF2CF7D128E0FF2C26D0A64249
:10E620002DD101EB021000782870FF2825D001F0D1
:10E63000F4FD01462A780827686807EB0212805823
:10E6400000F02EF8012813D92978686807EB01112A
:10E65000405801F0D9FD12E0400F00207372635C56
:10E66000736F635F74696D65722E6300002021E62D
:10E6700001F0C2F9F5F705FE01E001F0CBFD4146DE
:10E680004846FFF78CFFFF220123696803EB041360
:10E69000CA5401EB041201EB061112780A7009E664
:10E6A000401A20F07F40B0F5000F00D900207047DD
:10E6B0002DE9F04126480026012506604FF0E021B3
:10E6C0008014C1F88001234CC4F800610C2000F0D4
:10E6D00034F8214801680268C94341F3001142F04F
:10E6E00010020260C4F804532560491C00E020BFFA
:10E6F000D4F80021002AFAD019B9016821F01001DC
:10E7000001601348001D01680768890501D5134899
:10E7100007436560C4F80853C4F8006110480068F6
:10E720000C2000F00AF83846BDE8F08110B5044628
:10E73000FFF7BEFF2060002010BD00F01F02012186
:10E7400091404009800000F1E020C0F8801270473D
:10E7500004C5004000C0004010ED00E000FCFFFFD9
:10E7600000C1004070B521490A68BAB100231D46B6
:10E7700001244A68521C4A600A2A00D34D600E796F
:10E7800004FA06F20E6816420AD072B60B6893437A
:10E790000B6062B649680160002070BD052070BD45
:10E7A0005B1C0A2BE5D312A136200EF0B6FEF5E76E
:10E7B0004FF0E0214FF48000C1F800027047EFF302
:10E7C000108111F0010F72B64FF0010202FA00F24F
:10E7D0000648036842EA0302026000D162B6E7E736
:10E7E0000248002101604160704700007000002075
:10E7F0007372635C736F635F6576742E63000000F1
:10E800000120810708607047012081074860704738
:10E8100012480068C00700D0012070470F48001F51
:10E820000068C00700D0012070470C48083000681D
:10E83000C00700D0012070470848103000687047BA
:10E8400006490C310A68D20306D5096801F00301B4
:10E85000814201D101207047002070470C04004024
:10E860002DE9F041FE4C207EE17D884208BFBDE8E5
:10E87000F0810126FB4D0027E07D215C01EB810248
:10E8800005EB8200037C052B13D0037C062B1ED0E6
:10E89000037C072B2AD0437C012B35D0F2A140F218
:10E8A000D4500EF03AFE207EE17D8842E4D1BDE8EE
:10E8B000F0810674E07D16281ABFE07D401C002020
:10E8C000E075481CC0B255F8222002210CE0067405
:10E8D000E07D16281ABFE07D401C0020E075481C32
:10E8E00055F82220C0B203219047DCE70674E07D92
:10E8F00016281ABFE07D401C0020E075481CC0B2FD
:10E9000055F822200821EFE74774E07D16281ABF4A
:10E91000E07D401C0020E075481CC0B255F8222064
:10E920000721E1E770B5D34E00240C2086F82900BA
:10E93000A6F53B70254680F8CD4180F8CC4100F526
:10E94000F4700476C47506F12C0005F092FCA6F56F
:10E950008E70057586F82B50601EB06086F82550C5
:10E9600086F8225086F8235086F8245086F82150E5
:10E97000C14805704570A6F1E80000BF04EB8401B2
:10E9800000EB81010D74611CCCB20B2CF6D301207D
:10E99000F5F795FF0020F5F792FF012086F8260095
:10E9A000F5F73EFCB548F5F74AFCB54C2070B54884
:10E9B000F5F745FC6070BDE87040F5F709BF10B58C
:10E9C000F5F73AFFAE4C2078F5F755FC6078F5F78F
:10E9D00052FCA84C94F82800002808BF10BDF5F799
:10E9E000D6FC002084F8280010BD70B5A14C94F826
:10E9F000260030B1BDE870409BA140F27D200EF0B2
:10EA00008CBD94F82B0020B997A140F25E200EF047
:10EA100084FD012684F82660002584F82B5094F8A4
:10EA2000291004208F4A01EB810102EB8101087457
:10EA3000A068B0F1FF3F04D0681EA0600120F5F788
:10EA40003EFF0020F5F73BFFF5F71CFF05F05EFDEC
:10EA5000F6F75DF88C48056005604FF0E0214FF453
:10EA60000040C1F88002F6F7CBF88348007802280E
:10EA700004D0032805D194F8230010B184F8226053
:10EA800001E084F82250BDE87040F6F724B8034650
:10EA900074490B2000EB800201EB820212F8042C77
:10EAA00022B1401E10F0FF00F4D1704700EB80024D
:10EAB00001EB8201012241F8143C01F8042C70475B
:10EAC000012804D0032808BF002926D000E021B384
:10EAD000684B4FF0000C83F821C0674A0028907003
:10EAE00014BF022882F803C00BD0072915D2DFE833
:10EAF00001F01404060C0E1012001B2000E03A2056
:10EB0000D070012083F8210070475820F8E7772063
:10EB1000F6E79620F4E7B520F2E700207047564864
:10EB200010B54078F5F7FDFF80B210BD421E10B55C
:10EB30004C4900EB800001EB80040A2A02D814F84B
:10EB4000040C20B948A140F2CB200EF0E6FC14F8EA
:10EB5000040C012804D044A14FF433700EF0DDFC06
:10EB6000002004F8040C10BD70B5484C94F8CD0199
:10EB700094F8CC1188420CBF01250025F5F74CFF15
:10EB8000F5F7CFFF94F8CD1194F8CC2191420CBF4A
:10EB900001210021A942E9D170BD2DE9F05F804635
:10EBA000A1F1010C17460CF0FF042E4804EB84027F
:10EBB00000EB82052E1D287CDFF8A49007282BD1BE
:10EBC00099F8170000234A4699F818A0824521D0E9
:10EBD00012F800A0A24508BF012300D04BB11628AF
:10EBE0000CBF4FF0000A00F1010A12F80AA002F867
:10EBF00000A016280CBF0020401CC0B292F818A03C
:10EC00008245E5D133B1107E00280EBF1620107E5C
:10EC1000401E107601202874BCF10A0F10D811484C
:10EC200001EB810100EB810010F8040C40B1287C5D
:10EC300001280AD0287C012802D0B87A012807D000
:10EC400009A140F215300EF068FCB87A012867D1AE
:10EC5000044B287C022834D099F81800162817E0B5
:10EC60003C110020581100207372635C72656D2E98
:10EC700063000000401200207A00002019E3000029
:10EC80007800002061E8000000F50040540F0020EB
:10EC90004ED099F8180099F81710401C884205D1F9
:10ECA000AFF23C0140F222300EF037FC01206874D4
:10ECB00099F8180009F8004099F8180016283CD077
:10ECC0003DE0FE4A92F829000146A04207D00146E5
:10ECD00000EB810003EB8000807CA042F7D192F82A
:10ECE00029C084450CD192F8291001EB810103EB76
:10ECF0008101897C82F82910012182F82A1009E01B
:10ED000000EB800203EB820201EB810103EB810146
:10ED1000927C8A7400EB800003EB80000C218174EC
:10ED2000387A062825D2DFE800F012211E1B1815BC
:10ED300099F817000028B9D1B2E7002002E099F84D
:10ED40001800401C89F818000020BDE8F09F4FF023
:10ED5000000A15E04FF0B40A12E04FF0730A0FE01A
:10ED60004FF0320A0CE04FF00A0A09E04FF0060AB1
:10ED700006E0D3A140F2DF100EF0CFFB4FF0000A07
:10ED80003868A0EB0A003060397A00290CBF0421F2
:10ED90000221401A20F07F423260D7E90001084486
:10EDA00020F07F407060B87A022818BF387B7DD190
:10EDB000387A00280CBF0420022000EB0A03786890
:10EDC000991D00EB010BC1484178514503D9BB485F
:10EDD00090F8230010B10BF1070003E0A1EB0A004B
:10EDE0005844C01DB54991F829C0BCF10C0F24D07E
:10EDF0008E4691F8291001EB810CB54901EB8C0C82
:10EE0000DCF804C0624518D0DFF8C8C29EF829209B
:10EE100002EB820201EB82014A688968A2EB0802D8
:10EE200022F07F42A1EB080121F07F41904298BF80
:10EE3000B2F5800F51D28C454FD34044A0EB0B006C
:10EE400020F07F4030601844D7F80CC020F07F429B
:10EE5000A2EB0C006FF07F41B0F5800F24BFACEB4C
:10EE60000203B3F5800F0CD3814204D2A1EB0C0056
:10EE70001044401C05E0994223D2881A6044401C8B
:10EE80004042002822DD0520287499F81800162831
:10EE90003FD099F8180099F81710401C884204D107
:10EEA00087A140F207200EF038FB00E014E099F84B
:10EEB000180009F8004099F8180016287FF43FAFB1
:10EEC0003BE77FA140F213700EF027FB30685844F7
:10EED00020F07F407060002030727068801D20F04C
:10EEE0007F407060787AB072387A07277072032892
:10EEF00008D238B1FFF78CFC002804BFCAF13907EB
:10EF00004FF0320A71480178012918BF032910D146
:10EF100004E099F817000028C7D1C1E740785045B0
:10EF200007D9664991F82310002904BFA0EB0A0015
:10EF30000744684B3068A0EB0801706821F07F4CF3
:10EF4000A0EB080222F07F40674598BFBCF5800F18
:10EF50001DD283421BD3594890F829300C2B37D04F
:10EF600090F829704FF00C0B4FEA0B0A584807EB4A
:10EF7000870300EB830CDCF80830A3EB08038B421B
:10EF800037D8BB469CF812700C2FEFD1ADE00520AE
:10EF9000287499F81800162815D099F8180099F8CF
:10EFA0001710401C884204D145A140F207200EF002
:10EFB000B4FA99F8180009F8004099F818001628D2
:10EFC0007FF4BDAEB9E699F817000028F1D1EBE760
:10EFD0000221297490F829100C2918BF90F82910E3
:10EFE000A97480F82940012180F82A100846BDE85C
:10EFF000F09F0C2F1CBFBA46002376D00AEB8A0183
:10F0000000EB8101D1F804C0ACEB080C94452CD284
:10F010008B7B96F80AC09C4520D30520287499F86C
:10F020001800162815D099F8180099F81710401CE8
:10F03000884204D122A140F207200EF06EFA99F81E
:10F04000180009F8004099F8180016287FF477AEE8
:10F0500073E699F817000028F1D1EBE791F812A0B8
:10F060000123BAF10C0FC9D103E0002B08BFBA4647
:10F070003BD03E46164806EB860200EB820806218E
:10F0800088F8101099F8180016283FD099F8180041
:10F0900099F81710401C884204D109A140F2C530EC
:10F0A0000EF03BFA99F8180009F8006099F818007A
:10F0B00016280CBF002099F818000EE0401200201E
:10F0C0007372635C72656D2E630000007A0000202D
:10F0D00058110020FFFF3F0007E018BF401C89F8CF
:10F0E000180098F81260B245C4D10220FD4E287471
:10F0F00006F1E80090F82910B9420CD185F812A069
:10F1000080F82940012180F82A1027E099F817009B
:10F110000028C7D1C1E70C2F10D0BBF10C0F05D1CF
:10F12000AFF2640140F2DD300EF0F7F90BEB8B002B
:10F1300006EB8000847485F812A00FE0BBF10C0F81
:10F1400005D1AFF2840140F2E3300EF0E6F90BEBAB
:10F150008B0006EB800084740C20A8740120BDE8AD
:10F16000F09F70B50D46E04A44190021101A71EB6A
:10F17000010005D2AFF2B80140F2F5300EF0CDF942
:10F18000DA48854205DDAFF2C80140F2F6300EF0F4
:10F19000C4F9D748854205DAAFF2DC0140F2F73016
:10F1A0000EF0BBF9D3488442A8BFD34804DA002C40
:10F1B000AABF2046CF4870BD201870BD401E70B554
:10F1C000C0B200EB8001C74800EB8104607B0628D9
:10F1D00010D2DFE800F0030D0B090705002048E01E
:10F1E000B42011E073200FE032200DE00A200BE084
:10F1F000062009E0AFF2381140F2DF100EF08DF971
:10F20000617B0020002934D0022108446168084451
:10F2100020F07F40F5F785FC94F90C50B24A441970
:10F220000021101A71EB010005D2AFF26C1140F20F
:10F23000F5300EF072F9AD48854205DDAFF2801170
:10F2400040F2F6300EF069F9A948854205DAAFF2CE
:10F25000901140F2F7300EF060F9A6488442A8BF42
:10F26000A54804DA002CAABF2046A24870BD201889
:10F2700070BD0421C9E72DE9F04F06469F4885B0CF
:10F280000068C005C00D11D0103840B20028B8BFCA
:10F2900000F00F0000F1E020B4BF90F8140D90F8DA
:10F2A0000004400908BF4FF0010A01D04FF0000AE6
:10F2B0003078002817BF01283079002005B018BF2A
:10F2C000BDE8F08F062810D2DFE800F0030D0B092F
:10F2D000070500201AE0B42010E073200EE0322071
:10F2E0000CE00A200AE0062008E0AFF22C2140F2F0
:10F2F000DF100EF012F93179002039B15FF0020110
:10F3000000EB0109BAF1000F06D101E00421F7E793
:10F310007B49002081F827006C4602AA2146B0688C
:10F32000F5F70CFC9DF90820F068211D104401221E
:10F33000C01C1F28B8BF019208DB03AAF5F7FEFB2B
:10F340009DF80C0010B10198401C0190DDE90010FF
:10F350000844801D20F07F400190A1EB090020F0BF
:10F360007F40009070798DF80A0000980390F5F7BF
:10F3700053FB0099019B091A181A624A21F07F4138
:10F3800020F07F40B1F5800F10D282420ED35C484E
:10F3900090F82950009CAB46191B21F07F486FF074
:10F3A0007F41091BA0F1E807049101E000208AE0F9
:10F3B0000C2D2BD005EB850007EB80026FF07F430F
:10F3C0005068011BB1F5800F10D3A4EB000CBCF505
:10F3D000800F0BD38B4203D204990844411C05E0F3
:10F3E00063450DD2181A2044401C414200290DDA11
:10F3F0004348AB46957C90F827000028D8D056E0CB
:10F40000AFF2443140F213700EF087F85D4523D01F
:10F410000BEB8B0007EB80036FF07F429968081BB2
:10F42000B0F5800F10D3A4EB010CBCF5800F0BD30B
:10F43000824203D204980844401C05E0624524D26D
:10F44000521A1019401C4042002805DD9DF80A00A0
:10F450009A7B904228BF0C460C2D1CBF9DF80A10C9
:10F46000274A1BD005EB850007EB800043681B1B78
:10F4700023F07F43434511D2837B994228BF8468A0
:10F48000857C92F8270090B906E0AFF2CC3140F2CB
:10F4900013700EF042F8DFE70C2DE3D10098A04284
:10F4A00005D004EB080020F07F4000940190009903
:10F4B0000398814206D001EB090020F07F40F5F768
:10F4C00030FBB06001200E4991F82710002904BFDD
:10F4D00005B0BDE8F08FBAF1000F3FF419AF05B0E9
:10F4E000BDE8F08F58110020FF7F841E0020A10787
:10F4F00000E05EF80080841E00807BE104ED00E007
:10F5000040120020FFFF3F002DE9F04F814687B0F9
:10F510000C46FE4804F0B5FEFD494FF0000801EB33
:10F520000905012780B1A1F5887898F8140028B161
:10F53000AFF2744140F211500DF0EFFF2078012836
:10F5400000F0B48100F0BEB9F24E96F8CD01162855
:10F5500010D096F8CD0196F8CC11401C884205D108
:10F56000AFF2A44140F2EF400DF0D7FF2078012820
:10F5700005D00FE096F8CC010028F7D1F0E715F898
:10F58000010C28B1AFF2C84140F2F4400DF0C5FFC4
:10F5900005F8017CDF4890F8CD1101EB810100EB0B
:10F5A000810080F81090207802283FD0D94890F848
:10F5B000CD1101EB810100EB810520792872607982
:10F5C000687205F10C022946A068F5F7B7FA95F9BB
:10F5D0000C000F2804DD1F3828732868401C2860A1
:10F5E00095F90C00E1682E1D0844C01C1F28B8BF07
:10F5F000376009DB6A463146F5F7A0FA9DF800004E
:10F6000010B13068401C30602078A872C14991F870
:10F61000CD0116280EBF002091F8CD01401C81F8C5
:10F62000CD01BA4804F043FE00F092B9BA48006830
:10F63000C005C00D14D0103840B20028B8BF00F08B
:10F640000F0000F1E020ACBF90F8000490F8140D1A
:10F65000400905D1AFF298514FF4A0600DF05DFF65
:10F66000AC4890F8CD1101AA01EB810100EB8106B5
:10F67000E068CDF800808DF804806946F5F75EFA01
:10F680009DF904000F28CCBF012000200099351DF2
:10F69000084401900220B072207930726079707253
:10F6A000A068C01C1F28B8BF2F6009DB6A46294626
:10F6B000F5F744FA9DF8000010B12868401C286056
:10F6C000307A062810D2DFE800F0030D0B09070599
:10F6D000002010E0B4200EE073200CE032200AE09D
:10F6E0000A2008E0062006E0AFF22C6140F2DF10AD
:10F6F0000DF013FF0020217900290CBF0421022105
:10F70000084402907168801D0844019900900144EA
:10F710000298081A0590814C002084F82700F5F71C
:10F720007BF9804630600198404420F07F40F060D3
:10F7300094F829000C287DD0204690F8291001EB80
:10F740008102A0F1E80101EB82025468009A274689
:10F75000224422F07F42039296F809B090F8295093
:10F76000121B22F07F4A6FF07F42121BA9460492BF
:10F770000C2D2CD06A4805EB850100EB81036FF05E
:10F780007F425868011BB1F5800F24BFA4EB000C29
:10F79000BCF5800F0BD38A4203D204990844411C64
:10F7A00005E062450DD2111A0819401C414200299A
:10F7B0000DDA5A48A9469D7C90F827000028D7D03A
:10F7C00058E0AFF2047140F213700DF0A6FE4D4503
:10F7D00023D0534809EB890100EB81016FF07F438F
:10F7E0008868021B8146B2F5800F24BFA4EB000C91
:10F7F000BCF5800F0BD3934203D2049A1044421CF1
:10F8000005E0634525D21A1A1019401C4242002A0D
:10F8100003DD887B834528BF4C460C2D1CBF3F4B26
:10F82000A3F1E8011ED000BF05EB850001EB8002CB
:10F83000506800E032E0001B20F07F40504511D2BC
:10F84000907B834528BF9468957C93F8270088B9FE
:10F8500006E0AFF2947140F213700DF05EFEDCE74B
:10F860000C2DE1D1A74205D004EB0A0020F07F4027
:10F8700027460390039AA7EB080121F07F41A2EBF2
:10F880000802059822F07F42B1F5800F06D290421F
:10F8900004D30298384420F07F4030601F4890F82D
:10F8A000270000287FF437AFB0E600BF15F8010C41
:10F8B00028B1AFF2F4714FF4A3600DF02EFE05F8FD
:10F8C000017C00BF88F810902078022805D1AFF69F
:10F8D000100140F21E500DF020FE124E207906F16C
:10F8E0000C023072607970723146A068F5F726F923
:10F8F00096F90C000F2804DD1F3830733068401C67
:10F90000306096F90C00351DE1680DE06C120020A6
:10F9100034120020540F002004ED00E040120020BB
:10F9200058110020241100200844C01C1F28B8BF13
:10F930002F6009DB6A462946F5F700F99DF80000BB
:10F9400010B12868401C28602078B07288F81470C4
:10F95000FA4D95F8CD0195F8CC11884204BF07B057
:10F96000BDE8F08FF64890F829400C2C30D0F5F720
:10F9700053F8F44904EB840201EB82010A7C042A67
:10F9800019BF0A7C032A07B0BDE8F08FEE4B4A6826
:10F990008968121A081A22F07F4220F07F40072A55
:10F9A0003CBF07B0BDE8F08FB2F5800F24BF07B0B1
:10F9B000BDE8F08F83423CBF07B0BDE8F08F95F8FB
:10F9C000CD0195F8CC1188420BD107B0BDE8F08F7E
:10F9D00095F8CD0195F8CC11884204BF07B0BDE879
:10F9E000F08F07B0BDE8F04FF5F775B80020F4F7D9
:10F9F00053BF0120F4F750BFD448007870472DE979
:10FA0000F0410546022829D0CD4C94F829000C2855
:10FA100005D1AFF6541140F254500DF07EFD002791
:10FA200084F82670012684F82B6094F829100320AE
:10FA3000DFF8108301EB810108EB81010874F5F711
:10FA400051F88DB1012D34D0032D7DD0AFF690113A
:10FA5000BDE8F04140F2A7500DF05FBDBB48007813
:10FA6000BDE8F041F4F70DBC207F28B1AFF6B0112E
:10FA70004FF4AC600DF051FD84F825600020276044
:10FA8000F4F71DFFA168B1F1FF3F04D0012300226C
:10FA90001846F4F758FF94F8290094F82910401CF0
:10FAA000C0B201EB810158F82120BDE8F0410121ED
:10FAB00010470120F4F703FF94F8250000281CBF2D
:10FAC000A068B0F1FF3F0DD094F8290094F82910F8
:10FAD000401CC0B201EB810158F82120BDE8F04183
:10FAE00006211047207F01280DD0022817D00328B7
:10FAF0002DD0042840D0AFF63821BDE8F04140F2C7
:10FB00009B500DF00ABD94F8240028B184F82470AD
:10FB1000F4F7EFFF84F823602777BDE8F08194F8CD
:10FB2000280018B9F4F70AFC84F8286094F8290032
:10FB300094F82910401CC0B201EB810158F8212033
:10FB400000219047277700E035E0BDE8F081217B78
:10FB500060680123411A00221846F4F7F4FE94F875
:10FB6000240028B184F82470F4F7C3FF84F82360DC
:10FB700002202077BDE8F08194F82010606801230E
:10FB8000411A00221846F4F7DEFE94F8280018B94E
:10FB9000F4F7D4FB84F8286094F8290094F829102D
:10FBA000401CC0B201EB810158F821200021904790
:10FBB0002677BDE8F08194F8290094F82910401CBC
:10FBC000C0B201EB810158F82120BDE8F0410521C8
:10FBD000104710B55A4C94F829000C2805D1AFF6FF
:10FBE000203140F2AE500DF098FC94F8290094F8C2
:10FBF0002910401CC0B2534A01EB810152F8212068
:10FC0000BDE81040042110472DE9F05F4FF00C0BC8
:10FC1000F4F702FF4A4C814694F829000026A4F12B
:10FC2000E8084FF0010A0C282CD094F8291020463F
:10FC300001EB810108EB8101097C042922D090F8B5
:10FC4000291001EB810108EB8101097C032908BF20
:10FC5000BDE8F09F3C4922696069A2EB090222F0ED
:10FC60007F42A0EB090020F07F40072A38BFBDE8A3
:10FC7000F09FB2F5800F28BFBDE8F09F814238BFEA
:10FC8000BDE8F09FA068B0F1FF3F05D0AFF6D031DE
:10FC900040F2EA500DF041FC84F8256094F8290008
:10FCA0002B4F0C2806D194F8210018B1F878787001
:10FCB000B8783870224890F829000C281ED02048C7
:10FCC00090F8291001EB810108EB8101097C0429DE
:10FCD00014D190F829B090F8291001EB810108EBBC
:10FCE000810181F810A090F8291001EB810108EB47
:10FCF0008101897C80F8291080F82AA00F4C94F8A3
:10FD0000CD0194F8CC1104F2DF2588425CD000BF0D
:10FD100094F8CC0100EB800004EB8000007C405D97
:10FD2000012894F8CC0100EB800004EB800011D096
:10FD3000007C405D022852D025E00000540F0020D6
:10FD40004012002058110020FFFF3F0078000020E3
:10FD50007A000020807A01280DD094F8CC1102207E
:10FD600001EB810104EB8101097C485594F8CC0139
:10FD7000162820D01BE094F8CC0100EB800004EBA7
:10FD80008000007C465594F8CC0100EB800004EB29
:10FD9000800294F8CC0100EB800004EB8000017C31
:10FDA0004846FEF7FAFE94F8CC01162803D094F8E2
:10FDB000CC01401C00E0002084F8CC0194F8CD0177
:10FDC00094F8CC118842A3D1FE4C207DD0B3207C86
:10FDD000415D01291AD0405D02281FD02AE094F825
:10FDE000CC0100EB800004EB8000807A012805D074
:10FDF000AFF6345140F20C600DF08FFB94F8CC015B
:10FE000000EB800004EB80008672B4E7A17A012940
:10FE10001DBF02214155267546550BE0A07A0128E9
:10FE200005D0AFF664514FF4C5600DF076FBA672B5
:10FE3000207C4655207D28B1217CE24A4846FEF7C9
:10FE4000ACFE2675BBF10C0F06D00BEB8B0008EB5C
:10FE50008000017C01292FD0DB4C94F829000C286C
:10FE600000F0138194F82A00002800F01D8184F826
:10FE70002A6094F8290000EB800008EB8003A4F5C9
:10FE80003B70D3E90112DB68C0F80433C0E9BF124C
:10FE9000607E00280CBF0425022594F82900C34683
:10FEA00000EB800108EB8100407B062830D2DFE8C0
:10FEB00000F0232D2B29272507210174C34C207E18
:10FEC000162815D0207EE17D401C884205D1AFF672
:10FED000106140F23A600DF020FB207E04F800B083
:10FEE000207E16280EBF0020207E401C2076B3E71F
:10FEF000E07D0028F1D1EAE7002010E0B4200EE018
:10FF000073200CE032200AE00A2008E0062006E018
:10FF1000AFF6546140F2DF100DF0FFFA00202073BD
:10FF2000617E022918BF012911D121690144A1EB89
:10FF3000090222F07F42392A09D903206076A1F113
:10FF4000320020F07F4020613220207309E0322807
:10FF500007D294F8280058B9F4F7F0F984F828A0EB
:10FF600006E094F8280018B1F4F711FA84F8286034
:10FF7000797884F8201038780722012818BF0328E0
:10FF800006D184F824A0207B814284BF081AC21DB8
:10FF900094F82230002B18BF921C94F824000028FB
:10FFA00008BF002B6DD0D4F810806069A8EB090859
:10FFB000DFF81CC228F07F48A0EB090020F07F404A
:10FFC000424598BFB8F5800F44D2844542D3207B88
:10FFD000884215D22369A1EB0002A3EB020222F0B2
:10FFE0007F421144294421F07F4122616160002851
:10FFF0000CBF01200320207710F0FF0F39D118E04B
:020000040001F9
:100000000AD9226900291044284420F07F4060600A
:100010000CBF02200420EEE72BB9AFF65C7140F272
:100020008C600DF07AFA2069284420F07F406060EF
:1000300026770120F4F743FC94F82900012300EB14
:1000400080010BEB8100616890F90C200020F4F72F
:100050007AFC29E084F8246084F82260207B002860
:10006000E1D021690844284420F07F4060600220EC
:10007000207720690123411900221846F4F763FC18
:10008000DAE7207B0028ECD1CDE70120F4F717FC5C
:100090000020F4F714FCF4F7F5FB94F8280018B1ED
:1000A000F4F775F984F8286094F8220028B1F4F781
:1000B00020FD84F8236084F8226094F8210018B1B0
:1000C000F8787870B878387094F8240030B184F8F3
:1000D00023603878002808BF84F824603B48017EFC
:1000E000C07D814203D03B484078F4F7CAF884F8D9
:1000F00027A0BDE8F09F70B5334C054682B094F858
:1001000029000C2804D134A140F2EF600DF005FA6B
:1001100094F82900334E00EB800006EB8000007C51
:10012000032804D02CA14FF4DE600DF0F6F9A0688E
:10013000B0F1FF3F04D028A140F2F1600DF0EDF9DD
:1001400094F82900002100EB800006EB800001AA52
:1001500090F90C0000918DF8041028446946F4F7DA
:10016000EDFC9DF904000F28CCBF01200020009970
:1001700008446168084420F07F41A16094F825009C
:10018000002804BF02B070BD012302B00022BDE808
:1001900070401846F4F7D7BB134A0B1A02F1010C52
:1001A000B3EB9C0F3CBF1846704710B5441AB4EB34
:1001B0009C0F3CBF184610BD9A4217D2101A084433
:1001C000401C10BD24110020401200203C110020D2
:1001D000FFFF3F00780000207372635C72656D2E34
:1001E0006300000058110020FF7F841EA24204D249
:1001F000511A0844401C4042E3E7884940F213701A
:100200000DF08BF90020DCE70123002201460220DB
:10021000F4F799BB0220F4F752BBF4F7FDBBF0B53D
:100220007F4C054683B094F82B0028B9AFF25801F3
:1002300040F232700DF071F9642D50D379490020ED
:10024000491B80414BD3784890F8CD1190F8CC01F0
:10025000814244D17548007D002840D194F829009E
:10026000734F00EB800007EB8006206801AA28444A
:100270006946F4F763FC9DF90400002802DD00984C
:10028000401C0090B268009973685018C01A20F0A2
:100290007F40B0F5800F22D2B07C0C2809D000EB53
:1002A000800007EB80004068801A20F07F40884281
:1002B00015D3A068B0F1FF3F05D00120F4F7FFFA95
:1002C0004FF0FF30A060206828442060B06800999B
:1002D000084420F07F40606103B00120F0BD03B00E
:1002E0000020F0BD2DE9F0410646401EC5B2504841
:1002F00005EB850100EB8104207C28B9AFF22811C1
:1003000040F26F700DF009F9474A92F8CC1192F85B
:10031000CD0181420ED000BF01EB810302EB8303CC
:100320001B7CB3420DD016290CBF0021491CC9B259
:100330008142F1D13D48017D002961D0007CB0426D
:100340005ED10020BDE8F081217C05291FBF217C02
:100350000629217C07292BD12774C27D0023017E29
:10036000914218BF014623D011F80280A84508BF6A
:10037000012300D04BB1162A0CBF4FF0000802F148
:10038000010811F8088001F80280162A0CBF00222B
:10039000521CD2B291F818809045E5D143B10A7E43
:1003A000002A08BF81F818C002D00A7E521E0A76C1
:1003B000617C21B36674C27D0021037E934224D008
:1003C000835CAB4208BF012100D029B1162A0CBFC3
:1003D0000023531CC35C8354162A0CBF0022521CFA
:1003E000D2B2037E9342EBD149B1027E0146002A8C
:1003F00008BF81F818C008D00A7E521E0A7604E0B1
:1004000001270C4800264FF0160C217C012904BF5F
:10041000617C002998D10120BDE8F081C0F0000086
:1004200040120020FF1FA107540F002024110020BC
:10043000581100203C11002010B509F0BFFC042821
:1004400003D009F0BBFC052802D106F0F7FE50B935
:1004500004F06CF8032803D004F06EF8032804D1EC
:1004600009F092FE08B1012010BD002010BD2DE959
:10047000FE430C46002607468DF8006001A905F0F2
:10048000EDF900287ED19DF8040058B109F0D8FD9F
:10049000B84277D00022214638460AF0F4FF0028FF
:1004A0003CD116E006F04BFCB8426BD0002221464E
:1004B000384607F090FF002876D1029D95F890000D
:1004C000283518B9687E08B1012000E00020804678
:1004D00003E0029D95F84180283595F8620006F00A
:1004E0005DFB20B9FEA140F2D9100DF016F895F889
:1004F0002D004FF0010990B195F82E0080070ED520
:10050000667084F80090A670A78095F82F00A071FF
:10051000288E2081688E608185F82D6044E095F8F2
:100520006200694606F005FA20B9EDA140F2ED102F
:100530000CF0F3FF9DF8000048B166700D202070AC
:10054000A7809DF80000E08084F802902CE0B8F1CC
:10055000000F2CD006F08EFBA0B19DF8040030B93E
:100560000298D0F8A4004188B94200D1067095F8ED
:10057000620006F0A1F820B9D9A140F20D200CF0DC
:10058000CCFF00E013E066700A202070A670A78000
:10059000A87EA0716E7601A805F01AFA20B1D0A14C
:1005A00040F21B200CF0B9FF0120BDE8FE830020C3
:1005B000FBE72DE9F041CEA0CF4C06790025076876
:1005C00084F84250243401F000FDE5770420A08235
:1005D0001020E0824FF6FF70A4F8DE0084F8E050AF
:1005E000A4F8E200657304F8245CA572257404F194
:1005F0005C0084F8D85040F87D7F04F1D901067181
:10060000BDE8F041481E08F086B82DE9F041BB4C2A
:100610000D466060217006F030F805F067F8FFF7CE
:10062000C8FF207809F088F9B349C431A1F18100ED
:100630000F46064606F0AAFC606807F046FF28460B
:1006400004F069FB3946304609F034FD60680AF071
:10065000BCFF01F0BAFCA849002081F84300BDE8C6
:10066000F081FEB50E461D46144601A905F0F6F8C8
:10067000B8BB029890F88A0006F046F858B1684670
:1006800006F053F8002805D01CB105F0F7FFA04292
:1006900007D20020FEBD92A140F239300CF03DFFA0
:1006A000F7E7009805F02BFB3146009805F02AFB90
:1006B000E2B22946009805F096FC06F05DF820B9F4
:1006C00087A140F257300CF028FF9DF80400012864
:1006D00007D101A801F080FC884900208968A1F8B1
:1006E00092000120FEBD30B4017921B1012907D06B
:1006F00030BC00207047831D42880488022103E03B
:1007000042880488831D0121204630BCA9E72DE9D9
:10071000FF41794C07460E46B4F80201984615464B
:10072000ADF8000001A905F099F878B100216846FC
:1007300005F0F3F808BB01A9BDF8000005F08EF83C
:1007400020B167A140F275300CF0E7FEBDF8000063
:100750003880BDF80000A4F802010021684805F0C7
:10076000DCF818B14FF6FF70A4F80201029890F877
:100770008A0006F013FA18B107E0002004B06EE713
:1007800057A140F28F300CF0C8FE03A806F017FA0C
:100790000028F3D0039805F0E9FA3070022807D05A
:1007A000012805D04EA140F2AB300CF0B6FEE4E7D4
:1007B0004146039805F030FC288020B948A140F25A
:1007C0009E300CF0AAFE06F022FA20B944A14FF4A4
:1007D00069700CF0A2FE0120D0E73EB50446831DEF
:1007E00002AA694601A8FFF792FF002813D0BDF8BE
:1007F00004002080BDF808006080002060719DF832
:100800000000012808D0022806D035A140F2A72018
:100810000CF083FE01203EBD2071FBE72DE9F8437B
:10082000040004D12EA140F2BB200CF076FE324D24
:10083000002695F8310058B166701020207095F8A8
:100840003200A07095F83300E07085F8316030E038
:10085000287840B12C22A91C20460CF091FD0E20D6
:1008600020702E7025E095F82E0060B10120E07018
:1008700095F82F00A07095F8300060700F20207060
:1008800085F82E6015E01E480221001D804605F007
:1008900044F8002872D1B5F8067100BFB5F806011A
:1008A000042809D0052830D02146FFF7E0FD0028B4
:1008B0005BD00120BDE8F8830021204606F0F2F964
:1008C0000028F6D195F83400F0B36670132020703C
:1008D0001C21A01C0CF0CBFD0220A07012E0000037
:1008E0007372635C6C6C5F6374726C2E63000000E7
:1008F000FFFFFFFF1F00000070120020800000209B
:100900007213002085F83460D3E70021204609F0F7
:1009100069FBC8B120781328CBD1A0783C28C8D176
:10092000A088694604F017FF28B1AFF24C0140F2ED
:10093000FF200CF0F2FD009890F88A0005F0BCFE54
:1009400038B9AFF2640100E00FE040F203300CF080
:10095000E4FD009804F036FF0028AAD0AFF2800131
:1009600040F207300CF0D9FDA3E70221404604F025
:10097000D4FF18B9B5F80601B8428FD1002099E725
:100980004CE710B508F052FF28B1AFF2AC0140F2CD
:10099000BD300CF0C2FD07F091FD06F0ADFA04F099
:1009A000A3F928B1AFF2C8014FF472700CF0B5FD95
:1009B0000AF004FE28B1AFF2D8014FF474700CF0C5
:1009C000ACFD09F047FB28B1AFF2EC014FF47570B4
:1009D0000CF0A3FDFFF7EDFD04F038FE28B1AFF2F7
:1009E00000114FF477700CF098FD05F0F5FD01F063
:1009F000ECFAFF48002180F8431001710121417198
:100A00000222C270017010BD10B5F94C207828B1D7
:100A10000A21BDE810400E2001F09FBAFFF70CFD3F
:100A200008B10C2002E001F0D0FA00202071012072
:100A300060710A21E170207010BD70B5EC4C054664
:100A4000207828B1BDE870403A210E2001F085BA27
:100A5000FFF7F2FC08B10C2012E094F843000828DC
:100A60000DD204EB001010222946443001F082FA26
:100A700094F84300401C84F84300002000E0072065
:100A80002071012060713A21E170207070BD70B555
:100A9000D74C0546207828B1BDE870400B210E20C8
:100AA00001F05BBA287818B1012801D0122016E0B5
:100AB00094F8C400082819D2FFF7BEFC08B10C2036
:100AC0000DE0CB482B7894F8C4106A1CC83001F0B4
:100AD0007CFB94F8C400401C84F8C4000020207102
:100AE000012060710B21E170207070BD0720F6E7D6
:100AF00010B5BF4C207828B13921BDE810400E2038
:100B000001F02BBAFFF798FC08B10C2002E000209E
:100B100084F843002071012060713921E170207058
:100B200010BDB348017819B10F210E2001F015BA9C
:100B3000002101710E2181700F21C170FF2181718F
:100B40004FF6FF710181AB4949680A7882728A8841
:100B500082814988C1810121417101707047A44996
:100B60000A781AB13C210E2001F0F7B90088A1F8EB
:100B70000201012081F8040100220A7148713C221F
:100B8000CA700870704710B5994C207828B12B2195
:100B9000BDE810400E2001F0E0B90821A01DFDF7CE
:100BA00071FA00202071012060712B21E17020700A
:100BB00010BD10B58E4C207828B10521BDE810403D
:100BC0000E2001F0CAB905F059FDE08005F0AFFE36
:100BD000207200202071012060710521E1702070D9
:100BE00010BD10B5824C217829B13121BDE81040EB
:100BF0000E2001F0B2B990F90000042816D0A8B177
:100C0000011D13D010F1080F10D010F10C0F0DD0F2
:100C100010F1100F0AD010F1140F07D010F11E0FB1
:100C200004D010F1280F01D0122002E001F018FBCF
:100C3000002020713120E07001206071207010BD13
:100C400030B56B4D04468DB0287828B12A210E208E
:100C500001F083F90DB030BD10222146684601F045
:100C600089F9102204F1100104A801F083F9684603
:100C700003F07CFB10222C46A81D08A901F07AF98C
:100C8000002020710E20A0702A20E07001206071E9
:100C90002070DFE72DE9F041554C86B0207828B16F
:100CA0003B210E2001F059F906B0D8E44FF00008BE
:100CB00084F80680B4F80201ADF8040002A904F03B
:100CC000CDFD28B1002101A804F027FE002858D14D
:100CD000474DBDF80400ADF80000183502A980B2F8
:100CE00004F0BCFD28B1AFF2084140F214500CF002
:100CF00014FC039F04A997F88A00283705F032FEF8
:100D000028B9AFF2244140F219500CF006FC7E7E67
:100D100097F8620005F042FF28B9AFF23C4140F27B
:100D20001F500CF0FAFB05F0A5FF80F0010156EA18
:100D300001001BD0A279BDF8000004EB4202108133
:100D4000A279505D66F300005055A27961F341002D
:100D500050559DF8101011B140F0040001E020F052
:100D60000400A1794855A079401CA0710021684673
:100D700004F0D3FD28B9BDF80000BDF80410884286
:100D8000ACD1012084F8048060713B21E1702070B7
:100D90008AE770B5164C0546207828B1BDE870404A
:100DA00034210E2001F0D9B809F008F8052804D044
:100DB000284608F0A2FD002000E00C202071012050
:100DC00060713421E170207070BD0948017819B15B
:100DD0000E21084601F0C1B80649CA68C0F80620CD
:100DE000098A418100210171012141710E2203E034
:100DF0007012002080000020C2700170704770B532
:100E0000F74C0646251D207828B1BDE870403221F8
:100E10000E2001F0A2B83146002009F041FA2870F6
:100E200058B900213246084606F0B6F9287020B9B4
:100E3000EC483168C160B1880182012060713221C3
:100E4000E170207070BD70B5E54C0546207828B182
:100E5000BDE8704030210E2001F07FB808F0E9FDB8
:100E600010B904F016FA68B1287803F0C7FF2878A3
:100E700006F013FA00202071012060713021E1702A
:100E8000207070BD0C20F6E72DE9F041D44C0646E9
:100E9000251D207828B1BDE8F04117210E2001F072
:100EA0005CB83146012009F0FBF92870012768B9C8
:100EB00032460121002006F06FF9287030B9306801
:100EC000E063B088A4F8400084F84270677117208E
:100ED000E0702770BDE8F0812DE9FC47C04C054665
:100EE00094F82E0028B128210F2001F036F8BDE833
:100EF000FC87A8784FF000091A2825D00EDC1628A8
:100F000037D2DFE800F0363636363621363636361A
:100F10003636363636363636362121212A2828D03E
:100F20000BDCA0F11E000C2823D2DFE800F0222207
:100F30002222222222222222220D3A38042818D2EA
:100F4000DFE800F0170217022888B0F5706F10D2A2
:100F50001F2184F82F10282184F830104FF0010849
:100F600084F82E802888694604F078FC18B10220A5
:100F700019E0122017E09DF80000019F002806D01C
:100F800007F1C607019E05D106F19D0604E007F1B1
:100F90009C07F7E706F1C706684601F008F808B1B4
:100FA000387818B10C2084F82F00A0E787F800806B
:100FB000A878307084F82F90684601F00DF896E715
:100FC0007CB5874C0546207820B125210E2000F005
:100FD000C4FF7CBD2888694604F040FC002268B14B
:100FE000022020717E4882600273E2800E20A07091
:100FF0002520E0700120607120707CBD0199881C63
:1010000011F1280181F836208368A360037B2373E4
:1010100091F83630002BF5D12888E080E6E72DE9FD
:10102000FC416F4C064694F82E0028B110210F2089
:1010300000F093FFBDE8FC811F2084F82F001020F2
:1010400084F83000012784F82E703088694604F057
:1010500005FC70B9684600F0AAFF50B1019D9DF8EB
:10106000000028350028019805D0CA30017841B920
:1010700004E0022006E0D0F8A400F7E795F82D1070
:1010800019B13A2084F82F00D4E795F82E1089077B
:101090000CD1062101709DF8000020B9019930881B
:1010A000D1F8A4104880684600F096FF002084F82C
:1010B0002F0085F82D70BDE770B5494D044628789E
:1010C00028B1BDE8704038210E2000F046BF1F2037
:1010D0002871012068713821E9702870207840B1AA
:1010E000012806D0022804D0032802D0122028713B
:1010F00070BD002606F099F8207807F009FB2078EB
:1011000009F000F920780AF0F7FB2E7170BD2DE987
:10111000F047334D0646287828B1BDE8F0471D2139
:101120000E2000F01ABF4FF01F0985F8049001202F
:1011300068711D21E970287008F040FE0C27042812
:101140005AD0052858D0B0791224012800D0E8B927
:10115000307808B1012819D1F07908B1012815D1EA
:10116000708843F6FD71021F30248A420ED2B28885
:10117000121F8A420AD22887B0886887B0794FF058
:1011800000084446012804D058B118E02C71BDE88D
:10119000F08795F8420010B3114A3C32012108460D
:1011A00003E0104A00210C32012005F0F5FF040095
:1011B00005D0AFF6D40140F206700CF0AEF9F0792C
:1011C000012800D010B906F00FF8044614B185F8D4
:1011D0000490DCE73078012806D040B10EE00BE047
:1011E00070120020800000200021022001E0002178
:1011F000012006F00EF808B12F71C8E785F80480C9
:10120000C5E770B5FE4C217829B1BDE870401E21BC
:101210000E2000F0A2BE1F212171012161711E224A
:10122000E270217002781221012A00D01AB94078A8
:1012300018B1012801D0217170BD00260C25012AAA
:1012400008D008F0BBFD052802D008F09AFA30B1AA
:10125000257170BD618F208F08F0FDFBF7E72671C7
:1012600070BD2DE9FC5F0446AFF67C11E44DD1E979
:1012700000B195F82E00894628B121210F2000F0F9
:101280006CFEBDE8FC9F1F2085F82F00212085F80B
:101290003000012685F82E60218843F6FD730A1F71
:1012A00030209A4249D26288171F9F42FAD28A425E
:1012B00043D8E28940F67B43911F9942F2D2218ABA
:1012C0008F1F9F42EED28A42F2D8628AB2F5FA7F2D
:1012D000E8D2A28A40F67747A2F10A03BB42E1D2E4
:1012E000B2EBD10F29D9E18A228B9142E0D8217942
:1012F000122011B1012920D102E061790029F9D130
:10130000217B09B10129F6D108F058FD4FF00C08F6
:1013100005287DD008F052FD0428FAD095F8340055
:10132000002875D105F00BFDA0F57F41FF39F8D1FC
:10133000684604F05EFA08B10920B2E001220321F8
:10134000009804F06BFF0098042100F10F07B0F83B
:1013500002A03846FCF796FE5146384605F0B8F82C
:10136000A8A0009F00680190032101A81337FCF793
:1013700014FE002001A90A5C3A54401CC0B20328A4
:10138000F9D30098218A00278180618AC180A18ACF
:10139000018180F82E7080F82F70617911B10129D8
:1013A00003D101E0C77600E0C676D4F80610C1612B
:1013B00061890184C0F80AB080F80E9080F8AC60B2
:1013C0008DF80470012101A8FCF7E7FD9DF80400E9
:1013D000009B00F00701C0F3C1021144C0F34010AC
:1013E00008448DF80400401D9876092801D2083081
:1013F000987601220021184604F010FF00988A30E8
:1014000005F03EF938B9AFF6283140F6020000E0A9
:1014100064E00CF082F8207B40B101280AD0AFF6DE
:10142000403140F61C000CF078F83EE00021764A8E
:10143000012006E095F8420068B1714A01213C3272
:10144000084605F0A9FE78B3009890F88A0005F0E8
:1014500033F9A8B11AE0009890F88A0005F02CF949
:1014600028B9AFF6843140F60F000CF056F800981A
:1014700004F097FA90B3AFF6983140F6130042E0CB
:10148000AFF6A43140F623000CF047F8009804F0C2
:1014900088FA28B1AFF6B83140F627000CF03DF8D5
:1014A0001F2085F82F00ECE6FFE72079012800D007
:1014B00010B905F099FE50B90320009905F0A9FE76
:1014C00028B962882188009808F06EFA38B100982F
:1014D00090F88A0005F0F0F838B10CE015E00098BB
:1014E00080F8A07085F82F70CBE6AFF60C4140F67F
:1014F0004D000CF012F8009804F053FA28B1AFF642
:10150000204140F651000CF008F885F82F80B8E62D
:1015100038B53B4C207820B122210E2000F01DFD73
:1015200038BD1F202071012565712220E0702570D3
:1015300008F044FC052802D00C20207138BD0020A2
:101540002071684608F0C2FA0028F7D1009890F898
:101550008A0005F0B1F828B9AFF67C4140F67F006B
:101560000BF0DBFF009804F01CFA28B1AFF69041B5
:1015700040F683000BF0D1FF234884F834500C3838
:101580000078F2F77EFE38BDF8B51D4D044695F89B
:101590002E0020B123210F2000F0DFFCF8BD1F201A
:1015A00085F82F00232085F83000012085F82E00D3
:1015B000628840F67B43911F3020994251D2A18826
:1015C0008E1F9E424DD28A424BD8E288B2F5FA7FF6
:1015D00047D2228940F67746A2F10A03B34240D2AD
:1015E000B2EBD10F3DD96189A289914239D8002649
:1015F0002088694604F023F9022780B9009805E0A5
:1016000070120020112233008C00002000F0BFFC7B
:1016100028B10098D0F8A4100A783AB902E085F809
:101620002F70F8BDD0F8B82012780AB13A2018E02F
:1016300005228A7150F8A41F0E810268A188518189
:101640000268E188918102682189D181006802895C
:1016500041898A4204D88279082A01D88A4203D370
:10166000122085F82F00F8BD218841800098D0F81D
:10167000A400077085F82F60F8BD2DE9FC41FA4CF5
:101680000646207820B124210E2000F066FCD1E42B
:10169000012565712420E0702570304604F03FFF7D
:1016A00008B1002000E0122020710028EFD1EE48A0
:1016B00084F8FC508030316840F87D1F3179017129
:1016C000002684F8FC604FF6FF70ADF80000684615
:1016D00004F0EEF8C8B9BDF8007040F60E1801A984
:1016E000BDF8000004F0ABF820B1AFF60C61404645
:1016F0000BF013FF019880F8AC50684604F0D8F85E
:1017000018B9BDF800008742E9D1267192E438B5D6
:10171000D54C054694F82E0020B126210F2000F06C
:101720001CFC38BD1F2084F82F00262084F83000D0
:10173000012084F82E002888694604F080F848B912
:10174000009800F024FC28B10099D1F8A400027898
:1017500032B901E002200DE0D1F8B810097809B1E2
:101760003A2007E00721017000992888D1F8A410D9
:101770004880002084F82F0038BDBB48017819B19B
:1017800006210E2000F0E9BB002101710E228270BB
:101790000622C270C0F80610C0F80A10817941F024
:1017A00001018171012141710170704738B5AE4C62
:1017B000054694F82E0020B12C210F2000F0CDFB1F
:1017C00038BD1F2084F82F002C2084F83000012021
:1017D00084F82E002888694604F031F848B900984A
:1017E00000F0D5FB28B10098D0F8A4100A7832B9DF
:1017F00001E0022024E0D0F8B82012780AB13A20A3
:101800001EE090F85C20F2B1D5F802204A60D5F8CD
:1018100006208A6050F8A41F6A898A810068102215
:1018200005F10C010E300BF0ABFD00990320D1F84F
:10183000A410087000992888D1F8A41048800020CE
:1018400084F82F0038BD0C20FAE770B5864E0446A8
:101850000C25307828B1BDE8704018210E2000F02A
:101860007CBB02F063FE032852D002F065FE032821
:101870004ED0607908B1012829D1A07908B101289A
:1018800025D1A07B28B1012803D0022801D003284C
:101890001DD1607BD8B1C00819D162884FF4804057
:1018A000824202D82188814203D9207901280ED1B1
:1018B00018E0207930B1012814D0022805D003287F
:1018C00005D102E0202A0BD30CE0A0290AD220790E
:1018D000042805D12088202802D36188884201D9B4
:1018E000122515E0207986F83600607910B10128BC
:1018F00004D00DE05D4A0021204606E096F8420043
:1019000030B1594A01213C32204608F044FC0546DA
:101910000120357170711821F170307070BD10B5F3
:10192000514C217829B11A21BDE810400E2000F059
:1019300014BB01781F2902D91220207106E0002172
:1019400021710278411C104608F0E0FC0120607112
:101950001A21E170207010BD10B5434C217829B1D7
:101960002021BDE810400E2000F0F7BA01781F29B1
:1019700002D91220207106E0002121710278411C59
:10198000104608F0AEFC012060712021E17020704B
:1019900010BDF8B5344C217821B11B210E2000F088
:1019A000DCFAF8BD012666710C2121710078002552
:1019B000012804D000285DD01220207186E002F0BA
:1019C000B5FD40B902F0B8FD28B908F039FBA0F523
:1019D0007F41FF3904D002F0A9FD02282CD075E028
:1019E00008F09FFB002871D0684603F09BFE1F4A59
:1019F00000990C3A916020B11D4940F62D200BF062
:101A00008CFD01220321009804F05AFB009808F095
:101A100045FD00988A3004F033FE20B9144940F6A1
:101A200035200BF07AFD009803F0EBF900284CD03C
:101A30000F4940F6392013E002F07EFD10BB94F808
:101A40003600F8B1012841D004283FD008F069FBE6
:101A5000C0B1002003F0D5F990B3054940F65120FC
:101A60000BF05BFD31E00000701200208C000020C4
:101A7000E008010002F05AFD032804D002F05CFDEA
:101A800003281ED022E002F054FD0090002003F055
:101A9000B7F8D8B92571009890F88A0004F00CFEC8
:101AA00020B9F74940F66B200BF037FD009803F0A2
:101AB00089FE58B1F24940F66F200BF02EFD05E08B
:101AC00003E0002003F09CF800B925711B20E070B2
:101AD0002670F8BD38B5EB4C0546207820B12D2195
:101AE0000E2000F03AFA38BD2888694603F033FE2C
:101AF00008B102200DE0009890F8CA1041B990F8A2
:101B000033100F2901D0102902D190F8FC1059B1DF
:101B10000C2020710E20A0702D20E0702888E0801D
:101B200001206071207038BD1022A91CD8300BF044
:101B300027FC0099042081F8CA000020E9E738B5A5
:101B4000D04C0546207820B12E210E2000F005FA59
:101B500038BD2888694603F0FEFD08B102200AE07E
:101B6000009890F8CA1029B990F833100F290DD0B9
:101B700010290BD00C2020710E20A0702E20E070B8
:101B80002888E08001206071207038BD052180F830
:101B9000CA100020EFE77CB5BA4C0546207820B18A
:101BA00037210E2000F0D9F97CBD2888694603F062
:101BB00055FE38B102202071012060713721E1709B
:101BC00020707CBD01997F22084681F8302081F881
:101BD0003120002281F83220A97800F8241FE9780A
:101BE0004170297981702271E6E71CB5A54C2178F6
:101BF00021B113210E2000F0B0F91CBD0088694608
:101C000003F02CFE08B1022006E0019890F82410A1
:101C1000801C012902D00C20207107E001990022CC
:101C2000227191F8301021720088E08001206071EB
:101C30001321E1700E21A17020701CBDF8B5914CEC
:101C40000546207820B135210E2000F086F9F8BD38
:101C5000A87808B1012803D1A888B0F5FA7F01D986
:101C6000122020712888694603F075FD012630B1E5
:101C70000220207166713520E0702670F8BD009852
:101C8000002780F8C070A988A0F8C21080F89C6076
:101C9000A978012900D0002180F8C01090F89D009B
:101CA00008B103F0A8F92771E4E7F8B5754C0546CB
:101CB000207820B13D210E2000F04FF9F8BD288892
:101CC000694603F048FD012308B1022026E0009A8E
:101CD0006D88D1881089968803EB4107BD4217D3E0
:101CE00042F210777843BF107E43B0FBF6F0401EFF
:101CF00080B24FF4FA76B04200D93046854200D225
:101D00002846401C491CB0FBF1F04843401E81B2FC
:101D100092F8E80000B95184E180002020716371DD
:101D20003D20E0702370F8BD70B5564C0546207814
:101D300028B1BDE8704033210E2000F00EB902F04A
:101D4000F5FB08B10C2017E0297889B10A290FD0DA
:101D500014290DD01E290BD0282909D0322907D0EB
:101D60004B2905D0642903D0FF2901D0122003E0BC
:101D7000284603F0DDF80020207101206071332136
:101D8000E170207070BD70B53E4C0546207828B1DA
:101D9000BDE870403E210E2000F0DFB802F0C6FB27
:101DA00010B902F0C9FB08B10C2003E0287808F054
:101DB000BDFA00202071012060713E21E170207089
:101DC00070BD10B5017801243F2923D2DFE801F06E
:101DD000C2C220C2C24B97C2C2C22326C2C2454E53
:101DE00064C2C25CC2C2C22A9AC29EA2C27C80C223
:101DF000A684888B8F6893C260C2545178AAAEC201
:101E0000362E32BE70B2C274413E3A486CB6BA0049
:101E1000FEF7B7FD9FE0FEF7F7FD9CE0801CFEF7A4
:101E200036FE98E0801CFFF72FF894E0801CFEF748
:101E3000D8FE90E0801CFEF7E2FF8CE0801CFFF7EC
:101E400002F888E0801CFEF7F8FD84E0FEF750FE03
:101E500081E0801CFFF730F97DE0FEF7B6FF7AE005
:101E6000FEF718FF77E0FEF7A4FE74E0FEF759FED8
:101E700071E0FEF788FE6EE0801CFEF7E1FE6AE08E
:101E8000E008010070120020801CFFF7AEFE62E047
:101E9000801CFFF721F85EE0801CFFF7C0F85AE0D5
:101EA000801CFFF78DF856E0801CFEF758FE52E0CC
:101EB000801CFEF76EFF4EE0801CFFF76CFE4AE0D0
:101EC000801CFFF773FC46E0801CFFF720F942E01E
:101ED000801CFFF796F93EE0801CFFF7C2F93AE05C
:101EE000FFF716FB37E0801CFFF74EFB33E0801C4A
:101EF000FFF7C3FB2FE0801CFFF709FC2BE0FFF787
:101F00003CFC28E0801CFFF7A0FC24E0801CFFF7CD
:101F100006FD20E0801CFFF73CFD1CE0801CFFF765
:101F20001BFD18E0801CFFF7D5FD14E0801CFFF7B7
:101F300006FE10E0801CFFF781FE0CE0801CFFF71E
:101F4000B4FE08E0801CFFF71EFF04E0801CFFF7D2
:101F5000EBFE00E00024204610BD264A92F8313006
:101F6000002B06D182F8320082F83310012082F86B
:101F70003100704730B5134606E0CC18D51A14F876
:101F8000014C5B1E4455DBB2002BF6D130BD01780D
:101F900059B990F8411041B990F8901029B190F8D2
:101FA0009000042801D0012070470020704701787C
:101FB000406811B1017821B900E0E8E790F84100EC
:101FC00008B100207047012070470A480021C0F87E
:101FD000F81080F8C41070470178012909D14068D1
:101FE00090F89D10002904D0002180F89D1003F086
:101FF00002B870477012002070B5FF4C0025012018
:1020000065702570A5616572A572E07284F8215033
:1020100084F82F50A56204F13400256302F029F9F9
:1020200020B1F6A140F255100BF077FA257770BD7C
:102030002DE9F0474FF0E0260225C6F88051DFF881
:10204000CCC30027CCF80070F1494FF0010844469A
:10205000C1F80080C1F84C80EE4A1368D2F800A0A5
:1020600003F10109D14588BF434404D9CC64D2F8B7
:1020700000804345FAD84C60CC60CCF800404FF06B
:10208000010C0C60CC641368D2F8009003F10108D5
:10209000C84588BF634404D9CC64D2F800C0634506
:1020A000FAD84C60CC604FF08051896DB1F1FF3FA0
:1020B00010D1D94A40F21B111160121DD74911608D
:1020C000D84AD7491160D84A42F28A011160D84AE9
:1020D000D6491160D7490A1D002833D0012835D0D0
:1020E000C6A140F2A9100BF018FA00BFD24940F285
:1020F0005B600860091F40F203100860081F04605D
:10210000CE4903200860CE4996200860BA48CD49E0
:1021100090F91C0010F10C0F08BFF42043D01ADC1A
:1021200010F1280F14BF10F11E0FD8203BD010F172
:10213000140F08BFEC2036D010F1100F08BFF020AC
:1021400031D01AE0C0480860C04802E0C0480860CA
:10215000C0481060CAE710F1080F08BFF82022D06D
:1021600010F1040F08BFFC201DD0002808BF0F602D
:1021700008D0042808BF086004D0B7A14FF4BE708F
:102180000BF0CBF9B949B8480860BA49B8480860BB
:10219000091FB9480860C6F88052B8491020C1F834
:1021A0000403BDE8F0870860ECE7934A0368C2F8CF
:1021B00002308088D080117270478F4890F82100DB
:1021C00070478D4A5170107070472DE9F0410D46EF
:1021D000044604EB4501908808841078D2F8011079
:1021E000012740EA012044F8250005F1080007FA1C
:1021F00000F6002B04BF206BB04308D0012B04D0A5
:102200007EA140F2EF100BF088F9206B304307FA03
:1022100005F108432063BDE8F08170B50D46044622
:10222000082904D975A14FF400700BF076F900224B
:10223000002D11D954F82210900000F1804000F5D3
:102240008050C0F8001604EB4201098CC0F820163B
:10225000501CC2B29542EDD8206B8949086070BD10
:1022600010B57849044610F10C0F08BFF4202CD0AB
:1022700011DC14F1280F14BF14F11E0FD82024D044
:1022800014F1140F08BFEC201FD014F1100F08BF79
:10229000F0201AD011E014F1080F08BFF82014D074
:1022A00014F1040F08BFFC200FD0002C08BF002041
:1022B0000BD0042C08BF042007D067A14FF4BE70D8
:1022C0000BF02BF94C48047710BD0860FAE74A4838
:1022D00090F82C0070476B4AC178116000686A4919
:1022E000000208607047252808BF02210ED026286A
:1022F00008BF1A210AD0272808BF502106D00A2873
:1023000094BF0422062202EB4001C9B25F4A116069
:102310005F490860704738498861704770B5002888
:102320000CBF01200220344C544A0323A072C2F88F
:102330000032584D4C4B2B6000232375012651B1C0
:1023400001290DD002291BD0BDE870402BA14FF40C
:1023500017700BF0E2B8012814BF5660166070BD0C
:1023600001282549096B14BF41F4001041F4801085
:10237000206314BF4FF400104FF48010286070BD2C
:10238000A06920B91DA140F24F200BF0C6F8A16949
:10239000A06A084440490860414940480860091D56
:1023A00040480860206B40F4004020634FF4004038
:1023B000286084F82F6070BD2DE9F8432F4CD4F8C5
:1023C000000220F00307D4F804034FF01008C0F314
:1023D0000016C4F808830025C4F800522349224897
:1023E0000860FF208DF80000C4F810514FF001097B
:1023F000C4F810905DE00000781300207372635CF5
:1024000068616C5F7263732E63000000FC1F004004
:10241000008000404C8500408C150040700B1B3E36
:10242000206011009C15004034170040010000801E
:102430007417004014150040381500401015004076
:10244000441500400C15004006010200250003025F
:10245000050103001F0003027372635C68616C5F17
:102460007263732E630000000040000408F5014011
:102470004080004084F501401011004000100040F1
:1024800040160040241500401C150040081500406F
:102490005415004004F50140488500404881004043
:1024A00088F50140101000409DF80000401E8DF896
:1024B00000009DF8000018B1D4F810010028F3D0F6
:1024C0009DF8000028B9AFF2700140F26F200BF0C8
:1024D00024F8C4F81051FE484572857280F80B90BC
:1024E000C4F80072002E18BFC4F80483BDE8F88356
:1024F0000068F84920F07F40086070474FF0E02006
:102500000221C0F88011C0F8801270474FF0E0211E
:102510000220C1F800017047EF490870704710B5FC
:10252000EE4801F0AEFE002808BF10BDAFF2341136
:1025300040F2A920BDE810400AF0EFBFE74801F0E3
:10254000B6BEE7490860704770B5E14C0546A06A21
:10255000A84205D3AFF25C1140F2BA200AF0DDFFC9
:1025600001202073DF4900202561C1F84401DE48C5
:102570000560206B40F480002063C801DB490860DF
:1025800070BDD3480221D74A0173C62101610021E1
:10259000C2F84411D44A816AC6311160016B41F41A
:1025A00080010163D1494FF4800008607047D04931
:1025B0004FF480000860C648016B21F4800101637C
:1025C000002101737047C74801214160C1600021AB
:1025D000C0F84411C4480160BD4881627047C549D4
:1025E00040200860C448D0F8001241F04001C0F813
:1025F00000127047C048D0F8001221F04001C0F826
:102600000012BC49002008607047BB48D0F8001297
:1026100021F01001C0F80012012181617047B64815
:102620000021C0F81C11D0F8001241F01001C0F8D0
:1026300000127047B049D1F81C21012A1CBF0020AC
:102640007047AE4A126802F07F02524202700020C8
:10265000C1F81C01AA4800680120704770B50C0041
:10266000054605D1AFF26C2140F29B300AF055FFD0
:1026700014F0010F18BF012C05D0AFF280214FF4E8
:1026800068700AF04AFF002D0CBF0120022090491B
:1026900001284872CC72984904BFD1F8000240F07A
:1026A00004000ED0022804BFD1F8000240F0080058
:1026B00007D0AFF2B821BDE8704040F2B5300AF063
:1026C0002CBFC1F8000270BD2DE9F84F804C0021ED
:1026D000E27A12F0020F18BF10F0040F16D112F0B8
:1026E000100F1CBF94F82D30002B02D094F82E3020
:1026F00063B112F0080F1CBF94F82030002B05D1F5
:1027000012F0040F03D094F8212002B9012194F8AB
:1027100009C07C4A764B00260127774DBCF1000F9B
:1027200019D000F00200084343D0D5F8000220F091
:102730000309D5F804034FF0100AC0F30018C5F8D8
:1027400008A3C5F800621A60FF208DF80000C5F8E4
:1027500010612F610FE01A60D5F8000220F003002D
:10276000C5F80002A672E772BDE8F88F9DF8000078
:10277000401E8DF800009DF8000018B1D5F810013A
:102780000028F3D09DF8000028B9AFF2343140F2B0
:102790006F200AF0C2FEC5F810616672A672E77279
:1027A000C5F80092B8F1000F18BFC5F804A3BDE842
:1027B000F88FBCF1010F0AD0BCF1020F12D0AFF2BA
:1027C000C431BDE8F84F40F206400AF0A6BED5F885
:1027D000000220F00400C5F800026672E772A772DA
:1027E000BDE8F88FD5F8000220F00800C5F8000217
:1027F0006672E7720220A072BDE8F88F344908754E
:1028000070472DE9F84F324C3948214694F82F2073
:10281000096B0127384D00264FF0E028002A7CD0B4
:10282000EA13026021F400412163D5F800924FF0D1
:10283000100AC5F808A3C5F800624FF4804BC0F831
:1028400000B0FF208DF80000C5F810612F6104E092
:102850009DF80000401E8DF800009DF8000018B1A2
:10286000D5F810010028F3D09DF8000028B9AFF288
:10287000184140F26F200AF050FEC5F80C61C5F80F
:102880001061C5F80461C5F81461C5F818611E48E7
:102890000068C5F800921548C0F800B0C5F804A358
:1028A000A07A012808BF2F6009D0022808BF6F60F6
:1028B00005D0AFF25C4140F295300AF02EFE84F86C
:1028C0002F60207D022818BFBDE8F88F1EE024E0AD
:1028D000781300203C15004092000020AC1300202B
:1028E00004150040008000404485004004F501408C
:1028F00008F50140601500400010004048150040F8
:102900001C1100400040000418110040D8F80002DB
:1029100010F0020FDAD0BDE8F88F01602663207B4B
:10292000DFF8489318B1D9F84401012800D00020FD
:10293000D5F8101101290CBF40220022A17A0129EB
:1029400005BFD5F80C31012B002320231A430129A0
:1029500005BFD5F80431012B002310231343C44ACB
:10296000022904BFD2F800C0BCF1010F07D1D5F88D
:102970000CC1BCF1010F08BF4FF0080C01D04FF0A3
:10298000000C4CEA0303022904BF1268002A05D197
:10299000D5F80C21012A08BF042200D000221A43D6
:1029A000022903D1002818BF022000D100201043C3
:1029B000022904BFD5F80411012905D1D9F8441121
:1029C000012918BF012100D1002141EA000AA948CC
:1029D000016811F0FF0F03D0D5F81411012900D0C0
:1029E000002184F82C10006810F0FF0F03D0D5F8F8
:1029F0001801012800D0002084F82D009E480068AE
:102A000018B100F00EFA012800D0002084F82E0042
:102A1000C5F80C61C5F81061C5F80461C5F814610A
:102A2000C5F8186195480068C9F844619448006881
:102A3000DFF850B226755546DBF80000ABF1040113
:102A400060620A68A262A17ADFF83CA202290CD176
:102A5000617851B1DAF800301B781940237833EAF5
:102A6000010108BF84F8207001D084F82060874FEE
:102A700015F0010F1BD03978032918BF02290FD098
:102A800002F0E3FB0121A06A02F0F0FBDAF800009B
:102A9000062200F10901A01C0AF046FC68BB23E0F5
:102AA00007F077F90121A06A07F074F9EEE715F055
:102AB000200F0DD03878032818BF02284FF00201EC
:102AC000104602D002F0D2FBE0E707F063F9DDE741
:102AD00015F0020FDAD03878032818BF02284FF01B
:102AE00000011046E0D0CFE7207ADAF8001009782C
:102AF000B0EBD11F08BF012000D0002084F82100D6
:102B00002846FFF7E1FD387878B1012824D0022863
:102B100039D003285BD0AFF21C7140F234500AF078
:102B2000FCFCA07A02287CD168E015F0020F18BFE7
:102B300007F0DFFD15F0080F1CBF012007F01BFE9A
:102B400015F0040F1CBF002007F015FE15F0200F34
:102B500018BF07F068FDE4E715F0020F18BF09F091
:102B600023F915F0080F1CBF012008F081FF15F0B4
:102B7000040F1CBF002008F07BFF15F0200F18BFCA
:102B800008F0BDFECDE715F0020F1CBF25F0400593
:102B900004F042FF15F0080F04D025F04005012095
:102BA00004F0A0FB15F0040F04D025F04005002030
:102BB00004F098FB15F0200F1CBF25F0400504F031
:102BC0008BFE15F0400F18BF04F06BFBA9E715F062
:102BD000020F18BF05F072FF15F0080F1CBF01208F
:102BE00005F02FFE15F0040F1CBF002005F029FE94
:102BF00015F0200F18BF05F092FD92E7207B80B101
:102C0000C9F8446102282CD0012805D0AFF6140180
:102C100040F249500AF081FCA16A2069884207D835
:102C200000E011E0AFF62C0140F24A500AF075FCCA
:102C3000D4F81000CBF80000206B4FF4800140F472
:102C40008000206312480160207D012818BFBDE884
:102C5000F88F00BFD8F8000210F0020FFAD0BDE8DC
:102C6000F88F2169A06A0844E4E700000080004072
:102C7000001400404016004060150040181100404C
:102C8000448100404485004004150040920000202B
:102C900004F501403248002101704170704770B561
:102CA000064614460D460120F0F77CFB2C49012016
:102CB00008702C480660001D0460001D056070BD92
:102CC0002DE9F04104460120F0F76CFB2449012076
:102CD000087025490C60254D0026C5F8046124497B
:102CE0004FF040770F60A1F104085CB1012C03D0D4
:102CF00020A140200AF011FCC5F80062C8F800705D
:102D0000BDE8F081C5F800024FF08070C8F80000FF
:102D1000BDE8F0811248017879B1154A4FF0407151
:102D200011601249D1F804210021002A08BF417026
:102D300002D0144A1268427001700020F0F732BBD2
:102D400007480178002904BF407870470748D0F849
:102D50000401002808BF70470A480068C0B27047E5
:102D60009300002008F5004004F5004000F000400A
:102D700008F501407372635C68616C5F63636D2E7C
:102D80006300000000F400404048002101704170E1
:102D900010218170704770B5054616460C4602201A
:102DA000F0F700FB3949012008703949F01E08602E
:102DB00038480560001F046070BD10B50220F0F7B0
:102DC000F1FA32490120087033480021C0F800119F
:102DD000C0F80411C0F8081130494FF40000086031
:102DE00010BD2A480178C9B12D4A4FF40001116085
:102DF0002949D1F800310022002B1CBFD1F8043141
:102E0000002B02D0D1F8081111B14270102103E05B
:102E10000121417023490968817002700020F0F798
:102E2000C1BA1A480178002904BF407870471A488F
:102E3000D0F80011002904BF02207047D0F800111B
:102E400000291CBFD0F80411002905D0D0F80801D2
:102E5000002804BF01207047002070470B4801780C
:102E6000002904BF807870470B48D0F80011002972
:102E70001CBFD0F80411002902D0D0F8080108B115
:102E80001020704707480068C0B2704795000020C6
:102E900010F5004008F5004000F0004004F5014046
:102EA00008F5014000F400402DE9FF4F8DB0934636
:102EB000DDE91A56DDF8749004464FF0000A082A3E
:102EC00006D0E06900F098FF58B110203070BCE0E7
:102ED0002888092140F01000288089F80010022776
:102EE00017E0E16901208871E2694FF42051918077
:102EF000E1698872E06942F601010181E16900201F
:102F00008873288840F020002880112089F800006C
:102F10000427307809900A20307004F1180009F174
:102F2000020802250B90F5F7C9FA002066E000BF01
:102F3000BBF1100F06D1022D04D0A8EB0A00BDF89A
:102F40000C204280BDF80E001099884203D9FE493A
:102F5000097A0E9104E003D1099909B131701FE09B
:102F6000A8F800001C980088A0EB0500A0EB070063
:102F700083B2C7F1FF00984200D203460E980AAA16
:102F800008EB07018DE8070094F82010BDF80E004B
:102F90000022F5F700FB307030B1C0B2832858D062
:102FA000BDF80E0020833DE0089828B1E64800688F
:102FB00000790A282BD335E0BDF82800C11901F0AB
:102FC000FF0A022D0ED099F80110514503D1BDF82A
:102FD0001820824208D0DC488A460068017803291C
:102FE00008D021E089F801A0D748006801780429B9
:102FF00006D008E000790A2816D20120089006E0E1
:10300000BDF80E10818005EB0A00D04485B203AAFA
:103010000E990B98F5F755FA20B91C980088401BBB
:10302000B84285DA022D0BD0BBF1100F04D1A8EB0A
:103030000A01BDF80C0048801C9805800020307003
:10304000C14800680078032803D0002011B0BDE813
:10305000F08F0220FAE72DE9F0410446406B134659
:10306000002600B3491F8DB2618F05F10802278F3A
:103070000A44BA4218D80844B3F8011020F8021BD9
:10308000B3F8031020F8021B2A4620F8025B591DF2
:103090000AF076F9608FAD1D284480B26087626BBC
:1030A00000211044018000E009263046BDE8F0818F
:1030B00010B50B88048F9C420CD9446BE01804882F
:1030C00044B1848824F40044A41D23440B80106080
:1030D000002010BD822010BD2DE9F04788B00025EA
:1030E000904689468246ADF81050052745E0039882
:1030F00006888088000440D4A8F8006005A80097DE
:10310000CDE901504FF40073002249463046F5F7EF
:1031100042FA040038D1BDF81000ADF81800039849
:1031200004888188B44214D10A0412D4CDE900572E
:1031300021F40041029541F48043428849462046EB
:10314000F5F73AF804000BD10398818841F4004167
:10315000818003AA06A95046FFF7AAFF0400DED02B
:10316000CDE9005703980295BDF81430008800227D
:103170004946F5F721F8822C06D103AA04A9504646
:10318000FFF796FF0400B2D0ADF8105004E00398AA
:10319000818821F40041818003AA04A95046FFF7E9
:1031A00087FF0028F3D0822C03D0204608B0BDE86A
:1031B000F0870020FAE730B50446406B97B0002551
:1031C00070B10B208DF80000208FADF80800606B07
:1031D0000391019000216846F2F706FA8DF800503D
:1031E00065636587258717B030BD2DE9F04104463A
:1031F00086B00E46616B00200C9D174600292AD030
:10320000012B28D12A4631462046FFF765FF0028CA
:1032100021D1002F1FD0A04634460026ADF8106003
:1032200005270EE003980088288003980296811DE8
:10323000CDE900178388428800882146F4F7BCFF57
:1032400030B903AA04A94046FFF732FF0028E9D0AD
:10325000822800D1002006B028E700220280C26246
:10326000831D0263C36142634287028780F8201096
:1032700070474FF6FF7202800420FBF7B7B910B514
:1032800096B00446FFF797FF208E40B101208DF8DD
:103290000000E06A019000216846F2F7A5F90020DD
:1032A000E062206316B010BD0146002009880A07BD
:1032B00000D5012011F0F00F01D040F00200CA0546
:1032C00001D540F004008A0501D540F01000490501
:1032D00001D540F0200070472DE9FF4FA9B0984676
:1032E000369E2B9D399C070018D02878410611D4B2
:1032F00000F03F011E290BD0218811F4FE6F0DD183
:10330000B8F80020172A09D3A1F57F42FF3A05D06B
:10331000010606D500F03F00122802D003202DB090
:1033200095E604F12C00084926902A984FF00009F0
:1033300008728DF810908DF834900DAA0A60379AB3
:10334000CB464A6002E00000B0130020ADF81490B4
:10335000ADF8949028780322864600F03F03711C54
:10336000781F04F1180C4FF0040ACDF89CC01F2BF5
:103370007ED2DFE803F07D7D107D1D7D887DEF7DB1
:10338000EE7DED7DEC7DEF7DEB7D7D7DEA7DE97D64
:103390007D7D7D7DE800032F03D000BF8DF810A058
:1033A000CAE232701720A6F80100A8F800209BE2BC
:1033B000052FF3D1B5F801002083ADF81400B5F85E
:1033C0000310618300287CD088427AD884F808B042
:1033D000A4F806B04FF6FF7060842798F5F76EF8F2
:1033E00005203070B01C00904FF0020A08AA2A99FC
:1033F0002798F5F766F800287ED19DF82600012869
:1034000003D002207070102002E0012070700220B2
:103410008346002224A909A8F1F797FC38BB9DF840
:103420009000834523D1B8F80020801CA2EB0A014C
:1034300081421CDB0098BDF822100AF1020A0180CB
:10344000009909A8891C0A46009124A9F1F77DFC7E
:103450009DF89000009908AA014450441FFA80FA90
:1034600000912A992798F5F72CF80028D1D000E090
:1034700048E2BAF1020F3FD0A8F800A034E200BF42
:103480008DF8100030E2072F88D3B5F801002083B3
:10349000ADF81400B5F80310618390B1884210D8DC
:1034A0004FF0010A84F808A0B5F80500E08000207C
:1034B0002073E06900F0A0FC90B9E16981F806A0F2
:1034C00000E079E0E2694FF4205142F6010091807A
:1034D000E16981F80AA0E1690881E1690020887347
:1034E000F81F6084E81D60622798F4F7E7FF072063
:1034F000307006F1010A00E06EE000204FF0010B91
:10350000ADF8220018E000BFBBF1010F0CD0E0695C
:10351000807901281FD03AF8021C00BF0BF102008D
:103520002AF8021B1FFA80FBBDF822100BF10200E3
:103530002AF8021B1FFA80FB08AA2A992798F4F799
:10354000C0FF58B110E0BBE154E106E1ADE0B3E1EA
:103550007AE059E020E0BDF82010DFE7B8F800106D
:10356000A1EB0B000428CFDABBF1010F34D0E069E6
:10357000807901280DD0BDF82010A1F57F40FF38DB
:1035800007D03AF8021C00BFAAF800100BF10200A5
:103590008EE1BDF82010F7E7072F02D0152F7FF43A
:1035A000FDAEB5F801102183ADF81410B5F8032075
:1035B000628309B1914201D9012061E701212172A1
:1035C000A4F806B084F80CB0052F07D0C0B2691D6E
:1035D000E269F1F79BFB08B10A2051E74FF6FF7053
:1035E000608404A925AACDE90021CDE902862878C6
:1035F000002300F03F0220462A99FFF755FC814640
:10360000208BADF814006FE1032FC8D14020ADF836
:103610009400B5F8010020832A9AADF81400CDE992
:1036200000210AAB0293B8F800100022491E8BB2A9
:1036300094F82010F4F7AFFF8DF8100058BB0B2062
:103640003070BDF828002EE0052FA8D18020ADF8FD
:103650009400B5F801002083B5F803206284ADF82A
:103660001400B2F5007F01D9072009E742F47C423B
:1036700062842A9BCDE900310DF12C0CCDF808C0F5
:10368000B8F80010491E8BB294F82010F4F783FFAD
:103690008DF8100018B18328B5D10220A8E00D20C4
:1036A0003070BDF82C00401C02E14FEADE1000EB48
:1036B000400002EB8000B84205D95FEA4E607FF51A
:1036C0006DAE5846F4E0B5F801C0ADF814C02978E5
:1036D000490608D505218DF834102978090605D545
:1036E0008DF834B012E106218DF834102A9BE91CC4
:1036F000CDE90013A7EB000ACDF808B009911FFA35
:103700008AF394F8201000226046F4F755FD8DF8F6
:1037100010008DF834B0832801D14FF002092878C9
:1037200040060DD52088C00506D5208BBDF81410A5
:10373000884201D1C4F824B058468DF810B0B7E0E3
:103740004FF48070ADF89400BDF814002083A4F805
:1037500022A0099860621320A8E0052FFFF41EAE96
:10376000B5F801C0ADF814C0218F4FF6FE7A09B14B
:10377000514505D10A218DF83410A4F838A002E093
:1037800007218DF834102A9A6B1DCDE9003280B2E2
:10379000CDF808B040F40043B5F8032094F82010A9
:1037A0006046F4F709FD4FF400718DF810008DF8B4
:1037B00034B0ADF89410832806D048B1218F51451C
:1037C00079D1A4F838B08FE0BDF81400208364E705
:1037D000606B38B12A4639462046FFF73CFC8DF82D
:1037E000100080BB334642462946384600F013FBA2
:1037F000814679E095F801A0022F7DD15FEA0A00A9
:1038000002D0BAF1010F77D108208DF8340005A855
:1038100000908DF838A094F82010534600222046DE
:10382000FFF7E3FC8DF839008DF83AB010B9BAF122
:10383000010F09D0208F38B14FF480608DF834B07B
:10384000ADF894000EE04FE00DA83799F1F7CCFEEB
:1038500081464FF480608DF834B0ADF89400B9F132
:10386000020F06D0FA480068807928B18DF8100060
:1038700044E0A4F818A037E0B9F1000F03D081208C
:103880008DF8100044E005A8009094F820105346ED
:1038900001222046FFF7A9FC8DF810002046389938
:1038A000FFF789FC9DF81000F0B919203070012055
:1038B000A8F8000018E03FE006208DF810003BE07B
:1038C0002078000722D5012F20D109208DF834005F
:1038D000A088ADF8380004203899FAF787FE082050
:1038E000ADF89400A8F800B09DF8340030B10DA8F0
:1038F0003799F1F779FE00E008E08146B9F1000F51
:1039000017D005E05FEA4E607FF548AD4FF0030940
:103910002088BDF8941008432080BDF8940010F46E
:10392000FE6F04D026992B98086026988780484619
:10393000F5E49DF8100060B10120307028787070B7
:10394000BDF8140070809DF8100030710520A8F8B3
:1039500000002088BDF8941088432080E7E72DE917
:10396000FF4F027806464FF0010B44680BFA02F055
:10397000A7B04FF609021040ADF8280022884FF694
:10398000FF734FF000089A4202D028B1100703D508
:1039900001202BB0BDE8F08F2A9F4FF0000ADFF81E
:1039A000B0C287F800A0299A0BA855461288ADF836
:1039B00018208DF824A08CF808108DF82CA0CCF8D5
:1039C00000003498CCF804003078052104F12C096B
:1039D00001282CD0022808D003286ED1387820F096
:1039E0003F001D303870B089A0803078022804D1A3
:1039F000387820F03F001B303870F81CCDE90010FB
:103A000023AABDF818000292C01E83B294F82010B9
:103A1000B0890022F4F7BFFD0028DED1B089A7F8F5
:103A20000100BDF88C00C01CADF8180013E1707BDC
:103A30008DF8240096F80CC04FF4007EBCF1010F05
:103A400003D0BCF1020FC8D1ECE0238803F4FE6C74
:103A50002A9BADF828C05B1CBCF1800F4AD009DC62
:103A6000BCF1100F10D0BCF1200F0DD0BCF1400FF5
:103A700008D123E0BCF5807F61D0F4457BD0BCF554
:103A8000806F77D0052596E02078C00601D5082004
:103A900000E01020804604208DF82C00ADF830A006
:103AA00006A809AA0AABCDE90032CDE90207338A9C
:103AB00042462046FFF7F8F978E0DFE0B6F81080DC
:103AC000B4F818C0E0455AD14FF00A08B0BB23A89B
:103AD0000091CDE90130521E93B294F820100022DB
:103AE0006046F4F758FD8DF824000B203870BDF8BF
:103AF0008C001AE0B6F81080B4F818C0E0453ED14A
:103B00004FF00C08D0B925A80091CDE90130521E24
:103B100093B2628C94F820106046F4F73CFD8DF867
:103B200024000D203870BDF89400401CADF818003A
:103B300004208DF82C00208BADF830003BE0328A59
:103B4000B4F818C062451AD14FF0120898BB606AE9
:103B500050B18DE80304638C94F820100022604675
:103B6000F4F72AFB8DF8240013203870ADF818B054
:103B700021E000E039E0318A228B914201D0042516
:103B8000A5E04FF01608B0B9B9F804102046D9F8EE
:103B90000020FFF760FA8DF8240060B9B9F804003E
:103BA0003B4606AAD9F8001000F035F90546022870
:103BB00016D0042D14D0B9F8040070B19DF82C0073
:103BC00020B10BA83499F1F70FFD05468DF82CB004
:103BD000D9F800000C90A9F804A0C5B3052D4ED06B
:103BE0009DF82C0003286CD071E04FF0180830B11C
:103BF000308A20832046B168FFF7DDFADBE704F165
:103C000018000090237E94F8201001222046FFF730
:103C1000ECFA8DF824000028ECD119203870ADF8AA
:103C200018B0E7E7208800F40070ADF82800704570
:103C300024D1208FA0F57F41FE39A0D130694FF00B
:103C4000160838B16063B08A2087A4F83AA002E071
:103C5000B01300202387BDF8280030F4FE6114D093
:103C6000782300220420B168FAF705FC3078A070B0
:103C70002088BDF828100843208009E00525208809
:103C8000BDF828108843208021E0218881432180CD
:103C90009DF82C0028B1684841680BA8F1F7A4FCF6
:103CA00005469DF8240090B187F8018087F800B0A0
:103CB000208B78809DF8240038710520ADF818001D
:103CC00005E05D4841680BA8F1F78EFC05465A48AF
:103CD000017A208810F4FE6F21D1B9F80400F0B108
:103CE000299A2A9B56461288ADF81820349ACDE9B5
:103CF00002A4CDE9003206ABD9F80020FFF7ECFAB8
:103D0000054602280BD08DF82CB0D9F800000C9095
:103D10000BA83499F1F768FC0546A9F804602998C6
:103D2000BDF818100180284633E600B597B0042886
:103D300007D102208DF80000019100216846F1F7BB
:103D400053FC17B000BD70B53B4C037800222168CE
:103D5000012B02D0022B44D129E00B780BB1042BAC
:103D600003D10A7122680321117021680625828817
:103D70000B7905EBC303CA52216808230A250A7987
:103D800003EBC2021144C2880A80216802890B79C0
:103D900005EBC303CA52418920680C23027903EB67
:103DA000C202815220680179491C01711DE00A7428
:103DB00082888A802168C288CA802268018911812C
:103DC000226841895181C1682068C1606168F1F74A
:103DD0000BFC0146022806D02068007C002801D197
:103DE00019B1812070BD832070BD002070BD406B73
:103DF000002800D0012070478178012909D100886E
:103E0000B0F5205F03D042F60101884201D10020C5
:103E100070470520704710B51488844201D20520F0
:103E200010BD17241C701080421E581C491C09F03C
:103E3000A7FA002010BD0000B013002070B50346A3
:103E4000002002466FF02F050EE09C5CA4F13006C6
:103E50000A2E02D34FF0FF3070BD00EB800005EB5F
:103E60004000521C2044D2B28A42EED370BD30B51D
:103E70000A240AE0B0FBF4F304FB13008D18303081
:103E800005F8010C521E1846D2B2002AF2D130BDFC
:103E900030B500234FF6FF7510E0040A44EA002015
:103EA00084B2C85C6040C0F30314604005EA00348B
:103EB0004440E0B25B1C84EA40109BB29342ECD3D6
:103EC00030BD000010B572B600F0BCF840B1EFF79D
:103ED000DDF9FAF774FD08F023FD5F490020086062
:103EE00062B6002010BD70B50E46054672B600F0F1
:103EF000A9F810B162B6082070BDEFF765F958490E
:103F000056484867EFF7C4F9024600214FF0E02316
:103F1000D3F80001C840C0071AD022FA01F0C00748
:103F200012D148B2002806DA00F00F0000F1E020BC
:103F300090F8140D03E000F1E02090F8000440092F
:103F4000012805D0032803D062B641F2010070BDFC
:103F5000491C2029DCD3142D42D2DFE805F02022B1
:103F6000222222222222220A0C0E10121E141618BD
:103F70001A1C002416E0012414E0022412E0032499
:103F800010E004240EE008240CE009240AE00A24CE
:103F900008E00B2406E00C2404E0052402E00724DA
:103FA00000E006242F49402081F8140D2A492E48AC
:103FB00008602E480660EFF76BF9214608F096FC82
:103FC000FAF7B0FC08F0BAFE08F008FD2846EFF753
:103FD0002BF9040062B607D0FFF774FF204670BDCE
:103FE00062B64FF4805070BD002070BD10B504461D
:103FF00000F028F800B101202070002010BD1C49FD
:1040000008600020704710B50C46102808D0112811
:104010000BD012280CD013280ED00120086010BD40
:10402000D4E90001FFF75FFF0AE0FFF74BFF07E06D
:104030002068FFF7DBFF03E00D49206808600020DF
:10404000206010BD044808490068884201D1012061
:104050007047002070470000640000200DF0ADBAEA
:1040600000C007400BE000E0BEBAFECA9800002086
:104070000400002010B520380C46332871D2DFE848
:1040800000F0A6AAAEB2B8BCC0C5E0DBE41A1E229E
:10409000262B30363B40464C4F53575B5F6C716468
:1040A0006874787C8084888C9094989C9FA2CACFF6
:1040B000E9EDF1D3D700206800F0DBF8D5E0206807
:1040C00000F0DFF8D1E0206800F0F1F8CDE02078D2
:1040D00040B208F07BFAC8E0207840B208F09BFAC2
:1040E000C3E02078616840B208F0B0FABDE0207803
:1040F00040B208F0C4FAB8E0207840B208F0D3FA31
:10410000B3E02078217940B208F0E1FAADE0207800
:10411000616840B208F0FCFAA7E008F008FBA4E0F0
:10412000206808F010FBA0E0207808F027FB9CE056
:104130002068F9F778FF98E02068F9F778FF94E0B5
:1041400021792068F9F77AFF8FE0206808F094F968
:104150008BE0206808F095F987E0207808F095F961
:1041600083E084E008F09EF97FE0207808F0A3F96E
:104170007BE0207808F0B8F977E0206808F0D5F9FE
:1041800073E0206808F0D8F96FE0206808F0DBF9E8
:104190006BE0206808F0DDF967E0206808F0E0F9DE
:1041A00063E0206808F0E3F95FE0206808F0E5F9D3
:1041B0005BE02046EFF720F857E0F0F7D2F854E044
:1041C000F0F7FDF851E02068F0F704F94DE02068C1
:1041D00000F0DCF849E0206800F0E4F845E02068F1
:1041E00000F0ECF841E0D4E90112207800F0F2F898
:1041F0003BE0207800F006F937E0207800F016F96F
:1042000033E02078616800F026F92EE020786168BC
:1042100000F03BF929E02179207808F0B1FB24E097
:10422000206800F067F820E02068FAF79BFA1CE0AD
:104230002068FAF77BFA18E094E8070008F0C6FC5B
:1042400013E0206808F016FD0FE094E80F0008F076
:1042500040FD0AE0206808F02CFF06E008F040FF6F
:1042600003E0FFE7206808F06FFF206010BD012029
:10427000FBE70021017008467047014600200870E6
:104280007047EFF3108101F0010172B60278012A44
:1042900001D0012200E000220123037001B962B6BF
:1042A0000AB1002070474FF400507047E9E7EFF380
:1042B000108111F0010F72B64FF00002027000D1B0
:1042C00062B600207047F2E710B52948FFF7D1FF2A
:1042D00018B128A11E2009F020F92548401CFFF73D
:1042E000C8FF002805D0BDE8104022A1222009F017
:1042F00014B910BD2DE9F041DFF888800746D8F8E1
:10430000006001251A48FFF7BCFF194C18B90025B9
:10431000601CFFF7CCFF00231B484246012141608F
:10432000C0F80031C0F8043117600160D0F800C156
:10433000BCF1000F04D1D0F804C1BCF1000FF5D0DE
:10434000D0F804C1BCF1000FE9D125B11660601CA2
:10435000FFF797FF07E0601CFFF793FF0028D7D116
:104360000348FFF7A4FF0020BDE8F081C2E700008A
:104370009C0000207372635C736F635F6563622EE1
:104380006300000004E5004000E000406249634B28
:104390000A6863499A42096801D1C1F30D010160BD
:1043A000002070475C495D4B0A685D49091D9A42CF
:1043B00001D1C0F30D000860002070475649574BEB
:1043C0000A68574908319A4201D1C0F30D000860CC
:1043D0000020704730B5504B504D1C6842F2080326
:1043E000AC4202D0102802D203E00E2801D31846B6
:1043F00030BDC3004B481844C0F81015C0F8142550
:10440000002030BD4449454B0A6842F209019A42F6
:1044100002D0042802D203E0022801D308467047E4
:10442000404A012142F83010002070473A493B4B86
:104430000A6842F209019A4202D0042802D203E03B
:10444000022801D308467047364A012102EBC0001A
:1044500041600020704770B52F4A304E314C1568CE
:1044600042F2090304EB8002B54204D0042804D2CE
:10447000C2F8001807E0022801D3184670BDC1F346
:104480000D00C2F80008002070BD70B5224A234E0E
:10449000244C156842F2090304EB8002B54204D0B3
:1044A000042804D2D2F8000807E0022801D31846F5
:1044B00070BDD2F80008C0F30D000860002070BD88
:1044C000174910B50831184808600E20154A002118
:1044D00002EBC003C3F81015C3F81415401C1028D4
:1044E000F6D3002006E0022804D302EB8003C3F8D1
:1044F000001807E002EB8003D3F80048C4F30D0472
:10450000C3F80048401C0428EDD310BD04490648F8
:10451000083108607047000064000020BEBAFECA7F
:1045200000F5014000F0014000C0FFFFF748C07EE9
:104530007047F74840687047F648C07E70472DE9DD
:10454000FF4FF24E83B08846706A34685FEA030911
:104550000568D4F804B0306A0190298D0598A0EB65
:10456000010080B2009019BF04F1380704F1480A35
:10457000371D05F1A00A032038710398002839D0AF
:10458000012800F0EF8002287DD0032800F022816E
:10459000E1A140F22B5008F0C0FF00BFB9F1000FBD
:1045A0001CBF3879032804D0DBA140F2345008F056
:1045B000B4FFA16A7069FAF7D4FDB860D4E90810B5
:1045C00081428EBFCAF800000846CAF8001000F603
:1045D000FF30F860B5F890100598081A00B200286E
:1045E00040F35F810398022818BF032040F05A81EE
:1045F00000F057B9306A20B9C7A140F2B14008F0C5
:104600008CFF298B40F27120484340F2E24101EBDC
:1046100040010020B8F1000F06D0C34808FB01F1AB
:10462000B1FBF0F000F10100A061A98840F2E24284
:1046300001FB02F24FF0000106D0BB4908FB02F279
:10464000B2FBF1F101F10101E161316A40F2712344
:1046500001F10201A1622A8B02FB03F2C0EB4202CC
:1046600002F233421144A162AA7D40F2E24312FBFE
:1046700003F202EB400000F58C7020626062306A49
:10468000A1EB000000E00DE0A849A0F58A70091830
:1046900084D2B0F5F67F64D29FA140F2CE4008F0FC
:1046A0003CFF94E0298B40F27122E068514300EB1B
:1046B00041010020B8F1000F06D09B4808FB01F132
:1046C000B1FBF0F000F10100A061A88840F2E241E6
:1046D00000FB01F14FF0000006D0934808FB01F108
:1046E000B1FBF0F000F10100E061306A20B98AA16D
:1046F00040F2D64008F011FFB5F8A600298B00283B
:1047000040F27122E06801FB02F100EB4100A16977
:10471000A0EB010003D13168D63849680844A06293
:104720002269A168A06901FB0200A97D40F2E24272
:1047300011FB02F101EB400000F58B702062A988AB
:104740005210E0695143C0EB4100A0F23B3060627F
:10475000A06A316A401AA0F5AA7174484018BFF4E3
:104760001DAF34E0B5F8A60000281CBF306A002851
:1047700004D169A140F2EF4008F0CFFEA98840F2D1
:104780007122E0695143C0EB4101A162B5F8A63046
:104790002269D4F818C0D4F808809B1A08FB02C21A
:1047A00003FB0020AA7D40F2E24312FB03F202EB7E
:1047B000400000F58B702062A1F23B306062306AED
:1047C000081AA0F5AA7159484018BFF4E7AE0120B5
:1047D0003871E3E6B9F1000F1CBF94F834000028EB
:1047E00003D007B00220BDE8F08FA98840F2712203
:1047F000E0695143C0EB410100984843A062B5F81D
:10480000A60050B3BBF1000F04D043A140F21550F5
:1048100008F083FEB5F8A610009800220144E06974
:10482000414302EB410101F58B712162A98840F2FD
:1048300071225143C0EB4100A0F23B3060623C4822
:104840004068D8B1A26A01990120511AA1F5AA7253
:104850003649891838BF3871A0E6BBF1000F1CBF7C
:104860000198002804D12CA140F20E5008F055FE0A
:10487000A06AABF1D6010844A062CBE7FAF774F95D
:10488000726901461046FBF787FCA16A081AA0F27C
:104890004F11264840183EBF012007B0BDE8F08FF9
:1048A0007CE6002078711098C8B1B5F8B8100029DE
:1048B0000CBF0020B5F8BA00A5F8BA0095F8BC20E6
:1048C000401C504388420AD27879401E002806DDF9
:1048D00001207871B5F8BA00401CA5F8BA0087F835
:1048E0000090B9F1000F1CBF94F8340000287FF449
:1048F00078AF89F0010084F83500307FF27E3946C8
:10490000B37E9A4216D0FAF7FFFD18E0BC130020E0
:10491000B8000020E41300207372635C6C6C5F6C61
:104920006D2E73302E63000040420F00D5F8FFFF5C
:10493000A80000200020F076B0763060706207B0EA
:104940000020BDE8F08F70B5FE4D0929D5E9003291
:1049500080F0BD80DFE801F0056E98A894BBBBC273
:10496000B70000201062D17E04295CD2DFE801F09C
:104970005B5B024D516A0C681168087011684860F1
:10498000106890F8350040B9FAF7EEF869680968E0
:10499000096CFBF701FC002818DC686801684A8E86
:1049A000218D8A4206D1B4F89420511AA4F89610A9
:1049B000228505E0511AA4F896100168498E2185D8
:1049C0000268C1681164C168416111E068680168EA
:1049D000098E228D891AA4F896100168098E218506
:1049E00001680A6CC2600A6C4261886CC4F8A0005D
:1049F000204606F006FE002808BF70BDD2A1BDE823
:104A0000704040F2B23008F088BDD068506105F0C7
:104A100091FC002808BF70BDCBA1BDE870404FF4E9
:104A20006E7008F07ABDBDE87040C7A140F2BF309B
:104A300008F073BDD07E04281BD2DFE800F01A1AFC
:104A4000020E06F029FF002808BF70BDBEA1BDE818
:104A5000704040F2D13008F060BD05F0B3FD002891
:104A600008BF70BDB8A1BDE8704040F2D53008F075
:104A700054BDBDE87040B4A14FF4777008F04DBD4F
:104A8000BDE87040FDF7BDBED87E022817D0D87EA5
:104A900003281CBFACA14FF4D47001D008F03DFD39
:104AA000BDE8704000F007BCD87E022807D0D87E51
:104AB00003281CBFA4A140F2B310F1D0EEE7BDE87B
:104AC000704000F043BCBDE87040FAF72FB8BDE875
:104AD00070409DA140F2C11008F01FBD70BD2DE9CE
:104AE000F0470126974C9C4D81460F46092950D22C
:104AF000DFE801F0053C47473C4F4F474700DFF8F0
:104B00005882606820B190A14FF4867008F005FDCE
:104B100039464846C4F80480FFF715FFE87E0228AE
:104B200018BFBDE8F08760680468406A0768F9F755
:104B3000F6FFBA8840F27123E1695A43C1EB4201A2
:104B4000D639E162B72832BFA1F2FF60081AA0F59A
:104B5000C960E062E16A40F2EC60814298BF0846B9
:104B6000E062286880F83460BDE8F0874846FFF7C7
:104B7000EAFEE87E022804BF286880F83460BDE8B9
:104B8000F08748462560FFF7DEFE00202060BDE884
:104B9000F087BDE8F0476CA140F2611008F0BDBCA1
:104BA0002DE9F041674C07460D46092921D2DFE87F
:104BB00001F005131717132020171700674E6068C0
:104BC00020B161A14FF4867008F0A7FC2946384651
:104BD0006660BDE8F041B6E63846BDE8F041B2E6B1
:104BE0005E4820603846FFF7AEFE00202060BDE83A
:104BF000F081BDE8F04154A140F2871008F08DBC6F
