:020000040003F7
:10DC00000C7A0020A5EE0300A7EE0300A9EE0300A6
:10DC10000000000000000000000000000000000004
:10DC200000000000000000000000000055DC0300C0
:10DC30000000000000000000ADEE0300AFEE0300A6
:10DC40000348854601F066F90048004741DE0300BD
:10DC50000C7A00200648704502D1EFF3098101E0FB
:10DC6000EFF30881886902380078024A1047000003
:10DC7000FDFFFFFF79DC0300F0B50C46062100260E
:10DC8000CBB0082805D0092821D0012020604BB056
:10DC9000F0BD207A676825680006000E01D00846AE
:10DCA00012E0684600F0E2FF00280DD168462A68BD
:10DCB000696800F0F5FF002806D13946684601F092
:10DCC00019F8002800D1304620604BB0F0BD206824
:10DCD0000090237B00206568A26802900390049066
:10DCE000059006900790089009905648002B006810
:10DCF00001907DD16B68202B01D909219DE09E0800
:10DD000028680BA90A96002B13D0C918401EDE07FD
:10DD100003D04678491E0E70401C5B0809D00F46A0
:10DD20004678203FFE778678891E801C0E705B1E29
:10DD3000F5D1EB68A8689D0814A91395002B13D0A2
:10DD4000C918401EDD0703D04578491E0D70401CE0
:10DD50005B0809D00D464678203DEE778578891E10
:10DD6000801C0D705B1EF5D1536810689D081DA9BD
:10DD70001C95002B13D0C918401EDD0703D0457831
:10DD8000491E0D70401C5B0809D00D464678203DA9
:10DD9000EE778578891E801C0D705B1EF5D190682A
:10DDA000D26826A993082593002A13D08918401E0B
:10DDB000D30703D04378491E0B70401C520809D08A
:10DDC0000B464578203BDD778378891E801C0B70DD
:10DDD000521EF5D102AE2EA800F048FF00280FD148
:10DDE0000098026841682EA800F05AFF002800E061
:10DDF00023E005D131462EA800F07CFF002801D099
:10DE000001461AE02027102502A900203A1A5218CC
:10DE1000203A0B5CD67F0E54401CD377A842F5D332
:10DE200026A800901DAB02AA14A90BA800F01CFDA7
:10DE3000002801D00B2100E0002121604BB0F0BD93
:10DE4000FEE7000088EF030030B51C46154689B098
:10DE50000823224600F069FD00280ED068462021E4
:10DE600001F03FF808236A462946204600F043FDAA
:10DE700069462046202201F01BF8002009B030BD81
:10DE8000FFB5ADB030990CA849000291890000910E
:10DE900001F027F800992F9801F023F80020039053
:10DEA0003098002844D9002001903098002838D9B3
:10DEB000039880000A9001982E9A81002D9840586E
:10DEC0000A99515801F038F8039B019AD3189D0024
:10DED0000CAA5051AC1861602F982A180298C01AE9
:10DEE000C1B200200746002910D013468C4640CC12
:10DEF00020CB0021751949412D187941084661460A
:10DF0000491E20C200278C460029F0D10CA8009998
:10DF100000F0E7FF01983099401CC0B201908842A0
:10DF2000C9D30398401CC0B2039030998842BAD339
:10DF3000002031B0F0BD70B590B00C460646684682
:10DF4000202100F0CEFF08A8202100F0CAFF2146C2
:10DF50003046202200F0ACFF002500950195029587
:10DF6000E06A0390206B0490606B0590A06B0690B4
:10DF7000E06B079008ABFC4A6946304600F0EFFCC6
:10DF80003346F94A694608A800F0E9FC0095019576
:10DF90000295206B0390606B0490A06B0590E06B82
:10DFA000069008ABF04A69460795304600F0D7FC6A
:10DFB0003346ED4A694608A800F0D1FC206A00907B
:10DFC000606A0190A06A0395049505950290A06B84
:10DFD0000690E06B079008ABE34A6946304600F0D4
:10DFE000BEFC606A0090A06A0190E06A0290606BDB
:10DFF0000390A06B0490E06B0590606B0690206A24
:10E0000007903346D84A694608A800F0A8FCE06AA1
:10E010000090206B0190606B03950495059502902C
:10E02000206A0690A06A079008ABD04A694630463D
:10E03000FFF70AFF206B0090606B0190A06B0290CD
:10E04000E06B049505950390606A0690E06A07907E
:10E050003346C64A694608A8FFF7F6FE606B009093
:10E06000A06B0190E06B0290206A0390606A0490BC
:10E07000A06A06950590206B079008ABBB4A6946DD
:10E080003046FFF7E1FEA06B0090E06B0295019037
:10E09000606A0390A06A0490E06A06950590606B40
:10E0A00007903346B14A694608A8FFF7CDFEAF4A4C
:10E0B00007218B00F058D358984203D898420CD3CC
:10E0C000491EF6D5A94A6B4611463046FFF7BCFEFD
:10E0D00069463046202200F0EBFE10B070BDF7B567
:10E0E0009CB00546082A13D1A14B072081006C582B
:10E0F00059588C420CD88C4201D3401EF6D51D983D
:10E10000854203D02946920000F0D2FE1FB0F0BD38
:10E1100016460722944609210023F21F12A8092A55
:10E1200001DD0A4601E0002A1BDD2C461834031FDE
:10E13000D70703D067685F601B1D241D521008D0ED
:10E1400067685F60A7689F60521E08330834002A22
:10E15000F6D16246B31A8B4200DD0B46CA1A002A7A
:10E1600010DD9A001018C91A001FCA0702D0002239
:10E170004260001D491005D00022426082600830D4
:10E18000491EFAD109236A4612A97A48FFF778FE98
:10E1900011AA042008A94B6853608B689360401E45
:10E1A000083108320028F6D108236A46704912A8BF
:10E1B000FFF766FE0923694628461D9A00F0B5FB65
:10E1C0006B4A1D99082085004B595559AB4203D81D
:10E1D000AB429BD3401EF6D5002309201D9A644D07
:10E1E00019469C4613468646002440CB80CD2046E7
:10E1F000F61BA0416746F61B8841C007C00F844646
:10E200007046401E40C2214686460028EDD1584A3D
:10E210001D9C08208300E158D3589942DCD89942CC
:10E22000D7D3401EF6D5D7E770B403680022014665
:10E23000002B00D1012200234D6803248E68083191
:10E24000002D01D1521CD2B24D68002E01D15B1CB1
:10E25000DBB2641EF2D1D118C069C9B2002801D165
:10E26000491CC9B2082902D070BC0020704770BC9C
:10E2700001207047FFB5BFB004466846202100F07A
:10E2800030FE2EA8202100F02CFE08A8202100F04E
:10E2900028FE20A8202100F024FE214608A82022E4
:10E2A00000F006FE20A82022409900F001FE10A8F0
:10E2B000202100F016FE18A8202100F012FE0120F7
:10E2C000109007A829900FA82D9017A82C9027A888
:10E2D0002B901FA82A9015E100212D980823026891
:10E2E000C907D40752080A43E40F0260001F214601
:10E2F0005B1EF4D11098C0073ED0409C41996D46FA
:10E30000289110A808232A46214600F0F4FA064670
:10E310000021299808220368C907DF075B080B431F
:10E32000FF0F0360001F3946521EF4D1002E36D075
:10E3300001210798C9070843079007208200A958C0
:10E34000A258914227D936A8202100F0CAFD0823FF
:10E3500036AA2846289900F0CEFA36A92846202267
:10E3600000F0A6FD1BE00000ACEF03008CEF030003
:10E37000CCEF030010F0030000232C980821026862
:10E38000DB07D40752081A43E40F0260001F23463C
:10E39000491EF4D108E0914201D3401ECED5694612
:10E3A00010A8202200F084FD0898C00794D020987F
:10E3B000C00761D100212B9808230268C907D40740
:10E3C00052080A43E40F0260001F21465B1EF4D18D
:10E3D0001898C00735D0409C41996D46289118A8DF
:10E3E00008232A46214600F086FA0646002129988D
:10E3F00008230268C907D70752080A43FF0F0260C3
:10E40000001F39465B1EF4D1002E2DD00121079844
:10E41000C9070843079007208200A958A2589142D3
:10E420001ED936A8202100F05CFD082336AA284614
:10E43000289900F060FA36A92846202200F038FD1D
:10E4400012E000212A9808220368C907DC075B084C
:10E450000B43E40F0360001F2146521EF4D108E075
:10E46000914201D3401ED7D5694618A8202200F05A
:10E470001FFD2098C0079DD00820002208AD20ACC9
:10E480006B469446289040CD80CC0021F61B084670
:10E490008841B21A674604C3B841C2072898D20F10
:10E4A000401E8C4628900028EDD11006000E30D07A
:10E4B0000820002220AD08AC6B46114694462890F7
:10E4C00040CD80CC1046F61B90416746F61B884134
:10E4D000C00740C3C00F844628981146401E2890AC
:10E4E0000028EDD1694620A8202200F0E1FC6B460F
:10E4F00010A918A8409AFFF7A7FC694618A820227F
:10E5000000F0D6FC08A9012082008A58002A15D103
:10E5100010E0694608A8202200F0CAFC6B4618A942
:10E5200010A8409AFFF790FC694610A8202200F03E
:10E53000BFFCE7E7401CC0B20828E5D3082802D199
:10E540000898012813D020A9012082008A58002AA7
:10E5500003D1401CC0B20828F7D3082802D1209864
:10E56000012804D00898C00700D1B5E61FE708A924
:10E57000012082008A58002A03D1401CC0B208281A
:10E58000F7D3082802D10898012806D018A920221C
:10E59000429800F08DFC43B0F0BD10A920224298B3
:10E5A00000F086FC43B0F0BDFFB5A9B01E4617468B
:10E5B000339D329C2998FFF737FE002810D02A9807
:10E5C000FFF732FE00280BD039462046202200F00B
:10E5D0006FFC31462846202200F06AFC2DB0F0BDC9
:10E5E0003846FFF721FE002810D03046FFF71CFE0A
:10E5F00000280BD020462022299900F059FC2846FB
:10E6000020222A9900F054FC2DB0F0BD394620227A
:10E61000299800F071FC002849D020ABFE4A314611
:10E620002A98FFF711FC10ABFB4A39462998FFF7EF
:10E630000BFC10ABF94AF8491846FFF71BFE0823FC
:10E640006A4610A920A8FFF71BFC694618A8FFF727
:10E6500072FC18A908236A460846FFF711FC6946B0
:10E6600020A8FFF768FC10ABEB4A20A82999FFF718
:10E67000EBFB2346E84A394610A8FFF7E5FB10AB51
:10E68000E54A21463846FFF7DFFB08236A4610A912
:10E6900018A8FFF7F5FB694618A8FFF74CFC2B46B6
:10E6A000DD4A314618A8FFF7CFFB2DB0F0BD31464B
:10E6B00020222A9800F020FC002809D020462021A2
:10E6C00000F00FFC2846202100F00BFC2DB0F0BD1F
:10E6D0002B4622462A99299800F05DF92DB0F0BD0D
:10E6E000FFB5D1B010A8202100F0FBFB18A8202115
:10E6F00000F0F7FBFF2410A818AF28AD30AE0E9045
:10E70000FFF792FD00280FD03846FFF78DFD002857
:10E710000AD0284620220E9900F0CAFB304620225B
:10E72000394600F0C5FB63E00E99082338AA084675
:10E73000FFF7A6FB38A920A8FFF7FDFB68462021BC
:10E7400000F0CFFB0120009048ABB34A694620A8F7
:10E75000FFF77AFB03200090082338AA694648A8EF
:10E76000FFF78EFB38A920A8FFF7E5FB39466B467B
:10E77000AA4A084600F0F3F848ABA84AA6496846FA
:10E78000FFF778FD082338AA48A920A8FFF778FBEF
:10E7900038A96846FFF7CFFB6946082338AA084620
:10E7A000FFF76EFB38A948A8FFF7C5FB20AB9A4AD4
:10E7B00048A80E99FFF748FB2B46974A20A80E99C8
:10E7C000FFF742FB20AB944A29460E98FFF73CFB2B
:10E7D000082338AA20A96846FFF752FB38A948A8A1
:10E7E000FFF7A9FB33468C4A394648A8FFF72CFBB4
:10E7F00028A910A8202200F05BFB30A918A820222D
:10E8000000F056FBE017C00E001941118A00539921
:10E81000400951184001221A096801209040014224
:10E8200013D030A928A80191009018A910A8529BD4
:10E83000519AFFF7B9FE28A910A8202200F038FB52
:10E8400030A918A8202200F033FB641E00D352E741
:10E8500010A92022549800F02BFB18A920225A98C6
:10E8600000F026FB55B0F0BDF0B5DDB01C461746F4
:10E870000D46064612AB6A4A6A496298FFF7FAFCEF
:10E88000082302AA12A93846FFF7FAFA10221AA999
:10E8900002A8FFF724FC082302AA12A92046FFF7CA
:10E8A000EFFA102223A902A8FFF719FC34A8009060
:10E8B0002CAB1AAA5C495D48FFF712FF44A80090F0
:10E8C0003CAB23AA29463046FFF70AFF54A94CA8BF
:10E8D0000191009044AB3CAA34A92CA8FFF764FE38
:10E8E0004CA82146202200F007FB002801D0002080
:10E8F000C0435DB0F0BDF0B405461C4600200346A1
:10E90000002C10D0A446002480CD40C9BE19274653
:10E91000674136185F4140C26646761E2346384638
:10E92000B446002EF0D1F0BC7047F0B5054600208B
:10E930008446002B12D09E46002608CD80C934465E
:10E94000DF1BB441381A63469C4101C27346E0079D
:10E950005B1EC00FB4469E46002BEED1F0BD30B515
:10E960001C46154689B008232246FFF7C4FF00283D
:10E970000ED06846202100F0B4FA08236A462946E2
:10E980002046FFF7B8FF69462046202200F090FAA3
:10E99000002009B030BDF0B5A9B01D4614460E46A2
:10E9A0000746FFF741FC002810D03046FFF73CFC3B
:10E9B00000280BD039462046202200F079FA314653
:10E9C0002846202200F074FA29B0F0BD3946082309
:10E9D00008AA0846FFF754FA08A918A8FFF7ABFAE7
:10E9E0006846202100F07DFA0120009020AB0A4A01
:10E9F000694618A8FFF728FA03200090082308AA00
:10EA0000694620A8FFF73CFA08A918A8FFF793FA6F
:10EA10006B46024A31460BE08CEF0300ACEF03007B
:10EA2000F0EF0300CCEF030054F0030034F00300D8
:10EA30000846FFF794FF20AB1E4A1F496846FFF7C0
:10EA400019FC082308AA20A918A8FFF719FA08A991
:10EA50006846FFF770FA6946082308AA0846FFF7D8
:10EA60000FFA08A920A8FFF766FA18AB124A394630
:10EA700020A8FFF7E9F923460F4A394618A8FFF7FF
:10EA8000E3F918AB0C4A21463846FFF7DDF90823B5
:10EA900008AA18A96846FFF7F3F908A920A8FFF704
:10EAA0004AFA2B46044A314620A8FFF7CDF929B08F
:10EAB000F0BD0000ACEF03008CEF0300F3B5CDB068
:10EAC0000CA810230D78CC782A464D7824062D0208
:10EAD0002A438D782D042A43224312BACC78120A95
:10EAE0001202224304C0091D5B1EEBD110214022FB
:10EAF0000024511A1AA88C46026811231146D941E4
:10EB000013251346EB41920A594006465140803E78
:10EB1000F26C07271546FA412B461227FB4153405A
:10EB2000EA085340C918B36CF26E1325D21889183D
:10EB30008160416811230A46DA410B46EB415A4095
:10EB4000890A4A40311DCB6C07271E46FB413546DA
:10EB50001227FD415D40F3085D40CB6E896C521970
:10EB600059185118C1600830A41CA445C4D84D9848
:10EB70000027026D0A92436D0993846D0894C06D5D
:10EB8000049000904D98006E07904D99496E069143
:10EB90008E464D99896E05918C464D99C96E0391AB
:10EBA000019106260546F5410B260146F1414D40EF
:10EBB00019260146F1414D40714606460E40614618
:10EBC00081434E40AE19B900AD4D02916D58019987
:10EBD0006D18761902990CAD6D5871190291114694
:10EBE0000225E9410D261546F5414D4016261146F0
:10EBF000F1411E464D40664031461E4611402640BA
:10EC00004E406146F4468646009801910299009470
:10EC10001C46AD19134640184A197F1C402FC0D31B
:10EC20000A998A184D990A650999CA184D994A6531
:10EC300008990A194D998A65009A04998A184D997C
:10EC4000CA65079909184D980166069871464118DA
:10EC50004D9841660598614641184D988166019925
:10EC6000039841184D98C1664FB0F0BD002815D0EB
:10EC7000002101648164C164824901658249416562
:10EC8000824981658249C16582490166824941663E
:10EC9000824981668249C166002070470E20704714
:10ECA000F8B516460F4604000FD0002E20D0002FD6
:10ECB0000BD00025002E1BD9216C785D6054206C90
:10ECC000401C2064402802D00FE00E20F8BD2146F1
:10ECD0000846FFF7F3FE0123A16C5B020022E06C03
:10ECE000C91822645041A164E0646D1CB542E3D3AD
:10ECF0000020F8BDF8B50D46040020D0002D1ED030
:10ED0000206C80220021382822541AD2401C382836
:10ED100037D238231F1A002F33DD0023FA07D20F12
:10ED200001D02154012397422BDDC618A1555B1C4D
:10ED3000C618921C5B1CA1559742F6DC21E00E2000
:10ED4000F8BD401C402814D240231F1A002F10DDAC
:10ED50000023FA07D20F01D021540123974208DD86
:10ED6000C618A1555B1CC618921C5B1CA155974286
:10ED7000F6DC21460846FFF7A1FE3821204600F0C8
:10ED8000B0F8226CA36C510FD200E06C9A18484185
:10ED90002146A2640606130A2031E0643343CA7791
:10EDA0008B770604130C33434B770302100E184382
:10EDB0000877E06CC876020A8A76020C4A76000E62
:10EDC000087621460846FFF779FE206D000E287070
:10EDD000606D000E2871A06D000E2872E06D000EAF
:10EDE0002873206E000E2874606E000E2875A06EC9
:10EDF000000E2876E06E000E2877206D000C6870FB
:10EE0000606D000C6871A06D000C6872E06D000C04
:10EE10006873206E000C6874606E000C6875A06EDC
:10EE2000000C6876E06E000C6877206D000AA87010
:10EE3000606D000AA871A06D000AA872E06D000A5A
:10EE4000A873206E000AA874606E000AA875A06EF0
:10EE5000000AA876E06E000AA877206DE870606D61
:10EE6000E871A06DE872E06DE873206EE874606E82
:10EE7000E875A06EE876E06EE8770020F8BD000047
:10EE800074F0030067E6096A85AE67BB72F36E3CF7
:10EE90003AF54FA57F520E518C68059BABD9831F65
:10EEA00019CDE05BFEE7FEE7FEE7FEE7FEE7FEE7E3
:10EEB00003460B439B0703D009E008C9121F08C093
:10EEC000042AFAD203E00B780370401C491C521E3E
:10EED000F9D27047D2B201E00270401C491EFBD249
:10EEE00070470022F6E710B513460A460446194655
:10EEF000FFF7F0FF204610BD30B504460020034662
:10EF000000E05B1C934203D2E05CCD5C401BF8D078
:10EF100030BD0000064C0125064E05E0E36807CC35
:10EF20002B430C3C98471034B442F7D3FEF78CFEC9
:10EF300074F1030094F10300F0B4040C8BB2264684
:10EF400082B25E430D0C1046370C584336048019CC
:10EF50000021794116466E43370C360480197941F9
:10EF600026466E438919F0BC704702E008C8121F9C
:10EF700008C1002AFAD170477047002001E001C1A2
:10EF8000121F002AFBD1704708000000FFFFFFFF9F
:10EF9000FFFFFFFFFFFFFFFF000000000000000079
:10EFA0000000000001000000FFFFFFFF0100000063
:10EFB0000000000000000000FFFFFFFFFFFFFFFF59
:10EFC000FFFFFFFFFEFFFFFF00000000512563FC75
:10EFD000C2CAB9F3849E17A7ADFAE6BCFFFFFFFFD4
:10EFE000FFFFFFFF00000000FFFFFFFF0000000029
:10EFF000AFDA9C033D35460C7B61E8585205194356
:10F000000000000000000000FFFFFFFF0000000004
:10F01000FE9BDFEE85FD2F01216C1ADF520519439F
:10F02000FFFFFFFFFEFFFFFFFFFFFFFF00000000ED
:10F030000100000096C298D84539A1F4A033EB2D09
:10F04000817D0377F240A463E5E6BCF847422CE1FA
:10F05000F2D1176BF551BF376840B6CBCE5E316B3E
:10F060005733CE2B169E0F7C4AEBE78E9B7F1AFE02
:10F07000E242E34F982F8A4291443771CFFBC0B5EB
:10F08000A5DBB5E95BC25639F111F159A4823F9273
:10F09000D55E1CAB98AA07D8015B8312BE853124CC
:10F0A000C37D0C55745DBE72FEB1DE80A706DC9B8D
:10F0B00074F19BC1C1699BE48647BEEFC69DC10F39
:10F0C000CCA10C246F2CE92DAA84744ADCA9B05C75
:10F0D000DA88F97652513E986DC631A8C82703B038
:10F0E000C77F59BFF30BE0C64791A7D55163CA0646
:10F0F00067292914850AB72738211B2EFC6D2C4D52
:10F10000130D385354730A65BB0A6A762EC9C2813F
:10F11000852C7292A1E8BFA24B661AA8708B4BC2D5
:10F12000A3516CC719E892D1240699D685350EF4FF
:10F1300070A06A1016C1A419086C371E4C774827B6
:10F14000B5BCB034B30C1C394AAAD84E4FCA9C5B2C
:10F15000F36F2E68EE828F746F63A5781478C8847D
:10F160000802C78CFAFFBE90EB6C50A4F7A3F9BE5F
:10F17000F27871C694F10300007A002004000000C8
:10F180006AEF030098F10300047A002008000000F1
:08F190007AEF03000024F400F3
:040000050003DC41D7
:00000001FF
